:020000040000fa
:10000000f8ff0220b5990000b7a60000cba70000ba
:10001000c7aa000013ad000083a20000000000008a
:1000200000000000000000000000000057ae0000cb
:100030005ba900000000000057ae0000c9aa000044
:1000400057ae000057ae000057ae000057ae00009c
:1000500057ae000057ae000057ae000057ae00008c
:1000600057ae000057ae000057ae000057ae00007c
:1000700079a9000095a9000057ae000057ae000016
:1000800057ae000057ae000057ae0000b1a9000007
:1000900057ae000057ae000057ae000057ae00004c
:1000a00057ae000057ae000057ae000057ae00003c
:1000b00057ae000057ae000057ae0000efad000095
:1000c000f5ad000057ae000057ae000057ae00007f
:1000d00057ae000057ae000057ae000057ae00000c
:1000e00057ae000057ae0000000000000000000006
:1000f0000000000057ae000057ae000057ae0000f1
:1001000057ae000057ae000057ae000057ae0000db
:1001100057ae000057ae000057ae000057ae0000cb
:1001200057ae000057ae000057ae000057ae0000bb
:1001300057ae000057ae000057ae000057ae0000ab
:1001400057ae000057ae000057ae000057ae00009b
:1001500057ae000057ae0000000000000000000095
:10016000000000000000000000000000000000008f
:10017000000000000000000000000000000000007f
:1001800057ae000057ae000057ae000057ae00005b
:100190000000000057ae000057ae000057ae000050
:1001a00057ae000057ae000057ae000057ae00003b
:1001b00057ae000057ae000057ae000057ae00002b
:1001c00057ae000057ae000057ae000057ae00001b
:1001d00057ae000057ae000057ae000057ae00000b
:1001e00057ae000057ae000057ae000057ae0000fb
:1001f00057ae000057ae000057ae000057ae0000eb
:1002000057ae0000000000000000000057ae0000e4
:1002100057ae000057ae000057ae000057ae0000ca
:1002200057ae000057ae000057ae000057ae0000ba
:1002300057ae000057ae000057ae000057ae0000aa
:1002400057ae000057ae000057ae000057ae00009a
:1002500057ae000057ae0000a179000057ae000075
:020000040000fa
:10026000f8b500bff8bc08bc9e46704741a000002e
:10027000f8b500bff8bc08bc9e4670471da0000042
:020000040000fa
:10028000585100201c000000000000001851002000
:100290002000000000000000385100202000000075
:1002a000000000000000002020000000000000000e
:1002b00020000020c0000000000000008a51002043
:1002c00002000000000000001751002001000000a3
:1002d00000000000e00000202800000000000000f6
:1002e000080100200c00000000000000ad510020bb
:1002f0000100000000000000ae51002001000000dd
:1003000000000000f0500020270000000100000065
:1003100000000000000001000002000001000004d5
:1003200000000000000000000000000000000000cd
:100330000003000001000000140100200200000082
:10034000000000009c3d00200400000000000000b0
:10035000d25100200200000000000000c051002027
:100360000800000000000000b04f0020180100004d
:100370000100000000000000000000000116210044
:1003800080090000345500006c280000cc4b002090
:10039000000000000000000000000000000000005d
:1003a00000000000001a2100800900003a580000f7
:1003b0000b2f0000c44700200000000000000000d8
:1003c000000000000000000000000000121c0600f9
:1003d0000108000074ad000090aa0000f051002058
:1003e000000000000000000000000000000000000d
:1003f00000000000131c06000108000080ad000092
:10040000abaa0000f4510020000000000000000032
:1004100000000000000000000000000000602a0052
:1004200080090000405b0000c73a0000c045002082
:1004300000000000000000000000000000000000bc
:100440000000000010702a0080090000465e0000d5
:10045000a9350000c849002000000000000000008d
:10046000000000000000000000000000ffff00008e
:10047000000000000000000000000000000000007c
:10048000000000000000000000000000d04d00202f
:10049000e00100000100000000000000000000007a
:1004a0000010070000070000faad000050ad00008a
:1004b000d4510020000000000000000000000000f7
:1004c000000000000000000001100500000700000f
:1004d00000ae0000e8ac0000d25100200000000097
:1004e000000000000000000000000000000000000c
:1004f000081009000007000006ae00005cad000017
:100500007451002000000000000000000000000006
:1005100000000000000000000910090000070000b2
:100520000cae000016ac0000bc5100200000000022
:1005300000000000000000000000000000000000bb
:100540000a1009000007000012ae000027ac0000ee
:10055000ce5100200000000000000000000000005c
:100560000000000000000000181023000409000033
:100570003ca9000048a200008c51002000000000af
:10058000000000000000000000000000000000006b
:10059000f1102a0002090000f1ab0000dca000000d
:1005a000b05100200000000000000000000000002a
:1005b0000000000000000000f8101b000007000011
:1005c00018ae0000ccab0000c0510020519f0000cd
:1005d000000000000000000000000000000000001b
:1005e000001c05000408000068ad0000dfab00003f
:1005f000c8510020000000000000000000000000c2
:100600000000000000000000321c2900200900004a
:1006100090830000dc710000e8140020000000005e
:1006200000000000000000000000000000000000ca
:10063000331c29002009000090830000dc730000b7
:10064000a4140020000000000000000000000000d2
:100650000000000000000000ffff0000000000009c
:10066000000000000000000000000000000000008a
:10067000000000000000000074510020160000007f
:100680000100000053414d443531204574686572c6
:1006900043415420536c617665000000bc5100203a
:1006a0000400000001000000312e3000ce51002077
:1006b0000400000001000000312e30008c510020a9
:1006c000140000000100000004000000d804000035
:1006d000539200000100000001000000c8510020fa
:1006e00006000000010000000400020104030000f5
:1006f000d451002004000000010000008913000014
:10070000180100200800000000000000af51002088
:10071000010000000000000020010020581200002d
:10072000000000007813002004000000000000001a
:100730007c1300201600000000000000145200206e
:100740000100000000000000d8510020040000005b
:100750000000000094130020520000000000000080
:10076000e813002028000000000000001014002002
:100770009400000000000000a05100200d000000c7
:1007800001000000537562496e6465782030303096
:1007900000000000b05100200c000000010000002b
:1007a000020000000100000004000000a41400206a
:1007b0008c00000000000000155200200100000025
:1007c00000000000165200200100000000000000a0
:1007d000dc5100200400000000000000e051002077
:1007e0000400000000000000e451002004000000ac
:1007f00000000000e851002004000000000000009c
:10080000c04500200402000001000000800000003c
:1008100000000000000000000000000000000000d8
:1008200000000000000000000000000000000000c8
:1008300000000000000000000000000000000000b8
:1008400000000000000000000000000000000000a8
:100850000000000000000000000000000000000098
:100860000000000000000000000000000000000088
:100870000000000000000000000000000000000078
:100880000000000000000000000000000000000068
:100890000000000000000000000000000000000058
:1008a0000000000000000000000000000000000048
:1008b0000000000000000000000000000000000038
:1008c0000000000000000000000000000000000028
:1008d0000000000000000000000000000000000018
:1008e0000000000000000000000000000000000008
:1008f00000000000000000000000000000000000f8
:1009000000000000000000000000000000000000e7
:1009100000000000000000000000000000000000d7
:1009200000000000000000000000000000000000c7
:1009300000000000000000000000000000000000b7
:1009400000000000000000000000000000000000a7
:100950000000000000000000000000000000000097
:100960000000000000000000000000000000000087
:100970000000000000000000000000000000000077
:100980000000000000000000000000000000000067
:100990000000000000000000000000000000000057
:1009a0000000000000000000000000000000000047
:1009b0000000000000000000000000000000000037
:1009c0000000000000000000000000000000000027
:1009d0000000000000000000000000000000000017
:1009e0000000000000000000000000000000000007
:1009f00000000000000000000000000000000000f7
:100a000000000000000000000000000000000000e6
:100a1000c447002004020000010000008000000024
:100a200020010060200200602003006020040060bc
:100a3000200500602006006020070060200800609c
:100a400020090060200a0060200b0060200c00607c
:100a5000200d0060200e0060200f0060201000605c
:100a6000201100602012006020130060201400603c
:100a7000201500602016006020170060201800601c
:100a800020190060201a0060201b0060201c0060fc
:100a9000201d0060201e0060201f006020200060dc
:100aa00020210060202200602023006020240060bc
:100ab000202500602026006020270060202800609c
:100ac00020290060202a0060202b0060202c00607c
:100ad000202d0060202e0060202f0060203000605c
:100ae000203100602032006020330060203400603c
:100af000203500602036006020370060203800601c
:100b000020390060203a0060203b0060203c0060fb
:100b1000203d0060203e0060203f006020400060db
:100b200020410060204200602043006020440060bb
:100b3000204500602046006020470060204800609b
:100b400020490060204a0060204b0060204c00607b
:100b5000204d0060204e0060204f0060205000605b
:100b6000205100602052006020530060205400603b
:100b7000205500602056006020570060205800601b
:100b800020590060205a0060205b0060205c0060fb
:100b9000205d0060205e0060205f006020600060db
:100ba00020610060206200602063006020640060bb
:100bb000206500602066006020670060206800609b
:100bc00020690060206a0060206b0060206c00607b
:100bd000206d0060206e0060206f0060207000605b
:100be000207100602072006020730060207400603b
:100bf000207500602076006020770060207800601b
:100c000020790060207a0060207b0060207c0060fa
:100c1000207d0060207e0060207f006020800060da
:100c2000c84900200402000001000000800000000c
:100c300000000000000000000000000000000000b4
:100c400000000000000000000000000000000000a4
:100c50000000000000000000000000000000000094
:100c60000000000000000000000000000000000084
:100c70000000000000000000000000000000000074
:100c80000000000000000000000000000000000064
:100c90000000000000000000000000000000000054
:100ca0000000000000000000000000000000000044
:100cb0000000000000000000000000000000000034
:100cc0000000000000000000000000000000000024
:100cd0000000000000000000000000000000000014
:100ce0000000000000000000000000000000000004
:100cf00000000000000000000000000000000000f4
:100d000000000000000000000000000000000000e3
:100d100000000000000000000000000000000000d3
:100d200000000000000000000000000000000000c3
:100d300000000000000000000000000000000000b3
:100d400000000000000000000000000000000000a3
:100d50000000000000000000000000000000000093
:100d60000000000000000000000000000000000083
:100d70000000000000000000000000000000000073
:100d80000000000000000000000000000000000063
:100d90000000000000000000000000000000000053
:100da0000000000000000000000000000000000043
:100db0000000000000000000000000000000000033
:100dc0000000000000000000000000000000000023
:100dd0000000000000000000000000000000000013
:100de0000000000000000000000000000000000003
:100df00000000000000000000000000000000000f3
:100e000000000000000000000000000000000000e2
:100e100000000000000000000000000000000000d2
:100e200000000000000000000000000000000000c2
:100e3000cc4b0020040200000100000080000000f4
:100e40002001107020021070200310702004107018
:100e500020051070200610702007107020081070f8
:100e600020091070200a1070200b1070200c1070d8
:100e7000200d1070200e1070200f107020101070b8
:100e80002011107020121070201310702014107098
:100e90002015107020161070201710702018107078
:100ea00020191070201a1070201b1070201c107058
:100eb000201d1070201e1070201f10702020107038
:100ec0002021107020221070202310702024107018
:100ed00020251070202610702027107020281070f8
:100ee00020291070202a1070202b1070202c1070d8
:100ef000202d1070202e1070202f107020301070b8
:100f00002031107020321070203310702034107097
:100f10002035107020361070203710702038107077
:100f200020391070203a1070203b1070203c107057
:100f3000203d1070203e1070203f10702040107037
:100f40002041107020421070204310702044107017
:100f500020451070204610702047107020481070f7
:100f600020491070204a1070204b1070204c1070d7
:100f7000204d1070204e1070204f107020501070b7
:100f80002051107020521070205310702054107097
:100f90002055107020561070205710702058107077
:100fa00020591070205a1070205b1070205c107057
:100fb000205d1070205e1070205f10702060107037
:100fc0002061107020621070206310702064107017
:100fd00020651070206610702067107020681070f7
:100fe00020691070206a1070206b1070206c1070d7
:100ff000206d1070206e1070206f107020701070b7
:101000002071107020721070207310702074107096
:101010002075107020761070207710702078107076
:1010200020791070207a1070207b1070207c107056
:10103000207d1070207e1070207f10702080107036
:10104000ec5100200400000001000000010000003d
:10105000f051002004000000010000000100011612
:10106000f451002004000000010000000100001afb
:10107000301500201620000000000000175200204c
:101080000100000000000000483500204d00000075
:10109000000000009c350020000800000100000056
:1010a000820e04cc8813ff00000040c000006000e6
:1010b000d80400005392000001000000000000006e
:1010c0000000000000000000001080008010800080
:1010d00000108000801080000c0000000000000064
:1010e0000000000000000000000000000000000000
:1010f00000000000000000000000000000000000f0
:1011000000000000000000000000000000000000df
:101110000000000000000000000000000f000100bf
:101120000a001c00040a5353435f446576696365f3
:101130001553414d4435312045746865724341541f
:1011400020536c6176650853796e6368726f6e0b1d
:10115000534d2d53796e6368726f6e001e00100040
:101160000100020200230100000000040000010051
:10117000110000000000000000000000000000005e
:1011800028000200010203ff290010000010800067
:1011900026000101801080002200010200110002df
:1011a0006400010300170002200001043c000c0051
:1011b000000000000000000000000000000000002f
:1011c0000000030400000000ffffffffffffffff20
:1011d000ffffffffffffffffffffffffffffffff1f
:1011e000ffffffffffffffffffffffffffffffff0f
:1011f000ffffffffffffffffffffffffffffffffff
:10120000ffffffffffffffffffffffffffffffffee
:1018a000953500200100000000000000c850002015
:1018b0002800000000000000f85100200400000093
:1018c00000000000fc5100200400000000000000a7
:1018d000005200200400000000000000b841002079
:1018e00008040000010000000000000000000000eb
:1018f000b8410020b8410020c0410020c041002074
:10190000c8410020c8410020d0410020d041002023
:10191000d8410020d8410020e0410020e0410020d3
:10192000e8410020e8410020f0410020f041002083
:10193000f8410020f8410020004200200042002031
:1019400008420020084200201042002010420020df
:10195000184200201842002020420020204200208f
:10196000284200202842002030420020304200203f
:1019700038420020384200204042002040420020ef
:10198000484200204842002050420020504200209f
:10199000584200205842002060420020604200204f
:1019a00068420020684200207042002070420020ff
:1019b00078420020784200208042002080420020af
:1019c000884200208842002090420020904200205f
:1019d0009842002098420020a0420020a04200200f
:1019e000a8420020a8420020b0420020b0420020bf
:1019f000b8420020b8420020c0420020c04200206f
:101a0000c8420020c8420020d0420020d04200201e
:101a1000d8420020d8420020e0420020e0420020ce
:101a2000e8420020e8420020f0420020f04200207e
:101a3000f8420020f842002000430020004300202c
:101a400008430020084300201043002010430020da
:101a5000184300201843002020430020204300208a
:101a6000284300202843002030430020304300203a
:101a700038430020384300204043002040430020ea
:101a8000484300204843002050430020504300209a
:101a9000584300205843002060430020604300204a
:101aa00068430020684300207043002070430020fa
:101ab00078430020784300208043002080430020aa
:101ac000884300208843002090430020904300205a
:101ad0009843002098430020a0430020a04300200a
:101ae000a8430020a8430020b0430020b0430020ba
:101af000b8430020b8430020c0430020c04300206a
:101b0000c8430020c8430020d0430020d043002019
:101b1000d8430020d8430020e0430020e0430020c9
:101b2000e8430020e8430020f0430020f043002079
:101b3000f8430020f8430020004400200044002027
:101b400008440020084400201044002010440020d5
:101b50001844002018440020204400202044002085
:101b60002844002028440020304400203044002035
:101b700038440020384400204044002040440020e5
:101b80004844002048440020504400205044002095
:101b90005844002058440020604400206044002045
:101ba00068440020684400207044002070440020f5
:101bb00078440020784400208044002080440020a5
:101bc0008844002088440020904400209044002055
:101bd0009844002098440020a0440020a044002005
:101be000a8440020a8440020b0440020b0440020b5
:101bf000b8440020b8440020c0440020c044002065
:101c0000c8440020c8440020d0440020d044002014
:101c1000d8440020d8440020e0440020e0440020c4
:101c2000e8440020e8440020f0440020f044002074
:101c3000f8440020f8440020004500200045002022
:101c400008450020084500201045002010450020d0
:101c50001845002018450020204500202045002080
:101c60002845002028450020304500203045002030
:101c700038450020384500204045002040450020e0
:101c80004845002048450020504500205045002090
:101c90005845002058450020604500206045002040
:101ca00068450020684500207045002070450020f0
:101cb00078450020784500208045002080450020a0
:101cc0008845002088450020904500209045002050
:101cd0009845002098450020a0450020a045002000
:101ce000a8450020a8450020b0450020b0450020b0
:101cf000045200200400000001000000ffffffff6d
:101d00000852002004000000010000000000020052
:101d10000c5200200400000001000000a03d002043
:101d2000a03d002018040000010000000000000099
:101d30008c400020f04000205441002000000000b2
:101d40000000000000000000000000000000000093
:101d50000000000000000000000000000000000083
:101d60000000000000000000000000000000000073
:101d70000000000000000000000000000000000063
:101d80000000000000000000000000000000000053
:101d90000000000000000000000000000000000043
:101da0000000000000000000000000000000000033
:101db0000000000000000000000000000000000023
:101dc0000000000000000000000000000000000013
:101dd0000000000001000000000000000e33cdab49
:101de00034126de6ecde05000b0000000000000080
:101df00000000000000000000000000000000000e3
:101e000000000000000000000000000000000000d2
:101e100000000000000000000000000000000000c2
:101e200000000000000000000000000000000000b2
:10214000000000009835002004000000000000009e
:1021500010520020040000000000000000000000f9
:1021600000000000222222222222222222222222d7
:020000040000fa
:102170002de9f04fa94b89b01b7805930446002b3d
:1021800040f05883038904939df81030069303f0c0
:10219000e003202b0293058849d004d843b10026e0
:1021a000374603252ee1029b402b40d0602bf6d111
:1021b0009b4e029a33789342f1d19a4b002a40f019
:1021c0008e82049a197802f01002914200f0838204
:1021d000954a1688069a02f010021a70934b1a68f4
:1021e000093eb6b2002a00f07882914b9149049fd3
:1021f00018680b68dff8408217f0010fa3eb0003ab
:102200008a4600f0ea81b34240f2a6810e258a4b4d
:10221000864f00261e703868814b1e7010b108f082
:102220004bfd3e60824b00261e603746eae0049b71
:1022300062891b0a03eb02239bb20393130a0793e1
:1022400003989df81cb008f06ffc8146002800f050
:10225000f682037b9b4500f2f682069b03f0100892
:10226000434602465946039807f060f8029b402b0c
:10227000074661d10a2d40f0e082431e032b51d85e
:10228000002304f10c0aa381e3810646b8f1000f94
:1022900005d0079a012a00f2de824ff00108002bd8
:1022a0007dd14fb9654bbdf80c201a80644b83f883
:1022b00000b0644bc3f80090029bcdf80480402b23
:1022c000cdf800a04b4640f025813a465946039888
:1022d00002f08affff28054640f094805a4b032203
:1022e0001a705a4bbdf80c2083f80080584b83f8c5
:1022f00000b0584b1a80584bd9f81c201f60574b20
:10230000c3f800a0564b1a60444b01221a70554b7b
:10231000049a1c60238902f0f00223f0ff031343a8
:102320002381e8e0504b1e88103eb04200f29582b7
:1023300004f1100a0023a9e7029b202b40f09182b0
:10234000069b9a0712d50a2d40f07782c3f38106c7
:10235000c6f1040604f10c0ab8f1000fa1d0079be6
:10236000012b00f278824ff001089ae7e389a689f1
:1023700006eb03462c4b1b8806f110029a428cbfd9
:10238000063b06f10a039d4240f05782a5f10a037d
:102390009e4204f1100a94bf0023012376e7264ae7
:1023a000dff890a0012313701e4a13702f4bbdf865
:1023b0000c2083f80080214b1a80214b83f800b059
:1023c000204bc3f80090029b402b14bf33463b4682
:1023d000caf80030154b186808b108f06dfcdaf83f
:1023e0000000dff848a0013020f0010008f05cfc9c
:1023f0000346caf8000000283ad1b8f1000f0cbf1c
:1024000004250525069a01940097b3b202f0100244
:102410000299284605f056fd6de000bf17520020d6
:1024200063350020623500209a14002074350020a6
:1024300050350020583500205535002078350020d3
:10244000903500208c35002060350020613500205b
:102450009435002092350020703500204c35002046
:102460005c3500206c350020881400205435002095
:10247000029a402a43d18de808013a464b46594614
:10248000039802f0b1fe054660b93246daf8001052
:1024900004f1100008f053fbbb4b60221a70bb4bd9
:1024a0001e60afe7ff28fad1b94b04221a70b94b6e
:1024b000bdf80c2083f80080b74b83f800b0b74b11
:1024c0001a80b74bdaf800201f60b64b1a60b64b83
:1024d000d9f81c201a60b54b01221a70b44b049a2b
:1024e0001c60238902f0f00223f0ff0313432381d1
:1024f000a54b60221a70059809b0bde8f08fa5f1d0
:102500000a06324604f1100108f019fb9e4b002523
:102510001d70c4e732465946039802f061fcff285b
:1025200005467ff46faf9a4abdf80c100123137073
:10253000984a82f80080984a82f800b0974a118041
:10254000974ad9f820101660964ac2f800a0964a19
:102550001160964a1370dae6033dab423ff656ae81
:1025600004996fea510101f007018b4205d0072b56
:102570007ff64caeab427ff449ae002188f80010e4
:102580001e4610f0010f4fea50002dd012f8103007
:1025900022f81030218921f0ff010b4322f810307e
:1025a00002eb400004f10a01721e023008f0c7fa83
:1025b00098f8007097b30a232370e388c3f30b03e2
:1025c00043f44053e3807b4b1b7800226270002b66
:1025d0006dd12022227263726ce00121b34288f82f
:1025e00000107ff613aecce7049b61891b0a43ea17
:1025f0000123751c22f810306d080123ab42d7d29d
:1026000004eb4301c718b1f808e04989090241ea1f
:102610001e21013322f817109bb2efe7664bdff85b
:10262000b0b11888654bdff8ac911b789bf80010af
:102630000193d9f800300093614bdaf800201b6851
:1026400002f0cefbff28054628d1514b88f80070d8
:1026500002221a70594b05971a784e4b1a704e4b3e
:102660009bf800201a70544b1a884c4b1a804c4b24
:10267000daf800201a604b4bd9f800201a60504b52
:102680001b681a6a484b1a60484b01221a70484b63
:102690001c603d4b1f703d4b1f602ce7d9f80000bc
:1026a00008f00afbc9f80070002d84d0afe5302394
:1026b00023726272434b1b78012b344b04d11a688e
:1026c00016441e60002503e000251d602e4b1d7082
:1026d0002e462f4696e6012599e5032597e5277aac
:1026e0001a7807f01007ba4200f0b180364a1f701e
:1026f000264b15881968354bdff8d8801a68093dd4
:10270000adb26b1893422f4b8abf551a012200229b
:102710001a70bdf81820228111f001034fea51010f
:102720005ad0d8f8000030f8113023f0ff031a43d4
:1027300000eb4101228102316a1e04f10a0008f017
:10274000fef9e3881f4ac3f30b0343f44053e380cd
:102750002389127803f47f432381002a58d01f4332
:102760002781062d59d80a232189237000236370fd
:10277000c5f1070341ea43032381012a034f4fd1e7
:102780003b681d443d609de76335002050350020c7
:1027900060350020613500209435002092350020fe
:1027a000703500204c3500205c3500201752002089
:1027b0006c3500206235002078350020543500202b
:1027c0008c35002055350020881400205835002015
:1027d0009035002074350020d8f800e03ef8110054
:1027e00042ea002222814fea550c9ab2624503f177
:1027f0000103a6d288180eeb40093ef81000b9f884
:102800000290000a04eb420240ea09205081ece702
:1028100047f001073b432381a3e7eb1c2380ace790
:102820000025d8f8000008f047fac8f800503d60cd
:1028300035704de7092305935de60823fbe706465f
:1028400007460825dee5002637461125dae500268d
:1028500037460125d6e50525d4e501234ff0000aca
:0c28600014e506464ff0000a76e500bfc4
:020000040000fa
:10286c004f7574707574732070726f636573732019
:10287c0064617461206d617070696e67005375627c
:10288c00496e6465782030303100537562496e644e
:10289c0065782030303200537562496e646578205b
:1028ac0030303300537562496e64657820303034b3
:1028bc0000537562496e646578203030350053756d
:1028cc0062496e6465782030303600537562496e0b
:1028dc006465782030303700537562496e646578d2
:1028ec002030303800537562496e64657820303082
:1028fc003900537562496e6465782030313000536d
:10290c007562496e646578203031310053756249c7
:10291c006e6465782030313200537562496e64659f
:10292c00782030313300537562496e6465782030fd
:10293c00313400537562496e64657820303135004e
:10294c00537562496e646578203031360053756278
:10295c00496e6465782030313700537562496e6476
:10296c0065782030313800537562496e6465782083
:10297c0030313900537562496e64657820303230dd
:10298c0000537562496e646578203032310053759e
:10299c0062496e6465782030323200537562496e3c
:1029ac006465782030323300537562496e64657803
:1029bc002030323400537562496e646578203032b1
:1029cc003500537562496e64657820303236005399
:1029dc007562496e646578203032370053756249f0
:1029ec006e6465782030323800537562496e6465c8
:1029fc00782030323900537562496e646578203026
:102a0c00333000537562496e646578203033310081
:102a1c00537562496e6465782030333200537562a9
:102a2c00496e6465782030333300537562496e64a7
:102a3c0065782030333400537562496e64657820b4
:102a4c0030333500537562496e6465782030333607
:102a5c0000537562496e64657820303337005375c6
:102a6c0062496e6465782030333800537562496e64
:102a7c006465782030333900537562496e6465782b
:102a8c002030343000537562496e646578203034e0
:102a9c003100537562496e646578203034320053ce
:102aac007562496e64657820303433005375624921
:102abc006e6465782030343400537562496e6465f9
:102acc00782030343500537562496e646578203057
:102adc00343600537562496e6465782030343700a3
:102aec00537562496e6465782030343800537562d2
:102afc00496e6465782030343900537562496e64d0
:102b0c0065782030353000537562496e64657820e5
:102b1c0030353100537562496e646578203035323a
:102b2c0000537562496e64657820303533005375f7
:102b3c0062496e6465782030353400537562496e95
:102b4c006465782030353500537562496e6465785c
:102b5c002030353600537562496e64657820303507
:102b6c003700537562496e646578203035380053f0
:102b7c007562496e64657820303539005375624949
:102b8c006e6465782030363000537562496e64652a
:102b9c00782030363100537562496e646578203088
:102bac00363200537562496e6465782030363300d6
:102bbc00537562496e646578203036340053756203
:102bcc00496e6465782030363500537562496e6401
:102bdc0065782030363600537562496e646578200e
:102bec0030363700537562496e646578203036385c
:102bfc0000537562496e6465782030363900537520
:102c0c0062496e6465782030373000537562496ec6
:102c1c006465782030373100537562496e6465788d
:102c2c002030373200537562496e64657820303736
:102c3c003300537562496e64657820303734005325
:102c4c007562496e6465782030373500537562497a
:102c5c006e6465782030373600537562496e646552
:102c6c00782030373700537562496e6465782030b0
:102c7c00373800537562496e6465782030373900f7
:102c8c00537562496e646578203038300053756234
:102c9c00496e6465782030383100537562496e6432
:102cac0065782030383200537562496e646578203f
:102cbc0030383300537562496e646578203038348f
:102ccc0000537562496e6465782030383500537551
:102cdc0062496e6465782030383600537562496eef
:102cec006465782030383700537562496e646578b6
:102cfc002030383800537562496e6465782030385e
:102d0c003900537562496e64657820303930005350
:102d1c007562496e646578203039310053756249ab
:102d2c006e6465782030393200537562496e646583
:102d3c00782030393300537562496e6465782030e1
:102d4c00393400537562496e64657820303935002a
:102d5c00537562496e64657820303936005375625c
:102d6c00496e6465782030393700537562496e645a
:102d7c0065782030393800537562496e6465782067
:102d8c0030393900537562496e64657820313030c2
:102d9c0000537562496e646578203130310053758b
:102dac0062496e6465782031303200537562496e29
:102dbc006465782031303300537562496e646578f0
:102dcc002031303400537562496e6465782031309f
:102ddc003500537562496e64657820313036005386
:102dec007562496e646578203130370053756249dd
:102dfc006e6465782031303800537562496e6465b5
:102e0c00782031303900537562496e646578203111
:102e1c00313000537562496e646578203131310070
:102e2c00537562496e646578203131320053756296
:102e3c00496e6465782031313300537562496e6494
:102e4c0065782031313400537562496e64657820a1
:102e5c0031313500537562496e64657820313136f5
:102e6c0000537562496e64657820313137005375b3
:102e7c0062496e6465782031313800537562496e51
:102e8c006465782031313900537562496e64657818
:102e9c002031323000537562496e646578203132ce
:102eac003100537562496e646578203132320053bb
:102ebc007562496e6465782031323300537562490e
:102ecc006e6465782031323400537562496e6465e6
:102edc00782031323500537562496e646578203143
:102eec00323600537562496e646578203132370092
:0f2efc00537562496e6465782031323800ff00eb
:020000040000fa
:102f0b00496e707574732070726f63657373206490
:102f1b00617461206d617070696e670053756249f1
:102f2b006e6465782030303100537562496e64658c
:102f3b00782030303200537562496e6465782030ea
:102f4b00303300537562496e64657820303034003d
:102f5b00537562496e646578203030350053756265
:102f6b00496e6465782030303600537562496e6463
:102f7b0065782030303700537562496e6465782070
:102f8b0030303800537562496e64657820303039c3
:102f9b0000537562496e646578203031300053758b
:102fab0062496e6465782030313100537562496e29
:102fbb006465782030313200537562496e646578f0
:102fcb002030313300537562496e6465782030319f
:102fdb003400537562496e64657820303135005387
:102feb007562496e646578203031360053756249dd
:102ffb006e6465782030313700537562496e6465b5
:10300b00782030313800537562496e646578203012
:10301b00313900537562496e646578203032300067
:10302b00537562496e646578203032310053756296
:10303b00496e6465782030323200537562496e6494
:10304b0065782030323300537562496e64657820a1
:10305b0030323400537562496e64657820303235f6
:10306b0000537562496e64657820303236005375b3
:10307b0062496e6465782030323700537562496e51
:10308b006465782030323800537562496e64657818
:10309b002030323900537562496e646578203033c5
:1030ab003000537562496e646578203033310053bc
:1030bb007562496e6465782030333200537562490e
:1030cb006e6465782030333300537562496e6465e6
:1030db00782030333400537562496e646578203044
:1030eb00333500537562496e646578203033360092
:1030fb00537562496e6465782030333700537562bf
:10310b00496e6465782030333800537562496e64bc
:10311b0065782030333900537562496e64657820c9
:10312b0030343000537562496e6465782030343129
:10313b0000537562496e64657820303432005375e4
:10314b0062496e6465782030343300537562496e82
:10315b006465782030343400537562496e64657849
:10316b002030343500537562496e646578203034f5
:10317b003600537562496e646578203034370053de
:10318b007562496e64657820303438005375624936
:10319b006e6465782030343900537562496e64650e
:1031ab00782030353000537562496e646578203075
:1031bb00353100537562496e6465782030353200c5
:1031cb00537562496e6465782030353300537562f0
:1031db00496e6465782030353400537562496e64ee
:1031eb0065782030353500537562496e64657820fb
:1031fb0030353600537562496e646578203035374b
:10320b0000537562496e646578203035380053750c
:10321b0062496e6465782030353900537562496eaa
:10322b006465782030363000537562496e6465787a
:10323b002030363100537562496e64657820303624
:10324b003200537562496e64657820303633005313
:10325b007562496e64657820303634005375624967
:10326b006e6465782030363500537562496e64653f
:10327b00782030363600537562496e64657820309d
:10328b00363700537562496e6465782030363800e6
:10329b00537562496e646578203036390053756218
:1032ab00496e6465782030373000537562496e641f
:1032bb0065782030373100537562496e646578202c
:1032cb0030373200537562496e646578203037337e
:1032db0000537562496e646578203037340053753e
:1032eb0062496e6465782030373500537562496edc
:1032fb006465782030373600537562496e646578a3
:10330b002030373700537562496e6465782030374b
:10331b003800537562496e64657820303739005335
:10332b007562496e64657820303830005375624998
:10333b006e6465782030383100537562496e646570
:10334b00782030383200537562496e6465782030ce
:10335b00383300537562496e646578203038340019
:10336b00537562496e646578203038350053756249
:10337b00496e6465782030383600537562496e6447
:10338b0065782030383700537562496e6465782054
:10339b0030383800537562496e646578203038399f
:1033ab0000537562496e646578203039300053756f
:1033bb0062496e6465782030393100537562496e0d
:1033cb006465782030393200537562496e646578d4
:1033db002030393300537562496e6465782030397b
:1033eb003400537562496e6465782030393500536b
:1033fb007562496e646578203039360053756249c1
:10340b006e6465782030393700537562496e646598
:10341b00782030393800537562496e6465782030f6
:10342b00393900537562496e64657820313030004c
:10343b00537562496e646578203130310053756283
:10344b00496e6465782031303200537562496e6481
:10345b0065782031303300537562496e646578208e
:10346b0031303400537562496e64657820313035e4
:10347b0000537562496e64657820313036005375a0
:10348b0062496e6465782031303700537562496e3e
:10349b006465782031303800537562496e64657805
:1034ab002031303900537562496e646578203131b3
:1034bb003000537562496e646578203131310053a9
:1034cb007562496e646578203131320053756249fb
:1034db006e6465782031313300537562496e6465d3
:1034eb00782031313400537562496e646578203130
:1034fb00313500537562496e646578203131360081
:10350b00537562496e6465782031313700537562ab
:10351b00496e6465782031313800537562496e64a9
:10352b0065782031313900537562496e64657820b6
:10353b0031323000537562496e6465782031323117
:10354b0000537562496e64657820313232005375d1
:10355b0062496e6465782031323300537562496e6f
:10356b006465782031323400537562496e64657836
:10357b002031323500537562496e646578203132e3
:10358b003600537562496e646578203132370053cb
:0e359b007562496e6465782031323800ff0099
:020000040000fa
:1035a9004f7574707574730054726967676572003a
:1035b900547269676765723220005472696767657a
:1035c90072330054726967676572340054726967af
:1035d900676572350054726967676572360054729f
:1035e9006967676572370054726967676572380081
:1035f90054726967676572390054726967676572e1
:1036090031300054726967676572313100547269eb
:103619006767657231320054726967676572313361
:10362900005472696767657231340054726967675b
:1036390065723135005472696767657231360054b5
:1036490072696767657231370054726967676572b5
:10365900313800547269676765723139005472698b
:103669006767657232300054726967676572323113
:10367900005472696767657232320054726967670c
:103689006572323300547269676765723234005467
:103699007269676765723235005472696767657266
:1036a900323600547269676765723237005472693d
:1036b90067676572323800547269676765723239b3
:1036c90000547269676765723330005472696767bd
:1036d9006572333100547269676765723332005419
:1036e9007269676765723333005472696767657217
:1036f90033340054726967676572333500547269ef
:103709006767657233360054726967676572333764
:103719000054726967676572333800547269676764
:1037290065723339005472696767657234300054c1
:1037390072696767657234310054726967676572c7
:1037490034320054726967676572343300547269a0
:103759006767657234340054726967676572343516
:103769000054726967676572343600547269676715
:10377900657234370054726967676572343800546a
:10378900726967676572343900547269676765726f
:103799003530005472696767657235310054726952
:1037a90067676572353200547269676765723533c8
:1037b90000547269676765723534005472696767c6
:1037c900657235350054726967676572353600541c
:1037d9007269676765723537005472696767657220
:1037e90035380054726967676572353900547269f2
:1037f900676765723630005472696767657236317a
:103809000054726967676572363200547269676776
:1038190065723633005472696767657236340054cd
:1038290072696767657236350054726967676572d0
:1038390036360054726967676572363700547269a3
:103849006767657236380054726967676572363919
:103859000054726967676572373000547269676727
:10386900657237310054726967676572373200547f
:103879007269676765723733005472696767657281
:103889003734005472696767657237350054726955
:1038990067676572373600547269676765723737cb
:1038a90000547269676765723738005472696767cf
:1038b9006572373900547269676765723830005428
:1038c9007269676765723831005472696767657232
:1038d9003832005472696767657238330054726907
:1038e900676765723834005472696767657238357d
:1038f9000054726967676572383600547269676780
:1039090065723837005472696767657238380054d0
:1039190072696767657238390054726967676572d9
:1039290039300054726967676572393100547269b8
:10393900676765723932005472696767657239332e
:103949000054726967676572393400547269676730
:103959006572393500547269676765723936005482
:10396900726967676572393700547269676765728a
:103979003938005472696767657239390054726958
:1039890067676572313030005472696767657231f3
:103999003031005472696767657231303200547290
:1039a9006967676572313033005472696767657298
:1039b90031303400547269676765723130350054ab
:1039c9007269676765723130360054726967676575
:1039d9007231303700547269676765723130380067
:1039e9005472696767657231303900547269676763
:1039f90065723131300054726967676572313131ee
:103a090000547269676765723131320054726967af
:103a19006765723131330054726967676572313194
:103a290034005472696767657231313500547269bf
:103a3900676765723131360054726967676572313b
:103a490031370054726967676572313138005472d1
:103a590069676765723131390054726967676572e0
:103a690031323000547269676765723132310054fe
:103a790072696767657231323200547269676765c6
:103a890072313233005472696767657231323400ba
:103a990054726967676572313235005472696767b4
:103aa900657231323600547269676765723132372f
:0e3ab900005472696767657231323800ff0091
:020000040000fa
:103ac700496e7075747300436f756e746572004349
:103ad7006f756e7465723200436f756e74657233fd
:103ae70000436f756e7465723400436f756e74654d
:103af700723500436f756e7465723600436f756e6d
:103b07007465723700436f756e7465723800436f62
:103b1700756e7465723900436f756e7465723130f6
:103b270000436f756e746572313100436f756e7443
:103b37006572313200436f756e74657231330043bd
:103b47006f756e746572313400436f756e7465728c
:103b5700313500436f756e746572313600436f758a
:103b67006e746572313700436f756e7465723138e4
:103b770000436f756e746572313900436f756e74eb
:103b87006572323000436f756e746572323100436f
:103b97006f756e746572323200436f756e7465723d
:103ba700323300436f756e746572323400436f753c
:103bb7006e746572323500436f756e746572323696
:103bc70000436f756e746572323700436f756e749c
:103bd7006572323800436f756e746572323900430f
:103be7006f756e746572333000436f756e746572ee
:103bf700333100436f756e746572333200436f75ee
:103c07006e746572333300436f756e746572333447
:103c170000436f756e746572333500436f756e744c
:103c27006572333600436f756e74657233370043c0
:103c37006f756e746572333800436f756e74657295
:103c4700333900436f756e746572343000436f7596
:103c57006e746572343100436f756e7465723432f9
:103c670000436f756e746572343300436f756e74fd
:103c77006572343400436f756e7465723435004372
:103c87006f756e746572343600436f756e74657246
:103c9700343700436f756e746572343800436f753f
:103ca7006e746572343900436f756e7465723530a2
:103cb70000436f756e746572353100436f756e74ae
:103cc7006572353200436f756e7465723533004324
:103cd7006f756e746572353400436f756e746572f7
:103ce700353500436f756e746572353600436f75f1
:103cf7006e746572353700436f756e74657235384b
:103d070000436f756e746572353900436f756e7455
:103d17006572363000436f756e74657236310043d5
:103d27006f756e746572363200436f756e746572a7
:103d3700363300436f756e746572363400436f75a2
:103d47006e746572363500436f756e7465723636fc
:103d570000436f756e746572363700436f756e7406
:103d67006572363800436f756e7465723639004375
:103d77006f756e746572373000436f756e74657258
:103d8700373100436f756e746572373200436f7554
:103d97006e746572373300436f756e7465723734ae
:103da70000436f756e746572373500436f756e74b7
:103db7006572373600436f756e7465723737004327
:103dc7006f756e746572373800436f756e74657200
:103dd700373900436f756e746572383000436f75fd
:103de7006e746572383100436f756e746572383260
:103df70000436f756e746572383300436f756e7468
:103e07006572383400436f756e74657238350043d8
:103e17006f756e746572383600436f756e746572b0
:103e2700383700436f756e746572383800436f75a5
:103e37006e746572383900436f756e746572393008
:103e470000436f756e746572393100436f756e7418
:103e57006572393200436f756e746572393300438a
:103e67006f756e746572393400436f756e74657261
:103e7700393500436f756e746572393600436f7557
:103e87006e746572393700436f756e7465723938b1
:103e970000436f756e746572393900436f756e74c0
:103ea700657231303000436f756e74657231303131
:103eb70000436f756e74657231303200436f756ef3
:103ec70074657231303300436f756e7465723130cb
:103ed7003400436f756e74657231303500436f750a
:103ee7006e74657231303600436f756e746572316a
:103ef700303700436f756e74657231303800436f29
:103f0700756e74657231303900436f756e74657202
:103f170031313000436f756e746572313131004352
:103f27006f756e74657231313200436f756e7465eb
:103f37007231313300436f756e74657231313400fd
:103f4700436f756e74657231313500436f756e74ea
:103f5700657231313600436f756e74657231313772
:103f670000436f756e74657231313800436f756e3b
:103f770074657231313900436f756e746572313211
:103f87003000436f756e74657231323100436f755f
:103f97006e74657231323200436f756e74657231bb
:103fa700323300436f756e74657231323400436f7c
:103fb700756e74657231323500436f756e74657254
:103fc70031323600436f756e746572313237004394
:0c3fd7006f756e74657231323800ff00a7
:020000040000fa
:103fe4002de9f04faf4fb04db04c85b04ff6ff7395
:103ff4003b80012210f0100302938a462a70019735
:1040040000f00f00237836d023f0100323700292bf
:104014002378dff8b882c6b206eb031303f0ff0b74
:10402400bbf1440f3dd035d8bbf1220f42d02bd881
:10403400bbf1120f3ed09e4903914ff00009bbf132
:10404400320fa1f8009062d000f2c280bbf1210fc0
:1040540000f0f38000f28f80bbf1130f00f01581a4
:104064004fd8bbf1110f00f0c481bbf1120f00f067
:10407400638112274ce0da0602d5012840f0598109
:1040840003f00f032370c3e7bbf1240f18d0bbf177
:10409400420fcfe7bbf1820f0cd005d8bbf1480f1c
:1040a400c9d1844a107806e0bbf1840ff9d0bbf182
:1040b400880ff5e7022002f0e9fb87b23fb9bae7bf
:1040c4007d497e4803f084fa07460028e9d0227827
:1040d400042a00f09d81082a00f09681022a40f00b
:1040e4009e81162f40f0998103f068fb06f064fe70
:1040f400002006f0e5f9012006f0e2f9012323701f
:1041040006e0bbf1140f02d0bbf1180fb1d1112797
:10411400207800f00f039e4200f0ac811fb9baf181
:10412400000f00f0a481304303070ed5644b1b78c5
:104134001bb106f08cfe06f029fd5f4b1b88002b9b
:1041440000f08981022006f0bbf9002f00f08a817b
:104154002378082b04bf04232370237843f010032f
:1041640023700023207888f80030394605b0bde874
:10417400f04f03f0f9bcbbf1240f00f0fc8005d82c
:10418400bbf1220f6ed0bbf1230fbfe7bbf1280fa9
:10419400bdd0bbf1310f7ff46caf4a4807784fb103
:1041a40080f80090484606f0bff803f007fb06f0dd
:1041b40003fe074606f04ffe434a00201070ff2f0f
:1041c400a6d1039b012288f80020a3f800b038e1af
:1041d400bbf1440f46d010d8bbf1410f23d005d812
:1041e400bbf1340f93d0bbf1380f8fe7bbf1420f13
:1041f40000f0f780bbf1430f88e7bbf1820f00f0ba
:10420400e68025d8bbf1480f00f0cb80bbf1810fcd
:104214007ff42faf06f01bfe074606f0b7fc85f8c7
:1042240000900028cbd106f00efe074603f0defd19
:1042340000232b70002f40f03d8103f0bffa06f0fd
:10424400bbfd214b002207461a704ff0210bb6e745
:10425400bbf1840f00f0b380fff459afbbf1880fba
:104264007ff407af029b13b1584606f0f5fd23789f
:1042740013f00c0f07d0104b1b88002b00f0bd80ef
:10428400022006f07cf9fe2742e70e4f4ff0010ba7
:10429400022087f800b002f0f9fac8b187f800905c
:1042a400152735e7d21300209a1300209b13002012
:1042b40096130020e21300209c130020ca13002050
:1042c400d6130020d41300202c150020c81300207e
:1042d40006f02af804f09cfc0746002840f0ce8043
:1042e400287006f0acfd0746002840f0c780734be9
:1042f40083f800b0032006f0adfd002f3ff408afb3
:104304006f4a0023ff2f13707ff402af0123039a37
:1043140088f80030132313804ff4fa63019a138052
:10432400019bb3f900300a2293fbf2f29b1a019a23
:10433400138005b0bde8f08f06f04ef9614a12789b
:10434400002a00f0868004f063fc074640b1ff2f8a
:1043540068d02b780bb906f02ffd03f02ffad7e6bf
:1043640000222a7006f06bfd07460028efd1534b5c
:1043740001221a70cce600f0b3f80746002840f09a
:104384008780dff858912870484606f05afd0746a2
:1043940000287dd1b9f8000005f0e1ff01224a4b65
:1043a400e7e705f065fc074600287ad1287006f097
:1043b4004cfd0746002874d10122444bd9e706f08e
:1043c40046fd4f4606f0e2fb85f80090a0e606f0b5
:1043d4003efd074606f0dafb85f8009000287ff4de
:1043e400eeae06f030fd03f001fd002129700f460a
:1043f4008ee6374981f8009034e7364b1b88002b52
:104404003ff441af03203ce706f021fd06f0befb7c
:1044140006f019fd03f0eafc63e602222270ff2f86
:104424007ff476ae012288f800202b4abbf1240fda
:10443400a2f800b00ad006d8abf11203012b7ff624
:104444006bafc8236ae7bbf1480ffad142f22833b5
:1044540064e751275ce61f4b1b88002b3ff475aec5
:10446400032070e6baf1000f01d046f01006267062
:10447400574676e6002188f8001077e6ff2f3ff4d0
:1044840039af2b780bb906f097fc03f097f931e7b5
:10449400ff2fc7d02b780bb906f0d5fc03f0a6fc90
:1044a40036e6ff2fbed02b780bb906f0d0fc06f011
:1044b4006dfb2de64ff0410b81e600bf7e1400201a
:1044c400d413002014520020dc130020d613002043
:1044d4002c150020ca13002096130020b2130020cc
:020000040000fa
:1044e4002de9f04f834a844c844d854fb4f80c90e9
:1044f400b5f80ca0834e87b00023022013700393f9
:1045040004933b8006f098fa0368338043680320e1
:1045140013f0020f14bf4ff0010b4ff0030b06f022
:104524008bfa794a03681380426878497848b1f86d
:1045340000e0008812f0020f14bf012203229bb294
:104544000efb02328242884604dd72490988014426
:104554008b4208db704909888a420cdd6f4a128855
:104564000a44934207da0320022104f097f81e203c
:1045740007b0bde8f08f3288694eb6f800c00bfb77
:104584000c2b584506dadff88cc1bcf800c0604437
:1045940082420bdb594504da6048008801448a42b0
:1045a40004db5b4508da73449a4205da02210846c3
:1045b40004f074f81d20dbe704224ff4186102a80c
:1045c40004f036febdf80830029304224ff41a6159
:1045d40003a804f02dfe40f6a411042204a804f05c
:1045e40027fe0299ddf810e011f4106c21d08a0541
:1045f4002ed519ea0a0907d019f0040f28d019f0aa
:10460400080f01d14b0523d4039a3ab1236993428d
:1046140000f29781434b9a4200f2938101f4c06304
:10462400b3f5c06f05d1bef1000f13d0964580f0ed
:104634008c8100203c4b1b78f3b163886a88bcf101
:10464400000f09d1991e012902d9911e012922d8ee
:1046540030208de77046ede711f4806f03d1032b12
:10466400f6d0032af4d0890532d4022bf0d0022ae2
:10467400eed0032b2ed00ee03388bcf1000f1ad1fc
:10468400b8f8002023b1002a40f06581012302e03c
:10469400003218bf01222549097800294ad1002b8c
:1046a40000f05181002a00f04e8121494ff0010ca5
:1046b40081f800c042e01bb100280cbf0223032391
:1046c400b8f8002022b111f4806f0cbf022203223b
:1046d400032b06d1039b636263606b626b600323ed
:1046e400d9e7022bd7d1039961626160696269607d
:1046f400d1e700bfd0130020e8140020a414002048
:10470400b2130020a8130020e4130020ca130020d1
:104714009214002088140020801400209a14002091
:104724009c130020000050c32c150020941300207b
:10473400dd130020002bb8d1002ab6d1874900919f
:1047440091f800c0bcf1000f06d03188002900f0b8
:10475400c6804ff480613980991e012902d9911ec7
:10476400012907d87e494ff0010c81f800c0318837
:1047740001b93980dff81cc27a49dff81ca26380d2
:104784004ff00009acf80090dff810c26a80a1f87d
:104794000090acf80090aaf80090002800f0ab80dc
:1047a400039a96450eeb0209b9fbf2f306d302fb1a
:1047b400139e98b2bef1000f00f09980acf800008f
:1047c40098b202fb1393002b40f0938008800df104
:1047d400180b0023644a4bf8043d13804ff48461a2
:1047e40004225846019304f023fd3288ddf8149026
:1047f400dff8aca1002a00f08b801ffa89f2019b3c
:10480400002a00f0858004224ff480615846059305
:1048140004f00efd059b9ab2002a76d013460233ab
:104824001ffa89f946f2a71203fb092946f2a813d5
:10483400b9fbf3f9aaf800904c4b00221a804c4bb8
:10484400baf800201b78002a66d1002b66d1009ba1
:104854001b782bb133881bb13b8843f480633b80c6
:10486400444a4548454900231380454a238513801b
:10487400444a63851370444a84f84030029c1370a0
:10488400424a2b856b8585f84030a50503800b8053
:10489400138015d5039b63b13d4ab3fbf2f2042a9e
:1048a40085bf520092b201220a2588bfb2fbf5f2fd
:1048b4000280620504d5049a934231d903880b809f
:1048c400338813b1022005f05afeb8f8003013b152
:1048d400032005f054fe04f09fff002048e6b8f8da
:1048e400001000293ff438af4ff4006133e7013082
:1048f40064e701306ae7022b04bf0123acf80030ff
:10490400032a1cbf01230b8061e7aaf8002093e768
:104914000023aaf8003092e7002b98d11f2027e645
:1049240013441b4ab3fbf2f3042b89bf5b0001233e
:104934000a22b3fbf2f30b8002880b8803eb5203c9
:10494400bde7362014e6292012e619f0100f3ff4d3
:104954007fae01206ee6222298e600bfdd13002020
:10496400d5130020c61300202e1500209813002014
:10497400de130020a0130020aa130020b01300208f
:10498400d8130020b4130020d1130020ae1300204c
:10499400a0860100a4130020e0130020cc13002003
:0449a400da13002002
:020000040000fa
:1049a8002de9f74f01f10b05162d064606d935f00e
:1049b800070504d50c233360002445e110258d42fa
:1049c800f8d3304606f047fab5f5fc7fa54f39d243
:1049d80005f108023a44a2f1080154688c424feaf2
:1049e800d50302d1d468a24210d06368e268a168f6
:1049f80023f00303ca60234491605a6842f001021d
:104a08005a60304606f028fa08341de10233964a07
:104a18003c699442114675d0606820f00300a0eb11
:104a2800050ebef10f0f48dd631945f001056560fd
:104a38007b613b61da609a604ef001025a6044f88b
:104a480000e0dee76b0a2ad0042b12d8ab09383312
:104a58005a1c07ebc202a2f108005468844206d02f
:104a6800626822f00302511b0f291cdd013b013350
:104a7800cde7142b01d85b33eae7542b02d82b0b74
:104a88006e33e5e7b3f5aa7f02d8eb0b7733dfe7a0
:104a980040f25452934204d8ab0c7c33d8e73f23fe
:104aa800d6e77e23d4e70029e16804dba368d96050
:104ab8008b60a318a1e70c46d0e7bef1000f7a611e
:104ac8003a6105db2044436843f00103436098e7fb
:104ad800b0f5007f4bd2c0084feaa00e012202fabf
:104ae8000efe7a6801304eea02027a6007ebc002d5
:104af80057f830e0c4f808e0083ae26047f8304078
:104b0800cef80c4001209a1000fa02f2786882422e
:104b180000f2ac80024206d123f0030352000242a5
:104b280003f10403fad007ebc308c1469c46d9f841
:104b38000c404c455ad10cf1010c1cf0030f09f143
:104b48000809f4d19c0740f085807b6823ea0203ba
:104b58007b6078685200824200f28880002a00f068
:104b6800858063460242ded104335200fae7420ae6
:104b7800042a17d88209383202f1010e07ebc20c59
:104b880057f83ee0f44528d10120921000fa02f2cd
:104b9800786810437860c4f80cc0c4f808e0ccf812
:104ba8000840ade7142a01d85b32e5e7542a02d859
:104bb800020b6e32e0e7b2f5aa7f02d8c20b773259
:104bc800dae740f2545e72459abf820c7c327e224c
:104bd800d2e7def808e0f44505d0def8042022f03c
:104be80003029042f5d3def80cc0d4e76068d4f82d
:104bf8000ce020f00300a0eb050abaf10f0f12dd5c
:104c0800a268631945f001056560c2f80ce0cef8aa
:104c180008204af001027b613b61d96099605a60c3
:104c280044f800a0ede6baf1000f11db2044436818
:104c380043f00103436054f8083f3046c3f80ce0e2
:104c4800cef8083006f008f9204603b0bde8f08f2a
:104c580074466ee758f80809804503f1ff333ff4be
:104c680071af76e7b8410020c0410020d7f808b0fe
:104c7800dbf8044024f003094d4504d8a9eb0503eb
:104c88000f2b00f394804f4a14684f4a0192116821
:104c98002c44013116bf8f34103424f07f040beb01
:104ca800090321463046009305f034feb0f1ff3f7a
:104cb800804654d0009b019a834201d9bb454ed10e
:104cc80042480168434521440160824613d1580691
:104cd80011d1bb684c4444f001045c603c4adaf8ea
:104ce800003011688b4288bf13603a4a11688b42c2
:104cf80088bf136033e0106801301bbfa8eb0303c3
:104d08005b18c2f80080caf8003018f007031cbf0f
:104d1800c3f1080398444444803304f07f041c1b07
:104d28002146304605f0f6fd431c08bf4046daf838
:104d38000030c7f8088008bf0024a0eb080023440f
:104d4800044444f00104bb45caf80030c8f80440e4
:104d5800c4d0b9f10f0f10d80123c8f80430bb68cc
:104d68005a6822f003029542a2eb050301d80f2be3
:104d78001ddc304606f070f81ee6dbf80430a9f1b9
:104d88000c0929f0070903f0010343ea0903cbf8ea
:104d980004300beb09030522b9f10f0f5a609a6032
:104da8009cd90bf10801304601f020ff96e7bc685a
:104db80045f00102254443f001036260bd606b6069
:104dc8001fe600bf0052002004520020c8500020f7
:084dd800f8510020fc510020fd
:020000040000fa
:104de0002de9f04f9a4689b08bb20293baf80c3095
:104df000129c9df84cb00d46c3f303210729dbb28a
:104e000081460491039300f0bc81daf8183093f8de
:104e10000080b8f1000f17d1a0f5e053103b1f2b15
:104e200040f2da81a0f5b053b3f5007fc0f0d48131
:104e3000a0f5d053b3f5007fc0f0ce8103994ff2b7
:104e40003003984208bf8846bbf1000f00f09d81f7
:104e50009db96ab394f800800195daf8206076b3c2
:104e6000234629464846b446cdf848b009b0bde8c7
:104e7000f04f6047f5b1ddf80880a9f5e053103b2d
:104e80001f2b0dd9a9f5b053b3f5007f08d3a9f5b1
:104e9000d053b3f5007f03d34ff2300399450cd1c3
:104ea000daf818301b78003318bf01230193d4e7d8
:104eb0000192d2e70195a846cfe70023f6e762b159
:104ec000a9f5e053103b9bb2029f0693072532469b
:104ed000474504d9002a00f06e8100256be1feb23f
:104ee00031465046079205f0c5fd514605903046c3
:104ef00003f0b1fab249059b09789e8801f00e01d2
:104f000011ea9602079a00f01f81daf81860002f64
:104f100000f06581c0f30f1106eb410602998f4244
:104f200013d0bbf1000f00f0128102998f42c0f044
:104f30000e8157b9049a072a07d023880399dab259
:104f40009142c0f01881338032e01a88b2f5e06fe8
:104f500005d3598808292ed801f12f0292b2112abf
:104f600000f0e68000f28d80052a05d040d8022aa4
:104f700039d8002a00f0a4805988924a32f81110da
:104f8000328800f00f0e01fa0efc22ea0c0212b277
:104f90000592bbf1000f00f0a28021880cea010c01
:104fa0004cea020292b232805b881844020700d1b8
:104fb00002340122cbe010291ed02029cfd10007d6
:104fc00040f0f880019a238842b132889a4240f03a
:104fd000d68071886288914240f0d18033806388a6
:104fe00073800434e5e7032a06d0042ae7d054e0ae
:104ff000082a33d8072ae2d2030740f0db80019a5f
:1050000023881ab132889a4240f0b980069a1f2a42
:105010000cd8a3f5b052b2f5007f07d3a3f5d05258
:10502000b2f5007f02d3002b40f0a780a9f5e15232
:10503000123a012a87d8012f5dd132889a4209d0cd
:1050400019464846059303f069fa059b0546002872
:1050500040f0b1805c4a0121117074e7092a01d047
:105060000b2a1ad8020740f0a5805a880593073208
:10507000d2102146304605f062fd059b5b881b0976
:105080002ae02d2a3ff478af0dd81e2a3ff474afe2
:1050900005d8152a4cd01b2a4ad018258be01f2a88
:1050a000aad0202aa2e7372a06d8302abff464af54
:1050b0002e2aa1d02f2a99e7a2f51872032ad0e749
:1050c000bbf1000fe9d05b881e0703d0184401072d
:1050d00008bf0234c3f3031304eb430469e7b4f8d5
:1050e00000c03cea010248d101ea0c01059a01fa2c
:1050f0000ef10a4356e7082f7ff425af33483449b1
:10510000dff8d0e0c0f810e0002213f0020f426197
:1051100042604a61c1f810e04a603ff414af428532
:10512000028580f840204a850a8581f840200ae7f8
:1051300001073fd12388338063887380a388b380bd
:10514000e388f380083434e727b90234182501379f
:10515000bfb2bde65b881d0703d01844010708bf36
:1051600002341b0904eb4304f0e7112523e01a2560
:1051700021e007251fe013251de012251be01c255b
:1051800019e0bbf1000f15d1d846029b4345ecd87e
:105190002946504605f06efc09498388097801f0dc
:1051a0000e0111ea93017ff465ae13f0380fded1e2
:1051b000002bded10525284609b0bde8f08f00bfe1
:1051c0009b130020dca800002c150020e814002010
:1051d000a414002090d00300ddf80c8034e602997e
:0851e00000297ff49eaea5e654
:020000040000fa
:1051e8002de9f04f9f8985b09846c7f30323072b15
:1051f80000900d460e9c9df83c9001931ffa81fa91
:10520800ffb200f08e81b0f5805fc0f08a81d8f8d7
:1052180018301f78b9f1000f1ad1ba4500f27f8112
:105228002946404605f022fc838823b905263046e6
:1052380005b0bde8f08fa549097801f00e0111ea23
:10524800430113d113f0070f14bf1a260626eee701
:105258000297d8f81c6066b10098cdf838902346bc
:105268002946b44605b0bde8f04f60470297574657
:10527800efe7009bb3f5805f06d23db900263346c1
:10528800bd423ed93bbbd2e75546f7e729464046e3
:1052980005f0ecfb05f18045013dd8f8183042884f
:1052a80053f825100732d21011f0010697b21ed01c
:1052b80021f00101780804eb40050a46ac420cd104
:1052c800fd0708d5238803f47f43238031f8102095
:1052d80043ea122323800026a9e713881b0a2380a8
:1052e80032f8026f43ea062324f8023be6e70b880c
:1052f80023804b886380043a0431201d05f01bfc91
:1053080095e75ffa85fb65b3009ab2f5805f28d30d
:1053180041465846039303f09af8039b02465946c0
:105328004046039305f0a2fb684b197883468088b2
:1053380001f00e0111ea4003039b00f0cb805545b4
:1053480004d0b9f1000f09d0554507d35db90199cb
:10535800072908d0bdf8082024f8022b0135adb282
:105368008ee70022dbe7bbf80030d8f81800c2f35c
:105378000f1eb3f5e06f00eb4e0107d3bbf802c078
:10538800bcf1080f2ad80cf12f039bb2112b00f0a7
:105398008f805cd8052b04d035d8022b2ed8002b53
:1053a80071d0bbf802c04a4930f81ee031f81c1031
:1053b80002f00f03994089b203b92380208801eadb
:1053c8000e01b9f1000f6fd040ea01032380bbf84a
:1053d80002301a44100765d1023463e0bcf1100fa3
:1053e80015d0bcf1200fd1d112077ff41faf30f8d0
:1053f8001e3023804b886380043453e0032b06d08f
:10540800042bf1d02de0082b09d8072becd211077b
:105418007ff40caf30f81e3024f8023b42e0092b31
:1054280001d00b2b1dd812077ff400afbbf8022068
:105438000732d210204605f07efbbbf802301a096d
:105448001b0704eb42042dd0237823802ae02d2b60
:10545800a7d00cd81e2ba4d005d8152b28d01b2bd1
:1054680026d01826e3e61f2bd1d0202bc9e7372bef
:1054780005d8302b95d22e2bc9d02f2bc1e7a3f5f9
:105488001873032bcee7b9f1000fead0bbf802304e
:10549800190703d01a44120708bf0234c3f30313d1
:1054a80004eb4304012359e741fa03f303438de76f
:1054b80013077ff4bbae30f81e3023804b8863801f
:1054c8008b88a380cb88e3800834ebe79b1300200c
:1054d800dca8000012f00f0108bf2180bbf8021001
:1054e800080705d00a4412f00f0204bf6280023494
:1054f8000022bbf80210d0b2c1f30311884202f1b6
:10550800010207dbbbf8042012f0070f14bf1a26ac
:10551800062623e74ff0000124f8021fe9e71126c9
:0c55280085e6b9f1000f7ff481ae76e655
:020000040000fa
:1055340005000800070007002000070007002000fe
:1055440007000700200007000700200007000700ed
:1055540020000700070020000700070020000700c4
:1055640007002000070007002000070007002000b4
:1055740007000700200007000700200007000700bd
:105584002000070007002000070007002000070094
:105594000700200007000700200007000700200084
:1055a400070007002000070007002000070007008d
:1055b4002000070007002000070007002000070064
:1055c4000700200007000700200007000700200054
:1055d400070007002000070007002000070007005d
:1055e4002000070007002000070007002000070034
:1055f4000700200007000700200007000700200024
:10560400070007002000070007002000070007002c
:105614002000070007002000070007002000070003
:1056240007002000070007002000070007002000f3
:1056340007000700200007000700200007000700fc
:1056440020000700070020000700070020000700d3
:1056540007002000070007002000070007002000c3
:1056640007000700200007000700200007000700cc
:1056740020000700070020000700070020000700a3
:105684000700200007000700200007000700200093
:10569400070007002000070007002000070007009c
:1056a4002000070007002000070007002000070073
:1056b4000700200007000700200007000700200063
:1056c400070007002000070007002000070007006c
:1056d4002000070007002000070007002000070043
:1056e4000700200007000700200007000700200033
:1056f400070007002000070007002000070007003c
:105704002000070007002000070007002000070012
:105714000700200007000700200007000700200002
:10572400070007002000070007002000070007000b
:1057340020000700070020000700070020000700e2
:1057440007002000070007002000070007002000d2
:1057540007000700200007000700200007000700db
:1057640020000700070020000700070020000700b2
:1057740007002000070007002000070007002000a2
:1057840007000700200007000700200007000700ab
:105794002000070007002000070007002000070082
:1057a4000700200007000700200007000700200072
:1057b400070007002000070007002000070007007b
:1057c4002000070007002000070007002000070052
:1057d4000700200007000700200007000700200042
:1057e400070007002000070007002000070007004b
:1057f4002000070007002000070007002000070022
:105804000700200007000700200007000700200011
:10581400070007002000070007002000070007001a
:1058240020000700070020000700070020000700f1
:0658340007002000070040
:020000040000fa
:10583a0005000800070007002000070007002000f5
:10584a0007000700200007000700200007000700e4
:10585a0020000700070020000700070020000700bb
:10586a0007002000070007002000070007002000ab
:10587a0007000700200007000700200007000700b4
:10588a00200007000700200007000700200007008b
:10589a00070020000700070020000700070020007b
:1058aa000700070020000700070020000700070084
:1058ba00200007000700200007000700200007005b
:1058ca00070020000700070020000700070020004b
:1058da000700070020000700070020000700070054
:1058ea00200007000700200007000700200007002b
:1058fa00070020000700070020000700070020001b
:10590a000700070020000700070020000700070023
:10591a0020000700070020000700070020000700fa
:10592a0007002000070007002000070007002000ea
:10593a0007000700200007000700200007000700f3
:10594a0020000700070020000700070020000700ca
:10595a0007002000070007002000070007002000ba
:10596a0007000700200007000700200007000700c3
:10597a00200007000700200007000700200007009a
:10598a00070020000700070020000700070020008a
:10599a000700070020000700070020000700070093
:1059aa00200007000700200007000700200007006a
:1059ba00070020000700070020000700070020005a
:1059ca000700070020000700070020000700070063
:1059da00200007000700200007000700200007003a
:1059ea00070020000700070020000700070020002a
:1059fa000700070020000700070020000700070033
:105a0a002000070007002000070007002000070009
:105a1a0007002000070007002000070007002000f9
:105a2a000700070020000700070020000700070002
:105a3a0020000700070020000700070020000700d9
:105a4a0007002000070007002000070007002000c9
:105a5a0007000700200007000700200007000700d2
:105a6a0020000700070020000700070020000700a9
:105a7a000700200007000700200007000700200099
:105a8a0007000700200007000700200007000700a2
:105a9a002000070007002000070007002000070079
:105aaa000700200007000700200007000700200069
:105aba000700070020000700070020000700070072
:105aca002000070007002000070007002000070049
:105ada000700200007000700200007000700200039
:105aea000700070020000700070020000700070042
:105afa002000070007002000070007002000070019
:105b0a000700200007000700200007000700200008
:105b1a000700070020000700070020000700070011
:105b2a0020000700070020000700070020000700e8
:065b3a0007002000070037
:020000040000fa
:105b4000050008000700070020008700070020006c
:105b5000870007002000870007002000870007005b
:105b60002000870007002000870007002000870032
:105b700007002000870007002000870007002000a2
:105b8000870007002000870007002000870007002b
:105b90002000870007002000870007002000870002
:105ba0000700200087000700200087000700200072
:105bb00087000700200087000700200087000700fb
:105bc00020008700070020008700070020008700d2
:105bd0000700200087000700200087000700200042
:105be00087000700200087000700200087000700cb
:105bf00020008700070020008700070020008700a2
:105c00000700200087000700200087000700200011
:105c1000870007002000870007002000870007009a
:105c20002000870007002000870007002000870071
:105c300007002000870007002000870007002000e1
:105c4000870007002000870007002000870007006a
:105c50002000870007002000870007002000870041
:105c600007002000870007002000870007002000b1
:105c7000870007002000870007002000870007003a
:105c80002000870007002000870007002000870011
:105c90000700200087000700200087000700200081
:105ca000870007002000870007002000870007000a
:105cb00020008700070020008700070020008700e1
:105cc0000700200087000700200087000700200051
:105cd00087000700200087000700200087000700da
:105ce00020008700070020008700070020008700b1
:105cf0000700200087000700200087000700200021
:105d000087000700200087000700200087000700a9
:105d10002000870007002000870007002000870080
:105d200007002000870007002000870007002000f0
:105d30008700070020008700070020008700070079
:105d40002000870007002000870007002000870050
:105d500007002000870007002000870007002000c0
:105d60008700070020008700070020008700070049
:105d70002000870007002000870007002000870020
:105d80000700200087000700200087000700200090
:105d90008700070020008700070020008700070019
:105da00020008700070020008700070020008700f0
:105db0000700200087000700200087000700200060
:105dc00087000700200087000700200087000700e9
:105dd00020008700070020008700070020008700c0
:105de0000700200087000700200087000700200030
:105df00087000700200087000700200087000700b9
:105e0000200087000700200087000700200087008f
:105e100007002000870007002000870007002000ff
:105e20008700070020008700070020008700070088
:105e3000200087000700200087000700200087005f
:065e4000070020008700ae
:020000040000fa
:105e4600050008000700070020007f00070020006b
:105e56007f00070020007f00070020007f0007006a
:105e660020007f00070020007f00070020007f0041
:105e7600070020007f00070020007f0007002000a9
:105e86007f00070020007f00070020007f0007003a
:105e960020007f00070020007f00070020007f0011
:105ea600070020007f00070020007f000700200079
:105eb6007f00070020007f00070020007f0007000a
:105ec60020007f00070020007f00070020007f00e1
:105ed600070020007f00070020007f000700200049
:105ee6007f00070020007f00070020007f000700da
:105ef60020007f00070020007f00070020007f00b1
:105f0600070020007f00070020007f000700200018
:105f16007f00070020007f00070020007f000700a9
:105f260020007f00070020007f00070020007f0080
:105f3600070020007f00070020007f0007002000e8
:105f46007f00070020007f00070020007f00070079
:105f560020007f00070020007f00070020007f0050
:105f6600070020007f00070020007f0007002000b8
:105f76007f00070020007f00070020007f00070049
:105f860020007f00070020007f00070020007f0020
:105f9600070020007f00070020007f000700200088
:105fa6007f00070020007f00070020007f00070019
:105fb60020007f00070020007f00070020007f00f0
:105fc600070020007f00070020007f000700200058
:105fd6007f00070020007f00070020007f000700e9
:105fe60020007f00070020007f00070020007f00c0
:105ff600070020007f00070020007f000700200028
:106006007f00070020007f00070020007f000700b8
:1060160020007f00070020007f00070020007f008f
:10602600070020007f00070020007f0007002000f7
:106036007f00070020007f00070020007f00070088
:1060460020007f00070020007f00070020007f005f
:10605600070020007f00070020007f0007002000c7
:106066007f00070020007f00070020007f00070058
:1060760020007f00070020007f00070020007f002f
:10608600070020007f00070020007f000700200097
:106096007f00070020007f00070020007f00070028
:1060a60020007f00070020007f00070020007f00ff
:1060b600070020007f00070020007f000700200067
:1060c6007f00070020007f00070020007f000700f8
:1060d60020007f00070020007f00070020007f00cf
:1060e600070020007f00070020007f000700200037
:1060f6007f00070020007f00070020007f000700c8
:1061060020007f00070020007f00070020007f009e
:10611600070020007f00070020007f000700200006
:106126007f00070020007f00070020007f00070097
:1061360020007f00070020007f00070020007f006e
:06614600070020007f00ad
:020000040000fa
:10614c002de9f04385b000238df80d3005890388c7
:10615c0005f07f05052d04460dd1092b40f2358144
:10616c00a089adf80e00b0f5805f80f0ab80052300
:10617c008df80d3002e1072b40f22781032defd073
:10618c00052dedd0012d40f01e818789bdb2052d66
:10619c0000f22181914a034600f1080e18685968f3
:1061ac00164603c6083373453246f7d1186830607b
:1061bc009b88b3808a4e002d41d1378004f10c07a7
:1061cc00e8b203f0d3fc0135052d27f8020ff7d107
:1061dc0012209df80d302080002b40f0f880238990
:1061ec0023f07f0242f00202228132886281002a6f
:1061fc0000f0f18023f0ff0343f08203238182211e
:10620c009df80d0088b10a232370238923f07f03a6
:10621c0043f007032381734b53f82030e360704b3a
:10622c0000226270a272e2721a80204603f0a6f974
:10623c0010b16d4b00201c6005b0bde8f083b6f8c2
:10624c0000906a4fdff8ac81013d05f0ff05b9f114
:10625c00000f0dd03a88b8f80010adf80e100c3abb
:10626c0092b204f10c0309f1ff39a6f8009018e082
:10627c00284603f07bfc3988a1f10e0292b2400053
:10628c004ff480539042adf80e3004f10e03ecdd68
:10629c000c3989b2801a01f1ff3e704490fbf1f089
:1062ac0030800df10d01009128460df10e0102f028
:1062bc00e5fdbdf80e30a8f800303b88063b181af7
:1062cc0080b286e704f02afc0746002879d0032d1b
:1062dc001dd104f0aefd0368c4f80e30002319463e
:1062ec003a46bdf80e0001f0a7fc404b1b880c3061
:1062fc00053b80b2834260dd04f112033a46002173
:10630c00bdf80e0001f098fc0c3080b22ae0e68952
:10631c0004f08ffd4388f6b2dbb29e4248d831467a
:10632c00384604f0a1fb036823618388a382e389c8
:10633c00dbb2e381384604f07cfd4388c3f30323ce
:10634c00083b012b1cd8deb9294b04f1160203f1d2
:10635c000c0153f8040b42f8040b8b42f9d11b7857
:10636c0013701c209df80d308bbba372e372238934
:10637c00208023f07f0301351d43258102213fe757
:10638c0000233a463146bdf80e0001f055fc174b80
:10639c001b881030053b80b2834210dd04f11603dc
:1063ac003a463146bdf80e0001f046fc1030ace721
:1063bc0011238df80d300020d4e70c20d2e71020eb
:1063cc00d0e70823d4e60323d2e6062034e79df871
:1063dc000d00022117e7022127e700bf7c350020c2
:1063ec0068350020109500007813002088140020d8
:0863fc00a051002048350020eb
