:020000040000fa
:10000000f0ff02202996000091b0000097b0000098
:10001000a3b00000a9b00000afb0000000000000d5
:10002000000000000000000000000000af730000ae
:100030009db0000000000000af730000b5a70000f5
:10004000af730000af730000af730000af73000028
:10005000af730000af730000af730000af73000018
:10006000af730000af730000af730000af73000008
:1000700031a700005da70000af730000af73000060
:10008000af730000af730000af73000089a70000da
:10009000af730000af730000af730000af730000d8
:1000a000af730000af730000af730000af730000c8
:1000b000af730000af730000af73000083af0000a8
:1000c00091af0000af730000af730000af7300008a
:1000d000af730000af730000af730000af73000098
:1000e000af730000af7300000000000000000000cc
:1000f00000000000af730000af730000af7300009a
:10010000af730000af730000af730000af73000067
:10011000af730000af730000af730000af73000057
:10012000af730000af730000af730000af73000047
:10013000af730000af730000af730000af73000037
:10014000af730000af730000af730000af73000027
:10015000af730000af73000000000000000000005b
:10016000000000000000000000000000000000008f
:10017000000000000000000000000000000000007f
:10018000af730000af730000af730000af730000e7
:1001900000000000af730000af730000af730000f9
:1001a000af730000af730000af730000af730000c7
:1001b000af730000af730000af730000af730000b7
:1001c000af730000af730000af730000af730000a7
:1001d000af730000af730000af730000af73000097
:1001e000af730000af730000af730000af73000087
:1001f000af730000af730000af730000af73000077
:10020000af7300000000000000000000af730000aa
:10021000af730000af730000af730000af73000056
:10022000af730000af730000af730000af73000046
:10023000af730000af730000af730000af73000036
:10024000af730000af730000af730000af73000026
:10025000af730000af730000af730000af73000016
:020000040000fa
:10026000f8b500bff8bc08bc9e46704729a1000045
:10027000f8b500bff8bc08bc9e46704705a1000059
:020000040000fa
:10028000b02f00201c00000000000000502f0020b4
:100290002000000000000000702f0020200000005f
:1002a000000000000000002020000000000000000e
:1002b00020000020c000000000000000e22f00200d
:1002c0000200000000000000e00000200c00000020
:1002d00000000000902f002020000000000000001f
:1002e0004f2f00200100000000000000282f0020f8
:1002f00027000000010000000000000000000100d5
:1003000000020000010000040000000000000000e6
:1003100000000000000000000003000001000000d9
:10032000ec00002002000000000000001830002057
:100330000800000000000000e82d00201801000067
:100340000100000000000000000000000116210074
:1003500001090000ecaf000038a8000020300020a8
:10036000000000000000000000000000000000008d
:1003700000000000001a210001090000f8af000091
:1003800064a80000283000200000000000000000e9
:10039000000000000000000000000000121c060029
:1003a0000108000004b00000b8ac00005830002084
:1003b000000000000000000000000000000000003d
:1003c00000000000131c06000108000010b000002f
:1003d000d4ac00005c3000200000000000000000f1
:1003e00000000000000000000000000000602a0083
:1003f000010900001cb0000048ae000030300020b1
:1004000000000000000000000000000000000000ec
:100410000000000010702a000109000028b0000050
:100420005cae00003830002000000000000000003a
:10043000000000000000000000000000ffff0000be
:1004400000000000000000000000000000000000ac
:100450000000000000000000000000001430002038
:100460000400000001000000891300004630002055
:100470000200000000000000cc2f00201600000049
:100480000100000053414d443531204574686572c8
:1004900043415420536c61766500000048300020d1
:1004a0000400000001000000312e30004c3000201c
:1004b0000400000001000000312e3000e42f002075
:1004c000140000000100000004000000d804000037
:1004d00053920000010000000100000040300020a5
:1004e00006000000010000000400020104030000f7
:1004f000503000200400000000000000082c002004
:10050000e001000001000000000000000000000009
:10051000001007000007000058b0000034b00000d1
:100520001430002000000000000000000000000067
:10053000000000000000000001100500000700009e
:1005400060b00000d4ae0000463000200000000083
:10055000000000000000000000000000000000009b
:10056000081009000007000068b0000040b000005b
:10057000cc2f002000000000000000000000000060
:100580000000000000000000091009000007000042
:1005900070b0000070ae0000483000200000000085
:1005a000000000000000000000000000000000004b
:1005b0000a1009000007000078b0000084ae0000b7
:1005c0004c3000200000000000000000000000008f
:1005d00000000000000000001810230004090000c3
:1005e0003cab0000bca20000e42f00200000000093
:1005f00000000000000000000000000000000000fb
:10060000f1102a000209000098ae0000c4a1000009
:100610000830002000000000000000000000000082
:100620000000000000000000f8101b0000070000a0
:1006300080b00000acae000018300020e196000051
:1006400000000000000000000000000000000000aa
:10065000001c0500040800004cb00000c0ae000003
:1006600040300020000000000000000000000000fa
:100670000000000000000000321c290020090000da
:10068000707d0000c86c00002c03002000000000fa
:10069000000000000000000000000000000000005a
:1006a000331c290020090000707d0000c86d000087
:1006b000e802002000000000000000000000000030
:1006c0000000000000000000ffff0000000000002c
:1006d000000000000000000000000000000000001a
:1006e0000000000000000000f000002008000000f2
:1006f00000000000053000200100000000000000a4
:10070000f8000020c400000000000000bc01002030
:100710000400000000000000c001002016000000de
:100720000000000054300020040000000000000021
:10073000063000200100000000000000d801002069
:1007400052000000000000002c02002028000000e1
:10075000000000005402002094000000000000008f
:10076000083000200c000000010000000200000022
:100770000100000004000000f82f00200d00000020
:1007800001000000537562496e6465782030303096
:1007900000000000e80200208e00000000000000c1
:1007a00020300020080000000100000001000000cf
:1007b0002001107028300020080000000100000017
:1007c00001000000200100605830002004000000fb
:1007d00001000000010001165c3000200400000050
:1007e000010000000100001a303000200800000065
:1007f000010000000100000000000000383000206f
:1008000008000000010000000100000000000000de
:100810006030002004000000000000006430002070
:10082000040000000100000001000000683000200a
:1008300004000000000000006c30002004000000f4
:1008400000000000703000200400000000000000e4
:100850000730002001000000000000009030002060
:1008600001000000000000007803002016200000b6
:100870000000000091300020010000000000000096
:10088000902300204d00000000000000e023002025
:100890000100000000000000002f002028000000e0
:1008a0000000000074300020040000000000000080
:1008b0007830002004000000000000007c300020a0
:1008c00004000000000000000028002008040000d0
:1008d00001000000000000000000000000280020cf
:1008e00000280020082800200828002010280020c8
:1008f0001028002018280020182800202028002078
:100900002028002028280020282800203028002027
:1009100030280020382800203828002040280020d7
:100920004028002048280020482800205028002087
:100930005028002058280020582800206028002037
:1009400060280020682800206828002070280020e7
:100950007028002078280020782800208028002097
:100960008028002088280020882800209028002047
:10097000902800209828002098280020a0280020f7
:10098000a0280020a8280020a8280020b0280020a7
:10099000b0280020b8280020b8280020c028002057
:1009a000c0280020c8280020c8280020d028002007
:1009b000d0280020d8280020d8280020e0280020b7
:1009c000e0280020e8280020e8280020f028002067
:1009d000f0280020f8280020f82800200029002016
:1009e00000290020082900200829002010290020c3
:1009f0001029002018290020182900202029002073
:100a00002029002028290020282900203029002022
:100a100030290020382900203829002040290020d2
:100a20004029002048290020482900205029002082
:100a30005029002058290020582900206029002032
:100a400060290020682900206829002070290020e2
:100a50007029002078290020782900208029002092
:100a60008029002088290020882900209029002042
:100a7000902900209829002098290020a0290020f2
:100a8000a0290020a8290020a8290020b0290020a2
:100a9000b0290020b8290020b8290020c029002052
:100aa000c0290020c8290020c8290020d029002002
:100ab000d0290020d8290020d8290020e0290020b2
:100ac000e0290020e8290020e8290020f029002062
:100ad000f0290020f8290020f8290020002a002011
:100ae000002a0020082a0020082a0020102a0020be
:100af000102a0020182a0020182a0020202a00206e
:100b0000202a0020282a0020282a0020302a00201d
:100b1000302a0020382a0020382a0020402a0020cd
:100b2000402a0020482a0020482a0020502a00207d
:100b3000502a0020582a0020582a0020602a00202d
:100b4000602a0020682a0020682a0020702a0020dd
:100b5000702a0020782a0020782a0020802a00208d
:100b6000802a0020882a0020882a0020902a00203d
:100b7000902a0020982a0020982a0020a02a0020ed
:100b8000a02a0020a82a0020a82a0020b02a00209d
:100b9000b02a0020b82a0020b82a0020c02a00204d
:100ba000c02a0020c82a0020c82a0020d02a0020fd
:100bb000d02a0020d82a0020d82a0020e02a0020ad
:100bc000e02a0020e82a0020e82a0020f02a00205d
:100bd000f02a0020f82a0020f82a0020002b00200c
:100be000002b0020082b0020082b0020102b0020b9
:100bf000102b0020182b0020182b0020202b002069
:100c0000202b0020282b0020282b0020302b002018
:100c1000302b0020382b0020382b0020402b0020c8
:100c2000402b0020482b0020482b0020502b002078
:100c3000502b0020582b0020582b0020602b002028
:100c4000602b0020682b0020682b0020702b0020d8
:100c5000702b0020782b0020782b0020802b002088
:100c6000802b0020882b0020882b0020902b002038
:100c7000902b0020982b0020982b0020a02b0020e8
:100c8000a02b0020a82b0020a82b0020b02b002098
:100c9000b02b0020b82b0020b82b0020c02b002048
:100ca000c02b0020c82b0020c82b0020d02b0020f8
:100cb000d02b0020d82b0020d82b0020e02b0020a8
:100cc000e02b0020e82b0020e82b0020f02b002058
:100cd000f02b0020f82b0020f82b00208030002083
:100ce0000400000001000000ffffffff843000202f
:100cf0000400000001000000000002008830002015
:100d00000400000001000000e8230020e823002088
:100d1000180400000100000000000000d42600209c
:100d2000382700209c270020000000000000000061
:100d300000000000000000000000000000000000b3
:100d400000000000000000000000000000000000a3
:100d50000000000000000000000000000000000093
:100d60000000000000000000000000000000000083
:100d70000000000000000000000000000000000073
:100d80000000000000000000000000000000000063
:100d90000000000000000000000000000000000053
:100da0000000000000000000000000000000000043
:100db0000000000000000000000000000000000033
:100dc00001000000000000000e33cdab34126de6d0
:100dd000ecde05000b000000000000000000000039
:100de0000000000000000000000000000000000003
:100df00000000000000000000000000000000000f3
:100e000000000000000000000000000000000000e2
:100e100000000000000000000000000000000000d2
:10113000e423002004000000000000008c300020a8
:10114000040000000000000000000000000000009b
:020000040000fa
:1011500080b590b000af0023bb8600237b860023c0
:101160003b610023fb60002387f83f300323bb87ec
:1011700003237b8700233b870023fb864ff6ff7307
:101180003b86a24b9a893b8e13403b86a04b9a89a3
:101190003b8e13403b869f4b00221a809e4b0022c1
:1011a0001a70022009f080faf862fb6a1b689ab292
:1011b0009a4b1a80fb6a5b6803f00203002b01d094
:1011c00001237b87032009f06ffaf862fb6a1b6832
:1011d0009ab2934b1a80fb6a5b6803f00203002b00
:1011e00001d00123bb878e4b1b881a468d4b1b8871
:1011f0001946bb8f03fb01f313448b4a12889342b9
:101200000add874b1b881a46874b1b881946874b7c
:101210001b880b449a4218db814b1b881a46814b72
:101220001b881946bb8f03fb01f31344804a1288c5
:10123000934210dd7a4b1b881a467d4b1b8819465a
:101240007c4b1b880b449a4205da0221032003f0f1
:10125000a3fd1e233ee3714b1b881a46764b1b8869
:1012600019467b8f03fb01f313446f4a12889342a4
:101270000add6a4b1b881a466b4b1b8819466b4b61
:101280001b880b449a4231db644b1b881a466a4b1d
:101290001b8819467b8f03fb01f31344644a1288b1
:1012a00093420add5d4b1b881a46614b1b88194629
:1012b000604b1b880b449a4218db584b1b881a461c
:1012c0005d4b1b8819467b8f03fb01f31344544a83
:1012d0001288934210dd514b1b881a46504b1b88d5
:1012e0001946504b1b880b449a4205da0221022012
:1012f00003f052fd1d23ede207f1140304224ff425
:101300001861184605f0d8ff7b697b617b699bb249
:101310007b6107f1100304224ff41a61184605f0af
:10132000cbff3b693b6107f10c03042240f6a4119b
:10133000184605f0c1fffb68fb60344b5b883b87b8
:10134000334b5b88fb867b6903f41063002b79d0f9
:101350007b6903f4c063002b01d13023bae27b69bf
:1013600003f40073002b06d17b6903f48063002b28
:1013700001d03023aee23b8e002b15d03b8e03f024
:101380000403002b04d17b6903f40073002b09d103
:101390003b8e03f00803002b06d17b6903f48063c6
:1013a000002b01d0302395e2244bbb62174b1b6905
:1013b000bb623b69002b09d03a69bb6a9a4203d3ee
:1013c0003b691f4a934201d9362383e27b6903f4c8
:1013d0000073002b0ed07b6903f48063002b09d0cf
:1013e000fb68002b06d0fa683b699a4202d30123be
:1013f00087f83f3097f83f30002b23d03b8e03f027
:101400001003002b1ed1302364e200bf2c03002008
:10141000e8020020f601002014020020ec01002068
:10142000280200200e020020d6020020cc0200205c
:10143000c4020020de020020e0010020a08601009e
:10144000000050c3914b1b78002b2cd07b6903f418
:101450001063002b0dd13b8f022b08d03b8f032b49
:1014600005d0fb8e022b02d0fb8e032b5fd13023e5
:1014700030e27b6903f48063002b07d13b8f032ba1
:1014800002d0fb8e032b01d1302323e27b6903f4ce
:101490000073002b4bd13b8f022b02d0fb8e022b13
:1014a00045d1302316e27b6903f41063002b1dd174
:1014b000774b1b88002b0bd001233b87754b1b8878
:1014c000002b02d02223fb8631e00023fb862ee096
:1014d000704b1b88002b04d000233b870123fb8625
:1014e00025e000233b870023fb8620e0684b1b8818
:1014f000002b09d097f83f30002b02d003233b8705
:1015000004e002233b8701e000233b87614b1b88fb
:10151000002b0ad07b6903f48063002b02d00323e5
:10152000fb8604e00223fb8601e00023fb863b8f61
:10153000032b0cd13b69584a53623b69564a5360ae
:101540003b69564a53623b69544a53600ee03b8ff5
:10155000022b0bd13b69504a53623b694e4a5360a0
:101560003b694e4a53623b694c4a53604c4b1b7873
:10157000002b07d13b8f002b02d0fb8e002b01d11b
:101580002923a7e13b8f002b02d1fb8e002b02d039
:10159000444b01221a70434b1b78002b10d03c4b5c
:1015a0001b88002b04d0404b4ff480621a8007e068
:1015b000384b1b88002b03d03b4b4ff400621a8042
:1015c0003b8f022b08d03b8f032b05d0fb8e022bc9
:1015d00002d0fb8e032b09d1344b01221a702c4b05
:1015e0001b88002b02d1304b00221a802a4a3b8fe5
:1015f00053802a4afb8e53802d4b00221a802d4b9c
:1016000000221a802c4b00221a802c4b00221a80b8
:1016100097f83f30012b53d1fa683b6913447b6242
:10162000fa683b699a4216d33b697a6ab2fbf3f3d4
:101630009ab2214b1a803a697b6ab3fbf2f102fb42
:1016400001f29b1a002b09d11b4b1b8801339ab264
:10165000194b1a8002e0184b01221a803b697a6a02
:10166000b2fbf3f39ab2124b1a803a697b6ab3fb6e
:10167000f2f102fb01f29b1a002b2dd00c4b1b88c0
:1016800001339ab20a4b1a8026e000bf7003002093
:10169000e00100200e0200202c030020e8020020c0
:1016a000d801002021020020f601002019020020ac
:1016b0000a020020e801002010020020240200207d
:1016c0003b8f022b02d1854b01221a80fb8e032b0c
:1016d00002d0834b01221a80824b00221a80002301
:1016e000bb6007f1080304224ff48461184605f03b
:1016f000e3fdbb687b867c4b1b88002b34d07b8e44
:10170000002b31d000237b603b1d04224ff480610d
:10171000184605f0d1fd7b687b607b68bb86bb8e7d
:10172000002b18d0bb8e02333b627a8e3b6a02fbe1
:1017300003f33b623b6a03f5c34327333b623b6ad7
:10174000db086a4aa2fb03231b0a3b623b6a9ab28c
:10175000674b1a8004e000237b86654b00221a80c9
:10176000644b00221a8004e00023bb86604b0022f9
:101770001a805f4b1b88002b03d15f4b1b78002b1b
:1017800007d15b4b1b88002b05d05b4b1b78002bd4
:1017900001d11f239ee0594b1b78002b0ad0524bde
:1017a0001b88002b06d0564b1b8843f480639ab2eb
:1017b000534b1a80534b00221a80534b00221a803d
:1017c000524b00221a80524b00221a80514b0022a9
:1017d0001a70514b00221a70504b00221a80504b45
:1017e00000221a854e4b00225a854d4b002283f869
:1017f00040204c4b00221a854a4b00225a85494b07
:10180000002283f840207b6903f40073002b50d042
:101810003b69002b03d13b4b00221a8018e03b6947
:101820005b09414aa2fb0323db09fb61fb69042b33
:1018300003d8344b01221a800ae0fb699bb25b009b
:101840009bb23a4aa2fb0323db089ab22d4b1a80c3
:101850007b6903f48063002b2bd0fa683b699a42c2
:1018600004d2284b1a882a4b1a8022e0fa683b6976
:1018700013445b092c4aa2fb0323db09bb61bb6950
:10188000042b03d8224b01221a8008e0bb695b00bd
:10189000264aa2fb0323db089ab21d4b1a80194b80
:1018a0001b885b089ab21a4b1b8813449ab2184bd8
:1018b0001a800d4b1b88002b02d0022008f05dfa25
:1018c0001b4b1b88002b02d0032008f056fa07f0b0
:1018d0000ff8002318464037bd4680bd1002002097
:1018e0000a02002074030020e001002089b5f814ea
:1018f0001e020020dc010020220200202102002024
:10190000f6010020ee010020e40100201c0200206e
:10191000f4010020f801002015020020f20100204f
:10192000e80200202c030020c55a7c0acdcccccc88
:041930000e02002083
:020000040000fa
:1019340080b584b000af03460a46fb711346bb80f2
:101944000023fb8100237b73d54b4ff6ff721a8073
:10195400d44b01221a70fb7903f01003002b09d039
:1019640001237b73d04b1b7823f01003dab2ce4be8
:101974001a7012e0cc4b1b7803f01003002b05d037
:10198400fb7903f00f03012b40f08783c64b1b78d0
:1019940003f00f03dab2c44b1a70fb7903f00f03a0
:1019a400fb71c14b1b783b733b7b1b013b733a7b45
:1019b400fb7913443b733b7b442b28d0442b0bdc37
:1019c400222b15d0222b02dc122b11d028e0242b41
:1019d40014d0422b0cd023e0822b09d0822b02dcc2
:1019e400482b14d01ce0842b11d0882b0fd017e087
:1019f400022002f071fd0346fb8111e0ab49ac48c3
:101a040003f0bcfe0346fb81fb89002b07d1a94be5
:101a14001b78184602f060fd0346fb8100e000bf1e
:101a2400fb89002b40f05182a34b00221a803b7ba0
:101a3400113b772b00f2458201a252f823f000bf3c
:101a44007d1e0000f31c0000251c0000c11e0000c8
:101a5400c71e0000c71e0000c71e0000c11e0000f4
:101a6400c71e0000c71e0000c71e0000c71e0000de
:101a7400c71e0000c71e0000c71e0000c71e0000ce
:101a84006b1e0000811e0000c11e0000551d0000d9
:101a9400c71e0000c71e0000c71e0000c11e0000b4
:101aa400c71e0000c71e0000c71e0000c71e00009e
:101ab400c71e0000c71e0000c71e0000c71e00008e
:101ac400c91c0000c11e0000c71e0000c11e00008a
:101ad400c71e0000c71e0000c71e0000c11e000074
:101ae400c71e0000c71e0000c71e0000c71e00005e
:101af400c71e0000c71e0000c71e0000c71e00004e
:101b04004f1e0000231e0000c11e0000811e0000a5
:101b1400c71e0000c71e0000c71e0000ab1d00004a
:101b2400c71e0000c71e0000c71e0000c71e00001d
:101b3400c71e0000c71e0000c71e0000c71e00000d
:101b4400c71e0000c71e0000c71e0000c71e0000fd
:101b5400c71e0000c71e0000c71e0000c71e0000ed
:101b6400c71e0000c71e0000c71e0000c71e0000dd
:101b7400c71e0000c71e0000c71e0000c71e0000cd
:101b8400c71e0000c71e0000c71e0000c71e0000bd
:101b9400c71e0000c71e0000c71e0000c71e0000ad
:101ba400c71e0000c71e0000c71e0000c71e00009d
:101bb400c71e0000c71e0000c71e0000c71e00008d
:101bc400c71e0000c71e0000c71e0000c71e00007d
:101bd400c71e0000c71e0000c71e0000c71e00006d
:101be400c71e0000c71e0000c71e0000c71e00005d
:101bf400c71e0000c71e0000c71e0000c71e00004d
:101c0400331e0000051e0000c11e0000f51d00006b
:101c1400c71e0000c71e0000c71e0000811e000072
:101c2400264b01221a70022002f056fc0346002bb8
:101c340005d0224b00221a701523fb8178e1002085
:101c440008f02af904f02eff0346fb81fb89002be0
:101c54000cd1144b00221a7009f042f90346fb819f
:101c6400fb89002b02d1164b01221a70fb89002b31
:101c74000ad0fb89ff2b07d00a4b1b78002b01d11c
:101c840009f099f904f0aef9032009f08ff8fb8903
:101c9400002b00f04081094b00221a703be100bf89
:101ca40016020020de010020df010020e0010020f8
:101cb4000e02002026020020da0100201802002073
:101cc400c2020020ab4b1b78002b0bd0a94b002287
:101cd4001a70002008f0e0f804f084f909f06bf9b8
:101ce4000346fb8109f060f909f030f820e107f0c0
:101cf40061ffa14b1b78002b01d15123fb81fb8990
:101d0400002b40f00a8104f0cdfe0346fb81fb89e1
:101d1400002b0cd1994b00221a7009f0e1f803460c
:101d2400fb81fb89002b02d1954b01221a70fb89a0
:101d3400002b00f0f280fb89ff2b00f0ee808f4b2c
:101d44001b78002b01d109f036f904f04bf9e4e0db
:101d5400fff7fcf90346fb81fb89002b12d1874b6b
:101d640000221a70874809f042f80346fb81fb8978
:101d7400002b07d1834b1b88184608f0b0f8824b20
:101d840001221a70fb89002b00f0c980fb89ff2b0c
:101d940000f0c580794b1b78002b01d109f0a8f81d
:101da40004f014fbbbe007f0c5f90346fb81fb8993
:101db400002b0cd1714b00221a7009f0a1f80346d4
:101dc400fb81fb89002b02d1704b01221a70fb8925
:101dd400002b00f0a680fb89ff2b00f0a280674b4c
:101de4001b78002b01d109f093f808f027fe98e046
:101df40009f08ef808f022fe604b00221a7097e07a
:101e040009f086f80346fb8108f018fe5b4b0022bc
:101e14001a70fb89002b40f0868042233b7309f043
:101e240067f804f0d3fa554b00221a7080e009f0e9
:101e34006ff80346fb8108f001fe504b00221a7034
:101e4400fb89002b71d141233b7309f051f8034600
:101e5400fb8104f0bbfa494b00221a70fb89002b6a
:101e640065d121233b7304f0bdf809f0a4f80346bf
:101e7400fb8108f06bff5be008f068ff7b7b002bc5
:101e840004d03b7b9bb2184608f0a6ff404b1b785e
:101e940003f00c03002b0ed03e4b1b88002b03d009
:101ea400022007f068ff06e03b4b1b88002b02d0a2
:101eb400032007f060fffe23fb8139e01123fb813f
:101ec40036e01223fb8100bf32e0314b1b78042b38
:101ed40008d0082b02d0022b08d029e009f018f80a
:101ee40008f0acfd09f004f804f070fafb89162b35
:101ef4000dd104f077f809f05ef8002007f080feb9
:101f0400012007f07dfe224b01221a7010e0204bc5
:101f140002221a700ce000bf0ae000bf08e000bf14
:101f240006e000bf04e000bf02e000bf00e000bf25
:101f3400fb89ff2b51d1194b01221a703b7b9ab2ba
:101f4400174b1a80164b1b88242b0dd0242b03dc33
:101f5400123b012b28d802e0482b05d024e0114b7a
:101f64004ff4fa621a8023e00e4b42f228321a80b0
:101f74001ee000bf1802002006300020de01002011
:101f8400c2020020f6010020200200201a020020d4
:101f9400df010020e00100200e0200200c020020de
:101fa400da010020160200203e4bc8221a8000bf2e
:101fb4003c4bb3f900309ab23a4bb3f900303a498a
:101fc40081fb03018910db17cb1a1bb29bb2d31a16
:101fd4009bb21ab2334b1a8060e0fa79334b1b7808
:101fe40003f00f039a424ed0fb89002b02d1bb8829
:101ff400002b1fd02d4b1a78fb791343dbb203f06f
:102004000803002b16d02a4b1b78002b03d008f0b2
:102014007fff08f013fd274b1b88002b03d0022001
:1020240007f0eefd06e0244b1b88002b02d00320b2
:1020340007f0e6fdfb89002b0ed01c4b1b78082b08
:1020440002d11a4b04221a70184b1b7843f0100368
:10205400dab2164b1a700be0bb88002b05d0bb8894
:10206400fb81fb7943f01003fb71104afb79137079
:10207400124b00221a700d4b1b78fa891146184630
:1020840003f0eefc0ae00d4b00221a70074b1b789c
:102094000021184603f0e4fc00e000bf1037bd4601
:1020a40080bd00bf1602002067666666df0100205f
:1020b4001a020020e00100200e0200200c02002081
:020000040000fa
:1020c40090b591b002afba607b600346fb810b46ca
:1020d4007b737b7bfb867b689b891b12dbb203f0e3
:1020e4000f0387f823300023bb867b689b89dbb210
:1020f4003b84002387f833307b7b3b8697f823307f
:10210400072b28d07b689b691b88dbb2bb86bb8e00
:10211400002b20d1fb8941f60f42934204d9fb895d
:1021240041f62f42934214d9fb89b3f5b05f03d330
:10213400fb89b3f5c05f0cd3fb89b3f5d05f03d340
:10214400fb89b3f5e05f04d3fb894ff2300293427d
:1021540001d13b8cbb8697f84c30002b12d097f8fa
:102164002330072b01d105232de37b7b002b06d1e4
:10217400bb68002b03d0bb6c1b88dbb2bb86bb8e59
:102184003b862ce07b7b9bb2ba8e9a4201d2112310
:1021940019e37b7b1946786807f00dfcf861fb694d
:1021a4009b889bb29b10dbb203f00e02a84b1b78fa
:1021b40003f00f031340002b11d1fb699b889bb2e2
:1021c40003f03803002b08d1fb699b889bb2002bda
:1021d40001d10523f7e20723f5e21a23f3e27b7b1f
:1021e400002b29d0fb8941f60f42934204d9fb8985
:1021f40041f62f42934214d9fb89b3f5b05f03d360
:10220400fb89b3f5c05f0cd3fb89b3f5d05f03d36f
:10221400fb89b3f5e05f04d3fb894ff230029342ac
:102224000ad17b689b691b88dbb27b837b8b002b89
:1022340002d0012387f833307b681b6a002b0bd054
:102244007b681c6a797bf88997f84c300093bb6ce7
:10225400ba68a0470346b6e2002387f82f30072365
:1022640087f82e30bb68002b01d10023abe27b7bc7
:10227400fb869be27b689b69bb6200233b83fb8eee
:10228400dbb21946786807f096fbf861fb8edbb287
:102294007968184603f0faf803463b83fb699b8888
:1022a4009bb29b10dbb203f00e02694b1b7803f068
:1022b4000f031340002b00f04f82fb8e002b06d03f
:1022c4003b8b1b099bb25b00ba6a1344bb627b7bea
:1022d4009bb2fa8e9a420ad097f84c30002b00f049
:1022e40062827b7b9bb2fa8e9a42c0f05c82fb8e48
:1022f400002b15d197f82330072b11d0bb6c1b880a
:10230400fb74fb7c9bb23a8c9a4201d213235ae2af
:10231400bb6c1a88bb6a1a80bb6c0233bb6417e2bd
:10232400fb691a785b781b021343fb84fb691b88e7
:102334009bb2b3f5e06f19d3fb695b889bb2082ba2
:1023440005d8fb695b889bb22f33fb840ee0fb69e5
:102354005b889bb2102b02d10623fb8406e0fb6949
:102364005b889bb2202b01d10723fb84fb8c112bb0
:1023740000f08881112b1edc052b6bd0052b0ddca6
:10238400022b04dc012b65da002b3bd0dde1032baf
:1023940000f0c280042b00f04d81d6e1082b03dc51
:1023a400072b80f24781b7e0092b00f089810b2bc2
:1023b40000f3cb81ace12d2b4cd02d2b11dc1e2b4b
:1023c40048d01e2b06dc152b00f05c811b2b00f083
:1023d4005981bae11f2b00f09f80202b00f02a8145
:1023e400b3e1372b08dc302b34da2e2b00f0948049
:1023f4002f2b00f01f81a8e1a3f51873032b00f223
:10240400a48185e197f84c30002b1ed0fb695b88d2
:102414009bb203f00f03002b0cddfb695b889ab2bf
:102424003b8b13449bb203f00f03002b02d1bb6c14
:102434000233bb64fb695b889bb21b1103f00f037f
:102444005b00ba6c1344bb6482e11823bbe100bf98
:10245400df0100200023bb84fb695b889bb21a4622
:102464009b4b33f812301a463b8b03f00f0302faee
:1024740003f3fb82bb6a1b88bb84b7f91630db43ca
:102484001ab2b7f9243013401bb2bb8497f84c300e
:10249400002b08d0bb6c1a88fb8a13409ab2bb8c01
:1024a4001343bb8426e0bb6c1b881a46fb695b881c
:1024b4009bb21946864b33f81130db431340002b93
:1024c40001d012237fe1bb6c1a88fb695b889bb245
:1024d40019467f4b33f8113013409bb21a463b8b9d
:1024e40003f00f0302fa03f31ab2b7f924301343cb
:1024f4001bb2bb84bb6aba8c1a80fb695b889ab234
:102504003b8b13449bb203f00f03002b40f01f815d
:10251400bb6c0233bb641ae13b8b03f00f03002b4b
:1025240001d005234fe1bb6c1b88bb8297f8333085
:10253400002b06d0bb6a1b88ba8a9a4201d01c239e
:1025440041e1fb8941f60f42934219d9fb8941f6d7
:102554002f42934214d8bb8ab3f5b05f03d3bb8a2e
:10256400b3f5c05f0cd3bb8ab3f5d05f03d3bb8a8a
:10257400b3f5e05f04d3bb8a002b01d0122322e120
:10258400fb8941f63242934204d0fb8941f633423f
:10259400934248d1fb8e012b17d1bb6a1b88ba8aa0
:1025a4009a420fd0ba8afb891146184602f0c0fd40
:1025b400034687f82e3097f82e30002b02d097f878
:1025c4002e3000e1434b01221a70fb8e082b2ad1d6
:1025d400414b00225a61404b404a1a613e4b002253
:1025e4005a603f4b00225a613d4b3c4a1a613c4bb6
:1025f40000225a60bb8a03f00203002b13d0364b2f
:1026040000225a85344b00221a85334b002283f86a
:102614004020334b00225a85314b00221a85304b1f
:10262400002283f84020bb6aba8a1a80bb6c02334a
:10263400bb648de03b8b03f00f03002b01d005231b
:10264400c1e097f83330002b0fd0bb6a1a88bb6cfb
:102654001b889a4207d1bb6a02331a88bb6c0233c7
:102664001b889a4201d01c23ade0bb6c1a88bb6a5c
:102674001a80bb6a0233ba6c52881a80bb6c04336a
:10268400bb6465e03b8b03f00f03002b01d00523f3
:1026940099e0bb6c1a88bb6a1a80bb6a0233ba6cb5
:1026a40052881a80bb6a0433ba6c92881a80bb6a57
:1026b4000633ba6cd2881a80bb6c0833bb6447e01b
:1026c4003b8b03f00f03002b0cd005237be000bff2
:1026d4007cab0000700300202c030020a0860100c6
:1026e400e8020020fb695b889bb20733db101a46c3
:1026f400b96cb86a08f086fbfb695b889bb223f06f
:102704000f030f331b115b00ba6c1344bb641fe04f
:102714003b8b03f00f03002b01d0052353e0fb692f
:102724005b889bb20733db101a46b96cb86a08f0b1
:1027340069fbfb695b889bb223f00f030f331b110a
:102744005b00ba6c1344bb6402e018233be000bf97
:10275400012387f82f3026e0fb8e002b03d1bb6cbe
:102764000233bb641ce0fb695b889bb203f00f037c
:10277400002b0cddfb695b889ab23b8b13449bb244
:1027840003f00f03002b02d1bb6c0233bb64fb6963
:102794005b889bb21b099bb25b00ba6c1344bb649d
:1027a400182387f82e30fb8e0133fb86fa8e3b8e7e
:1027b4009a427ff65fad97f82f30002b02d197f83d
:1027c4002e3000e0002318463c37bd4690bd00bfc4
:020000040000fa
:1027d40090b593b002afba607b600346fb810b46b1
:1027e4007b737b7bfb877b689b891b12dbb203f0cb
:1027f4000f0387f82a307b689b89dbb2bb877b7b1e
:102804007b8797f82a30072b08d0fb89b3f5805fc4
:1028140004d37b689b691b88dbb2bb8797f8543071
:10282400002b0cd097f82a30072b03d0fb89b3f583
:10283400805f01d2052302e3bb8f7b872ee07b7b85
:102844009bb2ba8f9a4201d21123f8e2fb8fdbb21a
:102854001946786807f0aff878627b6a9b889bb268
:10286400002b19d07b6a9b889bb2dbb25b00dbb286
:1028740003f00e02a04b1b7803f00f031340002b50
:102884000cd17b6a9b889bb203f00703002b01d118
:102894000623d4e21a23d2e20523d0e27b68db6963
:1028a400002b0bd07b68dc69797bf88997f854306e
:1028b40000933b6dba68a0470346c0e2fb89b3f5b9
:1028c400805f7cd27b7b002b79d07b689b697b63a8
:1028d4007b7b1946786807f06ef878627b6a5b88c0
:1028e4009bb20733db107b847b6bfb617b7b03f147
:1028f4008043013b9b00fa6913441b687b637b6b39
:1029040003f00103002b43d000237b867b6b23f071
:1029140001037b6300237b861be07b6b1b881b0a04
:102924009ab23b6d1a803b6d1b881ab27b6b0233e3
:102934001b881b021bb213431bb29ab23b6d1a8055
:102944003b6d02333b657b6b02337b637b8e0133d0
:102954007b867b8c5b089bb27a8e9a42ddd37b8c20
:1029640003f001039bb2002b00f067823b6d1b88d0
:1029740023f0ff039ab23b6d1a803b6d1a887b6b80
:102984001b881b0a9bb213439ab23b6d1a8054e214
:102994007b6b1a883b6d1a803b6d02337a6b5288cd
:1029a4001a803b6d04333b657b6b04337b637b8c08
:1029b400043b1a46796b386d08f024fa3de2002393
:1029c40087f83130002387f830307b7bfb8728e29f
:1029d4007b689b69bb610023fb85fb8f002b0bd0bd
:1029e400fb89b3f5805f07d3fb8fdbb279681846a8
:1029f40002f04cfd0346fb85fb8d1b099bb25b007b
:102a0400ba691344bb61fb8fdbb21946786806f0e0
:102a1400d2ff78627b6a9b889bb2dbb25b00dbb23d
:102a240003f00e02344b1b7803f00f031340002b0a
:102a340000f0ab817b7b9bb2fa8f9a420ad097f865
:102a44005430002b00f0ea817b7b9bb2fa8f9a42d0
:102a5400c0f0e481fb8f002b0ad197f82a30072bb2
:102a640006d03b6dba8f1a803b6d02333b65d5e1ce
:102a74007b6a1a785b781b021343bb857b6a1b88cd
:102a84009bb2b3f5e06f19d37b6a5b889bb2082bca
:102a940005d87b6a5b889bb22f33bb850ee07b6acb
:102aa4005b889bb2102b02d10623bb8506e07b6ab0
:102ab4005b889bb2202b01d10723bb85bb8d112bd7
:102ac40000f0e680112b20dc052b6ad0052b0ddcf1
:102ad400022b04dc012b64da002b3dd04ae1032bea
:102ae40000f0b380042b00f0bf8043e1082b05dc29
:102af400072b80f2b980a8e0df010020092b00f049
:102b04000f810b2b00f33681e0e02d2b49d02d2bc8
:102b140011dc1e2b45d01e2b06dc152b00f0b880d3
:102b24001b2b00f0b58025e11f2b00f08e80202b9d
:102b340000f09a801ee1372b08dc302b31da2e2b83
:102b440000f083802f2b00f08f8013e1a3f518731e
:102b5400032b00f20f81b9e097f85430002b1ed0fc
:102b64007b6a5b889bb203f00f03002b0cdd7b6a4e
:102b74005b889ab2fb8d13449bb203f00f03002bc6
:102b840002d13b6d02333b657b6a5b889bb21b11b0
:102b940003f00f035b003a6d13443b65f1e0182327
:102ba4004de10023fb827b6a5b889bb21a46a64bed
:102bb40033f812301a46fb8d03f00f0302fa03f3c5
:102bc400bb82bb691b88fb82fb8d03f00f03002bc8
:102bd40002d13b6d00221a803b6d1a883b6d1a802e
:102be40097f85430002b0ad03b6d1a88f98abb8ab7
:102bf4000b409bb213439ab23b6d1a8012e03b6dbb
:102c04001b881ab2f98abb8a0b409bb21946fb8d0a
:102c140003f00f0341fa03f31bb213431bb29ab23e
:102c24003b6d1a803b6d1a883b6d1a807b6a5b880a
:102c34009ab2fb8d13449bb203f00f03002b40f0b8
:102c44009b803b6d02333b6596e0fb8d03f00f03e5
:102c5400002b01d00523f2e0bb691a883b6d1a8072
:102c64003b6d02333b658ce0fb8d03f00f03002bbf
:102c740001d00523e3e0bb691a883b6d1a803b6de4
:102c84000233ba6952881a803b6d04333b6578e09d
:102c9400fb8d03f00f03002b01d00523cfe0bb69ac
:102ca4001a883b6d1a803b6d0233ba6952881a80c8
:102cb4003b6d0433ba6992881a803b6d0633ba6956
:102cc400d2881a803b6d08333b655ae0fb8d03f0d4
:102cd4000f03002b01d00523b1e07b6a5b889bb214
:102ce4000733db101a46b969386d08f08bf87b6a34
:102cf4005b889bb223f00f030f331b115b003a6d0b
:102d040013443b657b6a5b889bb203f00f03002b83
:102d140034d03b6d1b88dbb29ab23b6d1a802de038
:102d2400fb8d03f00f03002b01d0052387e07b6aa2
:102d34005b889bb20733db101a46b969386d08f01b
:102d440061f87b6a5b889bb223f00f030f331b117e
:102d54005b003a6d13443b657b6a5b889bb203f06e
:102d64000f03002b0cd03b6d1b88dbb29ab23b6d7a
:102d74001a8005e0182362e000bf02e000bf00e013
:102d840000bf012387f8313048e0002387f82b3057
:102d9400fb8d03f00f03002b02d13b6d00221a8040
:102da4007b6a5b889bb203f00f03002b0fdd7b6a09
:102db4005b889ab2fb8d13449bb203f00f03002b84
:102dc40005d13b6d02333b653b6d00221a80002325
:102dd40087f82b300ae03b6d02333b653b6d0022e4
:102de4001a8097f82b30013387f82b3097f82b2073
:102df4007b6a5b889bb21b1103f00f039a42eadbe8
:102e04007b6a9b889bb203f00703002b03d1062344
:102e140087f8303002e01a2387f83030fb8f013313
:102e2400fb87fa8f7b8f9a427ff6d2ad97f83130c9
:102e3400002b03d197f8303001e000bf002318467f
:0c2e44004437bd4690bd00bf7cab0000d1
:020000040000fa
:102e500090b591b002af7860002387f837307b6877
:102e60001b899bb287f8223097f8223023f01f038a
:102e700087f821307b681a785b781b021343fb8349
:102e8000002387f8363000233b630023fb62ae4b00
:102e90001b78002b01d00923a9e297f82130202bc1
:102ea0000bd0202b03dc002b00f0698283e2402b47
:102eb00003d0602b00f063827de27b685b899bb26c
:102ec000dbb2bb83bb8b1b02bb837b681b899bb2c2
:102ed0001b0a9ab2bb8b1344bb837b685b899bb292
:102ee0001b0a9bb2fb76bb8b184607f05bfb786135
:102ef0007b69002b00f03f82002387f82b300023f2
:102f00007b62002387f823307b699b89fb74fa7e00
:102f1000fb7c9a4203d9112387f837300ce097f8ed
:102f2000223003f01003dbb2f97eb88b7a6903f02c
:102f300077fb38633b6bfb6297f83730002b32d15d
:102f400097f82130402b28d1fb8b0a2b01d0082386
:102f50004de23b6b042b10d83b6b002b0dd00123b3
:102f600087f82b307b680c337b627b6a00221a80e7
:102f70007b6a023300221a8015e0744b1b88103bd9
:102f8000fb62fa6a3b6b9a4203d2012387f8233033
:102f900009e07b6810337b6205e097f8223003f08c
:102fa000020387f82b3097f83730002b44d197f87d
:102fb0002130202b40d197f82b30002b10d0fb8be9
:102fc0000a2b01d0082312e297f822309b1003f05d
:102fd0000303c3f10403fb627b680c337b622be0c9
:102fe0007b68db899bb21b047a68928992b2134496
:102ff000fb60fb681033564a1288934207d9fa8b5c
:10300000534b1b88063b9a4208d00823efe1fa8b0a
:10301000fb680a339a4201d00823e8e17b68103349
:103020007b62fb68fb62fb8b0a3b1a46fb6a9a4297
:1030300002d2012387f8233097f83730002b0ed1c6
:1030400097f8223003f01003002b08d0012387f8f3
:103050003630fb7e012b02d9052387f8373097f8ed
:103060003730002b40f0ab8197f82330002b00f075
:10307000d980384b01221a70374b01221a70374a17
:1030800097f836301370364abb8b1380354afb7e77
:103090001370354a7b69136097f82130402b03d1b8
:1030a000324a3b6b136002e0304afb6a1360304bdc
:1030b0001b68002b07d02e4b1b68184607f042fff9
:1030c0002b4b00221a60294b1b68013323f00103ac
:1030d000184607f02fff03461a46254b1a60244b6b
:1030e0001b68002b0bd197f83630002b03d005233b
:1030f00087f8373063e1042387f837305fe197f8ca
:103100002130402b7ad11a4b1b68f97eb88b97f887
:103110003620019200937b693a6bfff75bfb034615
:1031200087f8373097f83730002b25d17b6803f1cb
:1031300010000f4b1b68fa6a194607f065fe0d4b2d
:1031400060221a706ae000bf91300020cc0200209b
:10315000de0200209d230020aa2300209c230020c3
:10316000c0230020d8230020d4230020a023002047
:10317000bc230020ab23002097f83730ff2b4dd124
:103180009d4b04221a709d4a97f8363013709c4a62
:10319000fb7e13709b4abb8b13809b4a3b6b136077
:1031a0009a4b1b689a4a13607b69db69994a1360e2
:1031b000994b01221a70994a7b681360974b1b68e0
:1031c000964a1268128992b222f0ff0292b21a81d4
:1031d000924b1b68914a1268128992b211b297f809
:1031e000222012b202f0f00212b20a4312b292b2dc
:1031f0001a818b4b60221a700023f8e0834b186809
:103200007b6803f11001fb8b0a3b1a4607f0fcfdbb
:10321000834b00221a70fb8b0a3bfb62814afb6adc
:103220001360cce03b6b002b08d17f4abb8b138033
:103230007e4afb7e13707e4a7b69136097f82130cb
:10324000402b4cd1f97eb88b97f8363001937b6ace
:1032500000937b693a6bfff7bdfa034687f8373076
:1032600097f83730ff2b40f0aa80634b03221a7087
:10327000624a97f836301370614afb7e1370614ad8
:10328000bb8b1380604a3b6b1360614a7b6a13609f
:103290007b69db695f4a13605f4b01221a705f4aea
:1032a0007b6813605d4b1b685c4a1268128992b29e
:1032b00022f0ff0292b21a81584b1b68574a1268db
:1032c000128992b211b297f8222012b202f0f002e3
:1032d00012b20a4312b292b21a81002387e0f97e39
:1032e000b88b97f8363001937b6a00937b69fa6a52
:1032f000fef7e8fe034687f8373097f83730ff2ba4
:103300005dd13d4b01221a703c4a97f8363013705c
:103310003b4afb7e13703b4abb8b13803a4afb6ae5
:1033200013603b4a7b6a13607b691b6a394a1360ee
:10333000394b01221a70394a7b681360374b1b687e
:10334000364a1268128992b222f0ff0292b21a81b2
:10335000324b1b68314a1268128992b211b297f847
:10336000222012b202f0f00212b20a4312b292b25a
:103370001a8100233be0082387f837301fe0284bf1
:103380001b7897f821209a4211d197f82130002b11
:1033900006d1786800f0c8fe034687f837300fe0a2
:1033a000786801f0c9fb034687f8373008e003234b
:1033b00087f8373004e0032387f8373000e000bf98
:1033c00097f83730ff2b11d097f8223003f0100315
:1033d000dab2fb6a9cb297f8211097f837007b6845
:1033e00001933b6b0093234601f0c6fd0023184672
:1033f0003c37bd4690bd00bfa8230020a923002074
:10340000dc230020da230020b8230020bc23002086
:1034100094230020a423002091300020b423002016
:10342000ab23002098230020c0230020d8230020b5
:04343000d423002081
:020000040000fa
:1034340080b58cb000af786048f20403fb857b68ec
:103444001b889bb2063b7b857b681b889bb2052b44
:1034540001d8062321e27b68db889bb2013b052b64
:1034640000f2f78001a252f823f000bf8934000073
:10347400fd3400004135000097350000ed350000b3
:1034840017360000984b1b88002b40f0d7807b68d0
:103494001b899bb21a467b685b899bb21b0413434e
:1034a4007b627b6803f10c007b6803f10c02798d6d
:1034b4007b6a06f0a9fc0346fb858c4b00221a604c
:1034c400fb8d47f69572934206d8894b01221a6008
:1034d400fb8d884a1360b1e0fb8d47f6fa72934284
:1034e40000f2ac80824b00221a60824b00221a60e8
:1034f4007d4b01221a80a1e07b4b1b88002b40f0fe
:103504009f807b681b899bb21a467b685b899bb250
:103514001b0413433b627b680c33798d3a6a18466b
:1035240006f0eaff0346fb85fb8d002b02d147f62c
:10353400fd73fb856e4b00221a6081e06a4b1b8889
:10354400022b03d0684b1b88062b7bd17b681b891d
:103554009bb21a467b685b899bb21b041343fb61d5
:10356400634b1b68fa699a420fd17b680c337a8dde
:103574001146184605f0c0fe0346fb85fb8d002b63
:1035840060d147f6fd73fb855ce048f20503fb85db
:1035940058e0554b1b88012b1ed1564b1a687b688b
:1035a4000c331946104606f0c3ff0346fb85514b06
:1035b4001b684e4a1360fb8d47f69572934243d8bd
:1035c400fa8d4c4b1b6813444a4a1360484b1b68e2
:1035d4000133474a136037e0434b1b88042b33d134
:1035e40047f6fe73fb852fe03f4b1b88002b2dd045
:1035f4007b681b899bb21a467b685b899bb21b0460
:103604001343bb61b86907f03dfa47f6ff73fb85c6
:103614001ce0354b1b88012b03d0334b1b88042b38
:1036240016d17b681b8998b2304b19687b680c33c0
:103634001a4607f091fa0346fb8509e000bf08e04b
:1036440000bf06e000bf04e000bf02e000bf00e0ee
:1036540000bffb8d47f69572934225d8244b1b6817
:10366400bb607b68002242f003029a710022da7187
:10367400bb689ab27b681a81bb681b0c9ab27b68e0
:103684005a81fb8d06339ab27b681a80fa8d1a4be5
:103694001b880c3b9a4203d1134b01221a80c5e0cc
:1036a400114b04221a80c1e0fb8d47f6fa72934253
:1036b40024d87b68002242f006029a710022da7153
:1036c400fb8da3f5ff43163b9ab27b681a817b6896
:1036d40000229a720022da727b68002242f006020b
:1036e4001a7000225a70a1e0c4010020d001002009
:1036f400c8010020c0010020cc020020fb8d47f649
:10370400fd72934204d0fb8d47f6fc7293422bd199
:10371400644b1b68fb60634b1b680133614a136095
:103724007b68002242f004029a710022da71fb687d
:103734009ab27b681a81fb681b0c9ab27b685a8127
:103744007b68002242f006021a7000225a70fb8d38
:1037540047f6fd72934203d1534b02221a8065e06f
:10376400514b00221a8061e0b7f92e30002b07dba1
:103774004d4b00221a80786807f0e2fb00238ce0ae
:10378400fb8d7b61002387f82d307b68002242f09b
:1037940005029a710022da717b699ab27b681a81f8
:1037a4007b691b0c9ab27b685a817b68002242f0c9
:1037b40006021a7000225a701de07b6803f10c02a5
:1037c40097f82d305b08dbb25b0013441b887b82c7
:1037d4007b8adbb2002b13d097f82d30013387f8a6
:1037e4002d307b8a03f47f43002b0bd097f82d30c8
:1037f400013387f82d3097f82d301f2bddd902e0e7
:1038040000bf00e000bf97f82d301f2b0bd87b685a
:103814001b889ab297f82d309bb213449bb20133a4
:103824009ab27b681a80204b00221a801f4b1b78a7
:10383400002b27d07b689b889bb2c3f30b039ab2ff
:103844007b689a801a4b1b7803f00703002b02d184
:10385400174b01221a707b689b889bb21ab2144bd7
:103864001b781b031bb213431bb29ab27b689a806a
:103874000f4b1b780133dab20d4b1a70786803f0e2
:103884009bf909e04021786804f0caf80346002b4c
:1038940002d0084a7b681360002318463037bd46bf
:1038a40080bd00bfc8010020c40100201802002010
:0838b40054020020cc010020a9
:020000040000fa
:1038bc002de9f74f01f10b05162d064606d935f00b
:1038cc00070504d50c233360002445e110258d42f7
:1038dc00f8d3304603f0cffeb5f5fc7fa54f39d2b7
:1038ec0005f108023a44a2f1080154688c424feaef
:1038fc00d50302d1d468a24210d06368e268a168f3
:10390c0023f00303ca60234491605a6842f0010219
:10391c005a60304604f059f908341de10233964ad6
:10392c003c699442114675d0606820f00300a0eb0e
:10393c00050ebef10f0f48dd631945f001056560fa
:10394c007b613b61da609a604ef001025a6044f888
:10395c0000e0dee76b0a2ad0042b12d8ab0938330f
:10396c005a1c07ebc202a2f108005468844206d02c
:10397c00626822f00302511b0f291cdd013b01334d
:10398c00cde7142b01d85b33eae7542b02d82b0b71
:10399c006e33e5e7b3f5aa7f02d8eb0b7733dfe79d
:1039ac0040f25452934204d8ab0c7c33d8e73f23fb
:1039bc00d6e77e23d4e70029e16804dba368d9604d
:1039cc008b60a318a1e70c46d0e7bef1000f7a611b
:1039dc003a6105db2044436843f00103436098e7f8
:1039ec00b0f5007f4bd2c0084feaa00e012202fabc
:1039fc000efe7a6801304eea02027a6007ebc002d2
:103a0c0057f830e0c4f808e0083ae26047f8304074
:103a1c00cef80c4001209a1000fa02f2786882422b
:103a2c0000f2ac80024206d123f0030352000242a2
:103a3c0003f10403fad007ebc308c1469c46d9f83e
:103a4c000c404c455ad10cf1010c1cf0030f09f140
:103a5c000809f4d19c0740f085807b6823ea0203b7
:103a6c007b6078685200824200f28880002a00f065
:103a7c00858063460242ded104335200fae7420ae3
:103a8c00042a17d88209383202f1010e07ebc20c56
:103a9c0057f83ee0f44528d10120921000fa02f2ca
:103aac00786810437860c4f80cc0c4f808e0ccf80f
:103abc000840ade7142a01d85b32e5e7542a02d856
:103acc00020b6e32e0e7b2f5aa7f02d8c20b773256
:103adc00dae740f2545e72459abf820c7c327e2249
:103aec00d2e7def808e0f44505d0def8042022f039
:103afc0003029042f5d3def80cc0d4e76068d4f82a
:103b0c000ce020f00300a0eb050abaf10f0f12dd58
:103b1c00a268631945f001056560c2f80ce0cef8a7
:103b2c0008204af001027b613b61d96099605a60c0
:103b3c0044f800a0ede6baf1000f11db2044436815
:103b4c0043f00103436054f8083f3046c3f80ce0df
:103b5c00cef8083004f039f8204603b0bde8f08ff9
:103b6c0074466ee758f80809804503f1ff333ff4bb
:103b7c0071af76e70028002008280020d7f808b09d
:103b8c00dbf8044024f003094d4504d8a9eb0503e8
:103b9c000f2b00f394804f4a14684f4a019211681e
:103bac002c44013116bf8f34103424f07f040bebfe
:103bbc00090321463046009306f0eaffb0f1ff3fbf
:103bcc00804654d0009b019a834201d9bb454ed10b
:103bdc0042480168434521440160824613d158068e
:103bec0011d1bb684c4444f001045c603c4adaf8e7
:103bfc00003011688b4288bf13603a4a11688b42bf
:103c0c0088bf136033e0106801301bbfa8eb0303bf
:103c1c005b18c2f80080caf8003018f007031cbf0c
:103c2c00c3f1080398444444803304f07f041c1b04
:103c3c002146304606f0acff431c08bf4046daf87c
:103c4c000030c7f8088008bf0024a0eb080023440c
:103c5c00044444f00104bb45caf80030c8f80440e1
:103c6c00c4d0b9f10f0f10d80123c8f80430bb68c9
:103c7c005a6822f003029542a2eb050301d80f2be0
:103c8c001ddc304603f0a1ff1ee6dbf80430a9f181
:103c9c000c0929f0070903f0010343ea0903cbf8e7
:103cac0004300beb09030522b9f10f0f5a609a602f
:103cbc009cd90bf10801304601f0a0fc96e7bc68da
:103ccc0045f00102254443f001036260bd606b6066
:103cdc001fe600bf7c30002080300020002f002029
:083cec00743000207830002044
:020000040000fa
:103cf40090b58fb002af78600023fb737b681b899b
:103d04009bb2dbb203f07f0387f82130022387f8ec
:103d14002f3097f82130052b06d17b681b889bb286
:103d2400092b08d80623f2e17b681b889bb2072b7a
:103d340001d80623ebe197f82130032b00f0d18062
:103d4400052b00f0ce80012b40f0a5817b689b8978
:103d54009bb2052b00f2a2810023bb857b689b8963
:103d64009bb287f820300e227968ad4807f04af8f4
:103d740097f820305a1e87f82020002b22d1a94b17
:103d840000221a80002387f82b3014e097f82b3098
:103d9400184604f013fd0346fb837b689a1d97f8cd
:103da4002b3004335b001344fa8b1a8097f82b30c2
:103db400013387f82b3097f82b30042be6d91223e4
:103dc400bb855ae00023bb83964b1b88002b11d084
:103dd400954b1b880c3bbb857b68063306337b62a3
:103de400924b1b88bb818f4b1b88013b9ab28d4b36
:103df4001a802ae097f82030184604f0dffc0346c6
:103e0400bb834ff48053bb81874b1b880e3bbb8520
:103e14007b68063308337b62bb8b5a00bb8d9a42a6
:103e240010ddbb8d02337b83bb8b5a00bb8dd21a52
:103e34007b8b013b1a447b8b92fbf3f39ab2794b55
:103e44001a8002e0774b00221a8097f8203098b24b
:103e5400ba8d07f10c0107f10f0300937b6a03f09d
:103e6400adf90346bb85ba89704b1a806e4b1a882c
:103e7400bb8dd31a9bb2063bbb857b68ba8d1a8077
:103e8400fb7b002b40f00a817b681b899bb223f0eb
:103e94007f039ab27b681a817b681b899bb243f0cb
:103ea40002039ab27b681a815e4b1a887b685a8136
:103eb4005c4b1b88002b00f0f1807b681b899bb254
:103ec40023f080039ab27b681a817b681b899bb2ba
:103ed40043f080039ab27b681a81822387f82f30db
:103ee400dce07b689b899bb2bb81bb89b3f5805fb7
:103ef40002d20523fb73d3e0bb89184606f050fbbe
:103f040078617b69002b00f0c38000237b8497f8e1
:103f14002130032b26d17b6803f10e04786906f067
:103f240021ff03461b682360b88900237a690021b6
:103f340002f028fd03460c337b847a8c3a4b1b88b1
:103f4400063b9a4202dd0c237b8481e0b8897b68be
:103f54000e3304337a69002102f014fd03460c3356
:103f64007b8475e07b68db899bb2fb74786906f01f
:103f7400f9fe03465b889bb2bb74fa7cbb7c9a4215
:103f840064d87b6803f11004fb7c1946786905f05a
:103f940012fd034606221946204606f033ff7b68cd
:103fa400db899bb2dbb29ab27b68da81786906f06e
:103fb400d9fe03469a78db781b0213433b823b8a83
:103fc4001b129bb203f00f033b823b8a082b02d0e7
:103fd4003b8a092b11d1fb7c002b0ed17b6810335b
:103fe4000633134a1468506891681c6058609960dd
:103ff400127b1a731c237b842ae0b889f97c002382
:104004007a6902f0bffc034610337b847a8c064b3a
:104014001b88063b9a420ddd10237b8418e000bf09
:10402400c4230020b0230020cc02002090230020d1
:10403400f82f0020b8897b6810330633f97c7a693d
:1040440002f0a0fc034610337b8401e01123fb73d0
:10405400fb7b002b24d17b6800229a720022da7247
:104064007b687a8c1a807b681b899bb223f07f0360
:104074009ab27b681a817b681b899ab297f82130bf
:104084009bb201339bb213439ab27b681a8107e057
:104094000823fb7304e00323fb7302e000bf00e08a
:1040a40000bffb7b002b25d07b68002242f00a0274
:1040b4001a7000225a707b681b899bb223f07f031d
:1040c4009ab27b681a817b681b899bb243f0070311
:1040d4009ab27b681a817b6800229a720022da7293
:1040e400fb7b1a460c4b53f822207b68da600b4b9f
:1040f40000221a8097f82f301946786803f090fc54
:104104000346002b02d0064a7b681360002318463e
:104114003437bd4690bd00bfd48f0000b0230020cb
:04412400bc010020ba
:020000040000fa
:10412800b0b588b002af78600023fb7500233b610f
:104138007b681b899bb203f010039b4a1278934259
:1041480002d10123fb7562e1984b1b88093bbb81b7
:104158007b681b899bb2dbb203f01003dab2924b87
:104168001a70934b1b68002b00f04f81914b1a6813
:10417800914b1b68d31a3b617b681b899bb203f088
:104188000103002b2ed0ba893b699a4227d37b685a
:104198001a785b781b0213437b817b89033b1a46a1
:1041a8003b699a420bd37b681b899bb25b109bb21d
:1041b800db439bb203f007023b699a4208d03b6994
:1041c800072b09d97b89033b1a463b699a4203d1dd
:1041d8007a4b00221a7011e00e23fb750ee00e23b5
:1041e800fb750be0754b01221a70ba893b699a423c
:1041f80002d30e23fb7501e0bb893b61fb7d002bdd
:1042080040f005810023fb816b4b1b6803f0010321
:10421800002b3dd0664b1a68674b1b685b085b0038
:104228001344634a1168644a1268520852000a44e7
:104238001288d2b292b21a805d4b1a685e4b1b6824
:104248005b085b0013445a4a11685b4a12685208bb
:1042580052000a44128811b27a68128992b212b2d4
:1042680022f0ff0212b20a4312b292b21a80504be5
:104278001a68514b1b685b0801335b00d0187b68d8
:1042880003f10a013b69013b1a4606f0b9fd42e019
:10429800474b1a68484b1b685b085b0013447a68f5
:1042a800128992b2120a92b211b27a68528992b203
:1042b800120212b20a4312b292b21a800123fb818f
:1042c80023e03b4b1a683c4b1b685908fb890b449d
:1042d8005b001a44fb89013b796804335b000b449b
:1042e8005b889bb21b0a9bb219b2fb8978680433be
:1042f8005b0003445b889bb21b021bb20b431bb2df
:104308009bb21380fb890133fb81fa893b69013336
:104318005b089a42d5d3294b1b78002b77d1284bc1
:104328001888284b1978234b1c68274b1d68204b8d
:104338001b68264a1278019200932b462246fdf705
:10434800bdfe0346fb75fb7dff2b55d1204b02229a
:104358001a701e4b1a781f4b1a701a4b1a781e4b7c
:104368001a70174b1a881d4b1a80124b1b681c4a6f
:1043780013600f4b1b681b4a1360134b1b681b6aa7
:10438800194a1360194b01221a70194a7b68136085
:104398000a4b00221a70174b00221a70064b002293
:1043a8001a60ff2388e000bfaa230020de02002055
:1043b800bc230020a0230020982300209d23002058
:1043c800c0230020d8230020d42300209c230020d1
:1043d800a8230020a9230020dc230020da230020c2
:1043e800b823002094230020a4230020913000202b
:1043f800b4230020ab230020314b1b68184606f07d
:104408009dfd2f4b00221a6001e00323fb75fb7d05
:10441800002b3bd17b68002242f00a021a7000226e
:104428005a707b68db889bb2c3f30b039ab27b6834
:10443800da807b68db889bb243f440539ab27b688e
:10444800da80204b1b78002b07d07b68002242f0d3
:1044580030021a7200225a7206e07b68002242f08b
:1044680020021a7200225a72174b1b78012b06d1b0
:10447800164b1a683b691344144a13601be0134b2c
:1044880000221a60124b00221a7014e00e4b002210
:104498001a700f4b00221a70094b1b68002b07d0ab
:1044a800074b1b68184606f049fd054b00221a60a9
:1044b800064b00221a60fb7d18461837bd46b0bd72
:1044c800bc230020aa2300209d230020982300203d
:0444d800ab230020f2
:020000040000fa
:1044dc0080b586b000af0346fb710023bb7500238b
:1044ec00bb8200237b82974b1b8841f6fe72934262
:1044fc0011d9944b1b8841f6fe7293420bd9914b08
:10450c001b8841f6fe72934205d98e4b1b8841f6ef
:10451c00fe72934201d8142397e1002006f0bef8f6
:10452c00f860fb681b681b0cbb82fb681b687b82fa
:10453c00fb685b6803f48033002b02d11623bb7538
:10454c002be0fb685b6803f00c03042b02d01623f2
:10455c00bb7522e0fb685b6803f00203002b02d101
:10456c001623bb7519e0bb8a212b02d81623bb7509
:10457c0013e0bb8ab3f5807f02d91623bb750ce020
:10458c007b8ab3f5805f02d21623bb7505e07b8a6c
:10459c00b3f5005f01d31623bb75bb7d002b3fd158
:1045ac00012006f07bf8f860fb681b681b0cbb82d3
:1045bc00fb681b687b82fb685b6803f48033002b11
:1045cc0002d11623bb752be0fb685b6803f00c0370
:1045dc00002b02d01623bb7522e0fb685b6803f04e
:1045ec000203002b02d11623bb7519e0bb8a212bc9
:1045fc0002d81623bb7513e0bb8ab3f5807f02d9b2
:10460c001623bb750ce07b8ab3f5805f02d21623b0
:10461c00bb7505e07b8ab3f5005f01d31623bb7530
:10462c00bb7d002b6fd1fb79032b6cd9464b012240
:10463c001a70032006f032f8f860fb681b681b0c3c
:10464c00bb82fb681b687b82fb685b6803f480336e
:10465c00002b05d0bb8a002b02d10423bb7548e08c
:10466c00fb685b6803f48033002b39d0374b1b8815
:10467c00ba8a9a4206d1354b1b88002b02d0bb8ad2
:10468c00442b02d90323bb7533e0fb685b6803f052
:10469c000c03002b21d12e4b1b78022b07d17b8acc
:1046ac00b3f5805f03d37b8ab3f5005f08d3284b47
:1046bc001b78022b0ed0274b1b887a8a9a4209d181
:1046cc00fb685b6803f00203002b12d01e4b002228
:1046dc001a700ee00223bb750be00423bb7508e0d7
:1046ec00bb8a002b03d1194b1b88002b01d0032351
:1046fc00bb75bb7d002b06d0bb7d1946032000f09b
:10470c0045fb1e23bb75bb7d002b40f08680fb79df
:10471c00022b40f28280022005f0c0fff860fb689b
:10472c001b681b0cbb82fb681b687b82fb685b688d
:10473c0003f48033002b0fd0bb8a002b0cd1042345
:10474c00bb7560e012020020d80100200e02002090
:10475c00df01002028020020fb685b6803f4803333
:10476c00002b47d03b4b1b88ba8a9a423fd1394b1e
:10477c001b88002b3bd0bb8a442b38d8fb685b686a
:10478c0003f00c03042b2ed1334b1b78022b07d1d7
:10479c007b8ab3f5805f03d37b8ab3f5005f08d3c4
:1047ac002d4b1b78022b1bd02c4b1b887a8a9a42e0
:1047bc0016d1fb685b6803f04003002b03d0284b39
:1047cc0001221a7002e0264b00221a70fb685b680b
:1047dc0003f00203002b09d0224b00221a7005e0d3
:1047ec000223bb750fe00423bb750ce00be0032325
:1047fc00bb7508e0bb8a002b03d1164b1b88002b22
:10480c0001d00323bb75bb7d002b06d0bb7d1946a5
:10481c00022000f0bbfa1d23bb75bb7d002b13d10e
:10482c00fb79fb750be0fb7d184605f037fff86054
:10483c00fb685b680c4a1360fb7d0133fb750b4b0b
:10484c001b78fa7d9a42eed3bb7d18461837bd46cd
:10485c0080bd00bfe0010020df010020ec01002042
:10486c0022020020d8010020543000202602002013
:020000040000fa
:10487c0080b582b000af9d4b1b78002b00f03281cd
:10488c0000237b800023fb710023bb80984bb3f982
:10489c000030002b6dd1974b1b881b099bb2fb7111
:1048ac00944b1b88242b1cd0242b04dc123b012b97
:1048bc0000f2058102e0482b26d000e18e4b1b78dc
:1048cc00002b01d106f073fb01f088fb8b4b1b789e
:1048dc00002b03d08a4b1b88bb80f0e00123bb80ec
:1048ec00ede0854b1b78002b01d106f0fdfa01f0b1
:1048fc0069fd824b1b78002b03d0814b1b88bb803e
:10490c00dde00123bb80dae07e4b1b78002b14d05a
:10491c007d4b1b78002b02d12d23bb801be07b4be6
:10492c001b78002b06d17a4b1b88002b02d01b2343
:10493c00bb8010e01a23bb800de0754b1b88002b4d
:10494c0002d01b23bb8006e00823fb710023bb8035
:10495c00704b01221a70bb88002b00f0a980664bab
:10496c001b78002b01d106f0cffa06f063f800bfdc
:10497c009ee0604b1b88242b2ad0242b04dc123b9a
:10498c00012b00f29c8002e0482b3ed097e05a4b62
:10499c001b78002b00f08e80574b00221a7006f00b
:1049ac009bfa03467b807b88002b09d15a4b012252
:1049bc001a70504b1b88dbb203f00f03fb7179e0cc
:1049cc007b88ff2b76d006f0f2fa01f007fb71e042
:1049dc00494b1b78002b6fd0474b00221a704f4865
:1049ec0006f001fa03467b807b88002b05d14c4beb
:1049fc0001221a700423fb715ee07b88ff2b5bd0d5
:104a0c0006f072fa01f0defc56e03b4b1b78002bf3
:104a1c0054d03c4b1b78002b2ad0424bb3f90030be
:104a2c00002b4bdd3f4bb3f900203f4bb3f900306b
:104a3c009a4243dc3b4b00221a803b4b00221a80eb
:104a4c002d4b00221a7006f057fa03467b807b88a8
:104a5c00002b05d12f4b01221a700823fb712de07e
:104a6c007b88ff2b2ad006f04ffa05f0e3ff25e0f8
:104a7c00274b1b88002b03d0244b1b78002b1dd0fd
:104a8c001d4b00221a7006f037fa03467b807b8898
:104a9c00002b05d11f4b01221a700823fb710de06e
:104aac007b88ff2b0ad006f02ffa05f0c3ff05e038
:104abc0000bf04e000bf02e000bf00e000bffb79d4
:104acc00002b0fd0094b00221a70bb88002b03d08f
:104adc00fb7943f01003fb71ba88fb791146184639
:104aec0000f0baff00bf0837bd4680bd0c020020a5
:104afc0016020020da010020de010020e601002071
:104b0c00e201002019020020f8010020140200200c
:104b1c00e00100201a020020c2020020f601002051
:0c4b2c0020020020f2010020ea0100201d
:020000040000fa
:104b380090b589b000af78600023fb777b683b6154
:104b48007b681b7a03f010038a4a1278934202d1d9
:104b58000123fb7709e10023bb61874b1b88093bd5
:104b6800fb817b681b7a03f01003dab2814b1a7061
:104b7800fa89824b1b681a44814b1b689a4209d9ef
:104b88007f4b1a687d4b1b68d31abb617d4b002293
:104b98001a7004e0fb89bb617a4b01221a703b69e9
:104ba8001b899bb2dbb29ab23b691a81734b1b68b3
:104bb80003f00103002b25d03b691b899bb21ab275
:104bc800714b19686d4b1b685b085b000b441b88b5
:104bd8001bb223f0ff031bb213431bb29ab23b690b
:104be8001a813b6903f10a00674b1a68634b1b681b
:104bf8005b0801335b00d118bb69013b1a4606f01c
:104c0800fff846e00023fb825c4b1b685b08bb6037
:104c18003b691b899bb21ab25b4b1968574b1b68df
:104c28005b085b000b441b881b021bb213431bb2bf
:104c38009ab23b691a810023fb8225e0fb8a524a1b
:104c48001168f88aba68024452000a441288120aa3
:104c580092b211b24c4a1068fc8aba6822440132f6
:104c6800520002441288120212b222f0ff0212b25b
:104c78000a4312b291b23a6904335b0013440a46fc
:104c88005a80fb8a0133fb82fa8abb695b089a4225
:104c9800d4d33b69db889bb2c3f30b039ab23b695d
:104ca800da803b69db889bb243f440539ab23b6994
:104cb800da803b691b899bb223f0ff039ab23b69f8
:104cc8001a81304b1b78002b0ad03b691b899ab29a
:104cd800284b1b789bb213439ab23b691a810ce0ac
:104ce8003b691b899ab2234b1b7843f00103dbb263
:104cf8009bb213439ab23b691a81bb69062b15d83c
:104d08003b69002242f00a021a7000225a703b697d
:104d18001b899ab2bb699bb2c3f107039bb25b00c4
:104d28009bb213439ab23b691a8105e0bb699bb2f7
:104d380003339ab23b691a80124b1b78012b06d1b8
:104d48000e4b1a68bb6913440c4a13600de00e4bf6
:104d58001b68184606f0f2f80b4b00221a60074b46
:104d680000221a60094b00221a70fb7f184624376c
:104d7800bd4690bdaa230020cc0200209823002025
:104d8800a02300209d230020bc230020ab2300206b
:020000040000fa
:104d980080b584b000af03460a46fb711346bb7169
:104da80006f00df8f860fb68002b00f0d780bb799f
:104db800013bbb71fb685b889bb2dbb29ab2fb68b4
:104dc8005a80fb685b889bb21ab2b979fb799b0061
:104dd8000b441b021bb213431bb29ab2fb685a80e6
:104de800fb79022b02d0032b48d08de0bb79032b33
:104df80000f2958001a252f823f000bf154e000082
:104e0800154e0000354e0000474e0000fb6800229a
:104e18001a71002242f010025a71fb684ff0ff32fb
:104e28009a71002242f01f02da7126e04d4b1a886f
:104e3800fb689a804b4b1a88fb68da801de0494b67
:104e48001b88002b0ed0fb68002242f00a021a7160
:104e580000225a71fb68002242f001029a71002276
:104e6800da7109e0fb6800221a7100225a71fb68a6
:104e780000229a710022da7100bf50e0bb79032b3f
:104e88004fd801a252f823f0a14e0000a14e000015
:104e9800c14e0000d34e0000fb6800221a710022a8
:104ea80042f010025a71fb684ff0ff329a710022eb
:104eb80042f01f02da7126e02b4b1a88fb689a80b1
:104ec800294b1a88fb68da801de0274b1b88002bca
:104ed8000ed0fb68002242f00e021a7100225a71ad
:104ee800fb68002242f001029a710022da7109e09f
:104ef800fb6800221a7100225a71fb6800229a711d
:104f08000022da7100bf0ce0fb6800221a7100224f
:104f18005a71fb6800229a710022da7102e000bf20
:104f280000e000bffb6800221a70002262f05f02f6
:104f38005a70fb685b889bb223f0ff039ab2fb6848
:104f48005a80fb685b889ab2084b1b789bb2134364
:104f58009ab2fb685a80f86803f040fb00bf10372c
:104f6800bd4680bde00100200e020020df010020c8
:020000040000fa
:104f780090b583b000af0446084611461a4623464a
:104f8800fb710346bb710b467b7113467b80bb7973
:104f9800602b0ad0bb79002b07d0fb691b899bb219
:104fa80023f0ff039ab2fb691a81fb79002b40f0ca
:104fb8008580fb69db889bb2c3f30b039ab2fb695c
:104fc800da80fb69db889bb243f440539ab2fb69f1
:104fd800da80bb79402b4bd1bb69042b22d8bb6943
:104fe800002b1fd0fb69002242f00a021a7000222f
:104ff8005a70fb691b899ab27b7943f00303dbb2d1
:1050080019b2bb69dbb2c3f104039b001bb20b43ab
:105018001bb29bb213439bb243f040039ab2fb69a5
:105028001a8170e07a88bb699a4205d27b880a3374
:105038009ab2fb691a8005e0bb699bb20a339ab23f
:10504800fb691a80bb699ab2fb699a81bb691b0c20
:105058009ab2fb69da81fb691b899ab27b7943f0c2
:105068004103dbb29bb213439ab2fb691a814ae04f
:10507800bb79002b0fd1fb69002242f00a021a709b
:1050880000225a70fb691b899bb243f020039ab235
:10509800fb691a8137e0bb79602b34d0fb690022a9
:1050a80042f00a021a7000225a70fb691b899bb2ef
:1050b80043f060039ab2fb691a8124e0fb6900227d
:1050c80042f00a021a7000225a70fb69db889bb210
:1050d800c3f30b039ab2fb69da80fb69db889bb2e6
:1050e80043f400539ab2fb69da80fb691b899bb2cf
:1050f80043f080039ab2fb691a81fb79094a52f896
:105108002320fb69da600221f86902f087fc034674
:10511800002b02d0044afb69136000bf0c37bd4660
:0c51280090bd00bfd48f0000bc0100202f
:020000040000fa
:1051340080b483b000af03460a46fb801346bb80ad
:10514400bb88222b00f2be8001a252f823f000bfdc
:10515400e1510000e5510000535200008752000065
:10516400c9520000c9520000c9520000c9520000cf
:10517400c9520000c9520000c9520000c9520000bf
:10518400c9520000c9520000c9520000c9520000af
:10519400c9520000c9520000c9520000c95200009f
:1051a400c9520000c9520000c9520000c95200008f
:1051b400c9520000c9520000c9520000c95200007f
:1051c400c9520000c9520000c9520000c95200006f
:1051d400c9520000c952000031520000002372e09d
:1051e400fb8841f6324293420bd13a4b1b88002b89
:1051f40007d0394b9b8903f00203002b01dd002308
:1052040061e0fb8841f63342934254d1334b9b898e
:1052140003f00203002b4edd2e4b1b88002b4ad1da
:105224002f4b1b88002b46d000234ce0fb8841f613
:105234003342934241d1294b9b8903f00203002b53
:105244003bdd244b1b88002b37d000233be0fb883d
:1052540041f63242934207d11f4b9b8903f004036a
:10526400002b01dd00232ee0fb8841f633429342fc
:1052740025d11a4b9b8903f00403002b1fdd002367
:1052840021e0fb8841f63242934207d1124b9b89bd
:1052940003f00803002b01dd002314e0fb8841f632
:1052a400334293420dd10d4b9b8903f00803002b2d
:1052b40007dd002307e000bf04e000bf02e000bff9
:1052c40000e000bf122318460c37bd465df8047b8e
:1052d400704700bfe00100202c030020e8020020fa
:0452e4000e02002096
:020000040000fa
:1052e80080b584b000af0023bb814ff48033bb602e
:1052f80002f060fe5e4b1b78002b09d007f1080313
:10530800042240f60c01184601f0d2ffbb68bb60ce
:1053180004f0b4f90346fb81fb8903f00103002b79
:1053280018d0544b1b78002b14d100237b603b1df5
:1053380004224ff49071184601f0baff7b68bb81d4
:10534800fb8923f01103fb81bb89dbb200211846de
:10535800fcf7ecfafb8903f01003002b1cd0454b3b
:105368001b78002b18d1444b1b7803f01003002b3b
:1053780012d1414b1b7823f01003012b0cd0fb8971
:1053880023f01003fb813c4b1b7803f00f03dbb2c7
:1053980000211846fcf7cafa364b1b78002b01d0bf
:1053a800fff768fa324b1b78002b5cd0bb6803f41c
:1053b8008033002b08d1304b1b7803f00f03dbb28e
:1053c80000211846fcf7b2fafb8903f40073002b9e
:1053d8000fd02a4b00221a60294b1b880422194639
:1053e800264801f06dfefb8923f40073fb8101f070
:1053f80081f8bb6803f40033002b03d0214b1b78e2
:10540800002b08d0bb6803f40033002b1cd11d4bc4
:105418001b78002b18d003f09bfd1a4b1b78002b30
:1054280004d0bb6843f00073bb6003e0bb6823f0a3
:105438000073bb60bb68bb6007f10803042240f639
:105448000c01184601f03cfe04f018f90346fb81f4
:10545800fb8903f48073002b05d0fb8923f4807348
:10546800fb8100f0adfb00bf1037bd4680bd00bf1b
:10547800c20200200c020020df010020fc010020f5
:08548800d6020020e002002022
:020000040000fa
:1054900080b487b000af03463960fb710023bb8244
:1054a0003b689b891b12dbb203f00f03fb73fb7994
:1054b000002b02d0bb8a1033bb82fb7b072b01d1b0
:1054c00000239be00123fb8291e0fb7b082b04d1ae
:1054d0003b681b6906333b6108e03b681969fa8a3f
:1054e00013465b0013445b000b443b613b691b8824
:1054f0009bb21f2b23d01f2b0ddc062b1fd0062b9e
:1055000004dc032b1bd0042b39d05ce0082b36dde8
:105510000b2b14d057e02f2b31d02f2b04dc202b5a
:105520002dd02e2b0bd04ee0b3f5187f07d0b3f55e
:10553000187f48dba3f26223012b44d81fe0bb8a0b
:105540000f339bb223f00f03bb82fb799bb2fa8a25
:105550009a4244d23b691b889bb20b2b05d03b6916
:105560001b889bb2b3f5187f05d13b695b889ab263
:10557000bb8a1344bb82bb8a1033bb822fe0bb8a39
:105580001f339bb223f01f03bb82fb799bb2fa8ac5
:105590009a4226d23b691b889bb240f26222934218
:1055a00006d03b691b889bb240f26322934206d12e
:1055b0003b695b889ab2bb8a1344bb8211e0bb8a09
:1055c0002033bb820de0fb799bb2fa8a9a420ad261
:1055d0003b695b889ab2bb8a1344bb8203e000bf7d
:1055e00002e000bf00e000bffb8a0133fb82fb79d1
:1055f0009bb2fa8a9a427ff668afbb8a18461c377c
:08560000bd465df8047b704714
:020000040000fa
:105608002de9f04104468846002900f0ab8002f0fd
:1056180034f858f8042c544d22f00100a8f108037e
:105628001f18a9687e688f4226f0030602f001025f
:105638001bd130443ab958f8082c9b1a1044996881
:10564800da68ca60916040f001025a60ab60474b6b
:105658001b68984204d3464b2046196803f022fa87
:105668002046bde8f04102f0b2ba7e60002a39d186
:1056780058f8081c5b1a0844996805f1080e71452a
:1056880032d0d3f80ce0c1f80ce0cef80810b91904
:105698004968c9070ad43044b9683abb354eb142a3
:1056a80024d16b612b610122d960996040f001011e
:1056b80059601850002ad3d1b0f5007f1ad2c0081b
:1056c800811001228a40696801300a436a6005eb4b
:1056d800c00255f830109960083ada6045f8303061
:1056e800cb60bde70022d2e70122d0e7fe68ce609a
:1056f800b160dbe7420a042a13d882093832511c08
:1057080005ebc20655f831108e4224d101209210c3
:1057180000fa02f2686802436a60de609960b3606a
:10572800dee7142a01d85b32e9e7542a02d8020bd3
:105738006e32e4e7b2f5aa7f02d8c20b7732dee711
:1057480040f254518a429abf820c7c327e22d6e7bc
:1057580089688e4204d04a6822f003029042f7d347
:10576800ce68dae7bde8f081002800208430002008
:085778007c300020082800200d
:020000040000fa
:1057800090b589b000af786039600023fb830023b7
:10579000bb8300237b8300233b8300233b610023e7
:1057a000fb810023bb600023fb8200233b833ce0a2
:1057b0003b8b4e4a5b0013445b88184604f0f2feb4
:1057c00038613b69002b28d03b699b691b88fb81b2
:1057d0000023fb821ce03b699c69fb8adbb201333e
:1057e000dbb239691846fff753fe0346db089bb26c
:1057f0005b089bb25b002344bb60bb681b689bb229
:10580000dbb29ab27b8b13447b83fb8a0133fb822e
:10581000fa8afb899a42ded304e000237b832523a6
:10582000fb8307e03b8b01333b83304b1b883a8b78
:105830009a42bdd37b8b0733db107b83fb8b002b22
:1058400044d100233b833ce03b8b294a5b0013445b
:105850005b88184604f0a6fe38613b69002b28d00f
:105860003b699b691b88fb810023fb821ce03b6931
:105870009c69fb8adbb20133dbb239691846fff75a
:1058800007fe0346db089bb25b089bb25b00234428
:10589000bb60bb681b689bb2dbb29ab2bb8b134484
:1058a000bb83fb8a0133fb82fa8afb899a42ded3ef
:1058b00004e00023bb832423fb8307e03b8b0133fd
:1058c0003b830b4b1b883a8b9a42bdd3bb8b073370
:1058d000db10bb837b68ba8b1a803b687a8b1a809b
:1058e000fb8b18462437bd4690bd00bf58300020c2
:0458f0005c30002008
:020000040000fa
:1058f40080b582b000af00233b603b460422042104
:10590400184601f0d7fc3b683b603b681b0adab2df
:105914003a4b1a703b681b0c9bb29b029bb203f67a
:10592400ff739ab2364b1a8004f044f90023fb71da
:1059340006e0fb79184604f063f9fb790133fb7147
:105944002e4b1b78fa799a42f3d301f03bfb2d4b93
:1059540000221a702c4b00221a702c4b00221a7051
:105964002b4b00221a702b4b00221a702a4b002258
:105974001a702a4b00221a70294b00221a80294bd4
:1059840000221a80284b00221a80284b00221a80f9
:10599400274b00221a80274b00221a80264b002214
:1059a4001a70264b00221a70254b00221a80254bb0
:1059b40000221a80244b00221a80244b00221a80d1
:1059c400234b01221a70224b1b780021184600f049
:1059d40047f8204b00221a801f4b00221a701f4bdd
:1059e40000221a7002f0a8fd05f016f8002004f059
:1059f40053fa00bf0837bd4680bd00bf2602002011
:105a04001202002018020020de0100200c020020f7
:105a1400140200201a02002020020020220200208a
:105a24001e020020dc010020e4010020ee01002021
:105a34001c020020f401002019020020e6010020cd
:105a4400e2010020f6010020e00100200e02002007
:105a5400df010020da0100202702002021020020bb
:020000040000fa
:105a640080b586b000af03460a46fb711346bb807f
:105a7400bb88fb8200233b614e4b1b78fa799a4228
:105a840002d04c4afb791370bb884ff6ff729342e5
:105a940009d0fb8a3b6107f1100304224ff49a7189
:105aa400184601f00ffb434b1b783b613b693b619c
:105ab40007f1100304224ff49871184601f002fb19
:105ac400bb88002b04d0fb7903f01003002b03d117
:105ad400394b00221a701ae0bb882d2b09d0bb88e1
:105ae4001a2b06d0bb88322b03d0344b1b78012be6
:105af40003d1314b01221a7009e0bb881b2b03d15f
:105b04002d4b02221a7002e02b4b0d221a702a4be5
:105b14001b7843f01003dab2274b1a70fb7903f0b9
:105b24000f03013b072b27d801a252f823f000bf33
:105b3400555b00005d5b0000755b0000655b000069
:105b44007d5b00007d5b00007d5b00006d5b000001
:105b54001b4b00221a700fe0194b0d221a700be038
:105b6400174b01221a7007e0154b0f221a7003e03d
:105b7400134b0e221a7000bf114b1b7843f0100315
:105b8400dab20f4b1a700023fb600d4b1b781a46d8
:105b9400094b1b781b021343fb6007f10c0304221f
:105ba4004ff49c71184601f08dfa00bf1837bd46ba
:105bb40080bd00bfdf01002027020020e601002095
:045bc400f0010020cc
:020000040000fa
:105bc80080b584b000af00237b604e4b19883b1d25
:105bd8000422184601f06cfb7b689bb27b607b68f3
:105be800fb81494b1b78012b30d10a2005f09ef927
:105bf8000346bb60bb68002b28d00a220021b86886
:105c080005f0a4f9bb68002242f004021a700022d1
:105c18005a70bb689b889bb223f470639ab2bb68c6
:105c28009a80bb68002242f001029a710022da7160
:105c3800bb68002242f007021a7200225a72002141
:105c4800b86801f0ebfeb86805f078f9fb8906330f
:105c5800fb812e4b1b78002b03d12d4b1b78002b7f
:105c680003d02c4b01221a7048e02a4b00221a70ec
:105c7800294b1b88fa899a4202d9274b1b88fb813a
:105c8800254b1b88184605f051f903461a46234b45
:105c98001a60224b1b68002b03d11e4b01221a707d
:105ca8002ce01e4b1868174b1b88fa89194601f01f
:105cb800fffa00233b603b46042240f604011846e5
:105cc80001f0f6fa3b683b603b6803f40063002b85
:105cd8000fd0134b00221a600a4b1a880e4b1b88f0
:105ce80013449bb2043b9bb2042219460c4801f0b2
:105cf800dffa0a4b1b68184601f056fb1037bd4601
:105d080080bd00bfc4020020c0020020c1020020e4
:105d1800dd020020d4020020de020020d80200208c
:045d2800fc0100205a
:020000040000fa
