:020000040000fa
:10000000f0ff022079a7000031c7000037c70000c9
:1000100043c7000049c700004fc7000000000000b0
:100020000000000000000000000000004f7b000006
:100030003dc70000000000004f7b000021bc000015
:100040004f7b00004f7b00004f7b00004f7b000088
:100050004f7b00004f7b00004f7b00004f7b000078
:100060004f7b00004f7b00004f7b00004f7b000068
:100070009dbb0000c9bb00004f7b00004f7b000010
:100080004f7b00004f7b00004f7b0000f5bb000062
:100090004f7b00004f7b00004f7b00004f7b000038
:1000a0004f7b00004f7b00004f7b00004f7b000028
:1000b0004f7b00004f7b00004f7b000013c6000009
:1000c00021c600004f7b00004f7b00004f7b0000eb
:1000d0004f7b00004f7b00004f7b00004f7b0000f8
:1000e0004f7b00004f7b000000000000000000007c
:1000f000000000004f7b00004f7b00004f7b0000a2
:100100004f7b00004f7b00004f7b00004f7b0000c7
:100110004f7b00004f7b00004f7b00004f7b0000b7
:100120004f7b00004f7b00004f7b00004f7b0000a7
:100130004f7b00004f7b00004f7b00004f7b000097
:100140004f7b00004f7b00004f7b00004f7b000087
:100150004f7b00004f7b000000000000000000000b
:10016000000000000000000000000000000000008f
:10017000000000000000000000000000000000007f
:100180004f7b00004f7b00004f7b00004f7b000047
:10019000000000004f7b00004f7b00004f7b000001
:1001a0004f7b00004f7b00004f7b00004f7b000027
:1001b0004f7b00004f7b00004f7b00004f7b000017
:1001c0004f7b00004f7b00004f7b00004f7b000007
:1001d0004f7b00004f7b00004f7b00004f7b0000f7
:1001e0004f7b00004f7b00004f7b00004f7b0000e7
:1001f0004f7b00004f7b00004f7b00004f7b0000d7
:100200004f7b000000000000000000004f7b00005a
:100210004f7b00004f7b00004f7b00004f7b0000b6
:100220004f7b00004f7b00004f7b00004f7b0000a6
:100230004f7b00004f7b00004f7b00004f7b000096
:100240004f7b00004f7b00004f7b00004f7b000086
:100250004f7b00004f7b00000d5700004f7b0000dc
:020000040000fa
:10026000f8b500bff8bc08bc9e4670472db400002e
:10027000f8b500bff8bc08bc9e46704709b4000042
:020000040000fa
:10028000103900201c00000000000000e8370020aa
:100290006c00000000000000b038002020000000ca
:1002a000000000006539002001000000010000008e
:1002b000010000006639002001000000010000007c
:1002c000010000006739002001000000010000006b
:1002d00001000000000000202000000000000000dd
:1002e000d03800202000000000000000f03800207e
:1002f000200000000000000020000020200000007e
:100300000000000040000020c000000000000000cd
:10031000423900200200000000000000e439002003
:100320000100000000000000000100202800000083
:1003300000000000280100200c0000000000000068
:10034000543800202800000000000000583700202a
:1003500090000000000000003401002008000000b0
:1003600000000000e539002001000000000000004e
:100370003c0100200508000000000000e6390020d4
:1003800001000000000000004409002002000000fd
:100390000000000068390020080000000000000094
:1003a000403600201801000001000000000000009d
:1003b0000000000001162100010900007cc60000b9
:1003c00078bc000070390020000000000000000030
:1003d000000000000000000000000000001a2100e2
:1003e0000109000088c60000a4bc00007839002084
:1003f00000000000000000000000000000000000fd
:1004000000000000121c06000108000094c6000055
:100410000cc30000ac390020000000000000000008
:10042000000000000000000000000000131c060097
:1004300001080000a0c6000028c30000b039002059
:1004400000000000000000000000000000000000ac
:100450000000000000602a0001090000acc6000096
:10046000c8c4000080390020000000000000000027
:1004700000000000000000000000000010702a00d2
:1004800001090000b8c60000dcc400008839002063
:10049000000000000000000000000000000000005c
:1004a00000000000ffff000000000000000000004e
:1004b000000000000000000000000000000000003c
:1004c0000000000098390020040000000100000036
:1004d000891300009639002002000000000000008f
:1004e0002c390020160000000100000053414d444b
:1004f000353120457468657243415420536c6176f0
:10050000650000009c39002004000000010000008c
:10051000312e3000a039002004000000010000004e
:10052000312e30004439002014000000010000008a
:1005300004000000d80400005392000001000000f5
:1005400001000000903900200600000001000000ba
:100550000400020104030000a4390020040000008c
:100560000000000060340020e001000001000000f5
:10057000000000000000000000100700000700005d
:10058000f8c60000c4c60000983900200000000032
:10059000000000000000000000000000000000005b
:1005a000011005000007000000c7000064c500003e
:1005b000963900200000000000000000000000004c
:1005c0000000000000000000081009000007000003
:1005d00008c70000d0c600002c3900200000000031
:1005e000000000000000000000000000000000000b
:1005f000091009000007000010c70000f0c4000047
:100600009c390020000000000000000000000000f5
:1006100000000000000000000a10090000070000b0
:1006200018c7000004c50000a03900200000000029
:1006300000000000000000000000000000000000ba
:10064000181023000409000000c100007cb600005f
:1006500044390020000000000000000000000000fd
:100660000000000000000000f1102a000209000054
:1006700018c5000008b50000a438002000000000e4
:10068000000000000000000000000000000000006a
:10069000f8101b000007000020c700002cc5000058
:1006a00068390020d5a7000000000000000000000d
:1006b0000000000000000000001c0500040800000d
:1006c000dcc6000040c5000090390020000000009a
:1006d000000000000000000000000000000000001a
:1006e000321c290020090000988e0000807e000046
:1006f000840b00200000000000000000000000004b
:100700000000000000000000331c29002009000048
:10071000988e0000807f0000400b00200000000049
:1007200000000000000000000000000000000000c9
:10073000ffff0000000000000000000000000000bb
:1007400000000000000000000000000000000000a9
:10075000480900200800000000000000e7390020e0
:10076000010000000000000050090020c40000004b
:1007700000000000140a0020040000000000000037
:10078000180a00201600000000000000a839002010
:100790000400000000000000e83900200100000013
:1007a00000000000300a002052000000000000009d
:1007b000840a00202800000000000000ac0a00208d
:1007c0009400000000000000a43800200c0000008d
:1007d0000100000002000000010000000400000011
:1007e000583900200d0000000100000053756249d7
:1007f0006e6465782030303000000000400b00202f
:100800008e00000000000000703900200800000089
:100810000100000001000000200110707839002064
:10082000080000000100000001000000200100603d
:10083000ac39002004000000010000000100011696
:10084000b039002004000000010000000100001a7f
:1008500080390020080000000100000001000000b5
:10086000000000008839002008000000010000009e
:100870000100000000000000b43900200400000066
:1008800000000000b8390020040000000100000052
:1008900001000000bc39002004000000000000003e
:1008a000c03900200400000000000000c43900200e
:1008b0000400000000000000e939002001000000f1
:1008c00000000000ea3900200100000000000000e4
:1008d000d00b00201620000000000000eb390020a3
:1008e0000100000000000000e82b00204d00000087
:1008f00000000000382c0020010000000000000073
:100900007c3800202800000000000000c8390020ca
:100910000400000000000000cc39002004000000aa
:1009200000000000d039002004000000000000009a
:100930005830002008040000010000000000000002
:1009400000000000583000205830002060300020a7
:1009500060300020683000206830002070300020b7
:100960007030002078300020783000208030002067
:100970008030002088300020883000209030002017
:10098000903000209830002098300020a0300020c7
:10099000a0300020a8300020a8300020b030002077
:1009a000b0300020b8300020b8300020c030002027
:1009b000c0300020c8300020c8300020d0300020d7
:1009c000d0300020d8300020d8300020e030002087
:1009d000e0300020e8300020e8300020f030002037
:1009e000f0300020f8300020f830002000310020e6
:1009f0000031002008310020083100201031002093
:100a00001031002018310020183100202031002042
:100a100020310020283100202831002030310020f2
:100a200030310020383100203831002040310020a2
:100a30004031002048310020483100205031002052
:100a40005031002058310020583100206031002002
:100a500060310020683100206831002070310020b2
:100a60007031002078310020783100208031002062
:100a70008031002088310020883100209031002012
:100a8000903100209831002098310020a0310020c2
:100a9000a0310020a8310020a8310020b031002072
:100aa000b0310020b8310020b8310020c031002022
:100ab000c0310020c8310020c8310020d0310020d2
:100ac000d0310020d8310020d8310020e031002082
:100ad000e0310020e8310020e8310020f031002032
:100ae000f0310020f8310020f831002000320020e1
:100af000003200200832002008320020103200208e
:100b0000103200201832002018320020203200203d
:100b100020320020283200202832002030320020ed
:100b2000303200203832002038320020403200209d
:100b3000403200204832002048320020503200204d
:100b400050320020583200205832002060320020fd
:100b500060320020683200206832002070320020ad
:100b6000703200207832002078320020803200205d
:100b7000803200208832002088320020903200200d
:100b8000903200209832002098320020a0320020bd
:100b9000a0320020a8320020a8320020b03200206d
:100ba000b0320020b8320020b8320020c03200201d
:100bb000c0320020c8320020c8320020d0320020cd
:100bc000d0320020d8320020d8320020e03200207d
:100bd000e0320020e8320020e8320020f03200202d
:100be000f0320020f8320020f832002000330020dc
:100bf0000033002008330020083300201033002089
:100c00001033002018330020183300202033002038
:100c100020330020283300202833002030330020e8
:100c20003033002038330020383300204033002098
:100c30004033002048330020483300205033002048
:100c400050330020583300205833002060330020f8
:100c500060330020683300206833002070330020a8
:100c60007033002078330020783300208033002058
:100c70008033002088330020883300209033002008
:100c8000903300209833002098330020a0330020b8
:100c9000a0330020a8330020a8330020b033002068
:100ca000b0330020b8330020b8330020c033002018
:100cb000c0330020c8330020c8330020d0330020c8
:100cc000d0330020d8330020d8330020e033002078
:100cd000e0330020e8330020e8330020f033002028
:100ce000f0330020f8330020f833002000340020d7
:100cf0000034002008340020083400201034002084
:100d00001034002018340020183400202034002033
:100d100020340020283400202834002030340020e3
:100d20003034002038340020383400204034002093
:100d30004034002048340020483400205034002043
:100d400050340020d43900200400000001000000cd
:100d5000ffffffffd8390020040000000100000061
:100d600000000200dc390020040000000100000047
:100d7000402c0020402c002018040000010000003e
:100d8000000000002c2f0020902f0020f42f0020c6
:100d90000000000000000000000000000000000053
:100da0000000000000000000000000000000000043
:100db0000000000000000000000000000000000033
:100dc0000000000000000000000000000000000023
:100dd0000000000000000000000000000000000013
:100de0000000000000000000000000000000000003
:100df00000000000000000000000000000000000f3
:100e000000000000000000000000000000000000e2
:100e100000000000000000000000000000000000d2
:100e200000000000000000000100000000000000c1
:100e30000e33cdab34126de6ecde05000b00000086
:100e400000000000000000000000000000000000a2
:100e50000000000000000000000000000000000092
:100e60000000000000000000000000000000000082
:100e70000000000000000000000000000000000072
:1011900000000000000000003c2c002004000000c3
:1011a00000000000e0390020040000000000000002
:1011b000000000000000000022222222222222221f
:020000040000fa
:1011c00080b590b000af0023bb8600237b86002350
:1011d0003b610023fb60002387f83f300323bb877c
:1011e00003237b8700233b870023fb864ff6ff7397
:1011f0003b86a24b9a893b8e13403b86a04b9a8933
:101200003b8e13403b869f4b00221a809e4b002250
:101210001a7002200af026fcf862fb6a1b689ab278
:101220009a4b1a80fb6a5b6803f00203002b01d023
:1012300001237b8703200af015fcf862fb6a1b6818
:101240009ab2934b1a80fb6a5b6803f00203002b8f
:1012500001d00123bb878e4b1b881a468d4b1b8800
:101260001946bb8f03fb01f313448b4a1288934248
:101270000add874b1b881a46874b1b881946874b0c
:101280001b880b449a4218db814b1b881a46814b02
:101290001b881946bb8f03fb01f31344804a128855
:1012a000934210dd7a4b1b881a467d4b1b881946ea
:1012b0007c4b1b880b449a4205da0221032003f081
:1012c000a9fe1e233ee3714b1b881a46764b1b88f2
:1012d00019467b8f03fb01f313446f4a1288934234
:1012e0000add6a4b1b881a466b4b1b8819466b4bf1
:1012f0001b880b449a4231db644b1b881a466a4bad
:101300001b8819467b8f03fb01f31344644a128840
:1013100093420add5d4b1b881a46614b1b881946b8
:10132000604b1b880b449a4218db584b1b881a46ab
:101330005d4b1b8819467b8f03fb01f31344544a12
:101340001288934210dd514b1b881a46504b1b8864
:101350001946504b1b880b449a4205da02210220a1
:1013600003f058fe1d23ede207f1140304224ff4ad
:101370001861184607f060fc7b697b617b699bb252
:101380007b6107f1100304224ff41a61184607f03d
:1013900053fc3b693b6107f10c03042240f6a411a6
:1013a000184607f049fcfb68fb60344b5b883b87c1
:1013b000334b5b88fb867b6903f41063002b79d089
:1013c0007b6903f4c063002b01d13023bae27b694f
:1013d00003f40073002b06d17b6903f48063002bb8
:1013e00001d03023aee23b8e002b15d03b8e03f0b4
:1013f0000403002b04d17b6903f40073002b09d193
:101400003b8e03f00803002b06d17b6903f4806355
:10141000002b01d0302395e2244bbb62174b1b6994
:10142000bb623b69002b09d03a69bb6a9a4203d37d
:101430003b691f4a934201d9362383e27b6903f457
:101440000073002b0ed07b6903f48063002b09d05e
:10145000fb68002b06d0fa683b699a4202d301234d
:1014600087f83f3097f83f30002b23d03b8e03f0b6
:101470001003002b1ed1302364e200bf840b002038
:10148000400b00204e0a00206c0a0020440a002075
:10149000800a0020660a00202e0b0020240b00206a
:1014a0001c0b0020360b0020380a0020a08601000b
:1014b000000050c3914b1b78002b2cd07b6903f4a8
:1014c0001063002b0dd13b8f022b08d03b8f032bd9
:1014d00005d0fb8e022b02d0fb8e032b5fd1302375
:1014e00030e27b6903f48063002b07d13b8f032b31
:1014f00002d0fb8e032b01d1302323e27b6903f45e
:101500000073002b4bd13b8f022b02d0fb8e022ba2
:1015100045d1302316e27b6903f41063002b1dd103
:10152000774b1b88002b0bd001233b87754b1b8807
:10153000002b02d02223fb8631e00023fb862ee025
:10154000704b1b88002b04d000233b870123fb86b4
:1015500025e000233b870023fb8620e0684b1b88a7
:10156000002b09d097f83f30002b02d003233b8794
:1015700004e002233b8701e000233b87614b1b888b
:10158000002b0ad07b6903f48063002b02d0032375
:10159000fb8604e00223fb8601e00023fb863b8ff1
:1015a000032b0cd13b69584a53623b69564a53603e
:1015b0003b69564a53623b69544a53600ee03b8f85
:1015c000022b0bd13b69504a53623b694e4a536030
:1015d0003b694e4a53623b694c4a53604c4b1b7803
:1015e000002b07d13b8f002b02d0fb8e002b01d1ab
:1015f0002923a7e13b8f002b02d1fb8e002b02d0c9
:10160000444b01221a70434b1b78002b10d03c4beb
:101610001b88002b04d0404b4ff480621a8007e0f7
:10162000384b1b88002b03d03b4b4ff400621a80d1
:101630003b8f022b08d03b8f032b05d0fb8e022b58
:1016400002d0fb8e032b09d1344b01221a702c4b94
:101650001b88002b02d1304b00221a802a4a3b8f74
:1016600053802a4afb8e53802d4b00221a802d4b2b
:1016700000221a802c4b00221a802c4b00221a8048
:1016800097f83f30012b53d1fa683b6913447b62d2
:10169000fa683b699a4216d33b697a6ab2fbf3f364
:1016a0009ab2214b1a803a697b6ab3fbf2f102fbd2
:1016b00001f29b1a002b09d11b4b1b8801339ab2f4
:1016c000194b1a8002e0184b01221a803b697a6a92
:1016d000b2fbf3f39ab2124b1a803a697b6ab3fbfe
:1016e000f2f102fb01f29b1a002b2dd00c4b1b8850
:1016f00001339ab20a4b1a8026e000bfc80b0020c3
:10170000380a0020660a0020840b0020400b0020cd
:10171000300a0020790a00204e0a0020710a0020b9
:10172000620a0020400a0020680a00207c0a00208b
:101730003b8f022b02d1854b01221a80fb8e032b9b
:1017400002d0834b01221a80824b00221a80002390
:10175000bb6007f1080304224ff48461184607f0c8
:101760006bfabb687b867c4b1b88002b34d07b8e4e
:10177000002b31d000237b603b1d04224ff480619d
:10178000184607f059fa7b687b607b68bb86bb8e86
:10179000002b18d0bb8e02333b627a8e3b6a02fb71
:1017a00003f33b623b6a03f5c34327333b623b6a67
:1017b000db086a4aa2fb03231b0a3b623b6a9ab21c
:1017c000674b1a8004e000237b86654b00221a8059
:1017d000644b00221a8004e00023bb86604b002289
:1017e0001a805f4b1b88002b03d15f4b1b78002bab
:1017f00007d15b4b1b88002b05d05b4b1b78002b64
:1018000001d11f239ee0594b1b78002b0ad0524b6d
:101810001b88002b06d0564b1b8843f480639ab27a
:10182000534b1a80534b00221a80534b00221a80cc
:10183000524b00221a80524b00221a80514b002238
:101840001a70514b00221a70504b00221a80504bd4
:1018500000221a854e4b00225a854d4b002283f8f8
:1018600040204c4b00221a854a4b00225a85494b96
:10187000002283f840207b6903f40073002b50d0d2
:101880003b69002b03d13b4b00221a8018e03b69d7
:101890005b09414aa2fb0323db09fb61fb69042bc3
:1018a00003d8344b01221a800ae0fb699bb25b002b
:1018b0009bb23a4aa2fb0323db089ab22d4b1a8053
:1018c0007b6903f48063002b2bd0fa683b699a4252
:1018d00004d2284b1a882a4b1a8022e0fa683b6906
:1018e00013445b092c4aa2fb0323db09bb61bb69e0
:1018f000042b03d8224b01221a8008e0bb695b004d
:10190000264aa2fb0323db089ab21d4b1a80194b0f
:101910001b885b089ab21a4b1b8813449ab2184b67
:101920001a800d4b1b88002b02d0022009f01dfbf2
:101930001b4b1b88002b02d0032009f016fb07f07d
:10194000b5ff002318464037bd4680bd680a002019
:10195000620a0020cc0b0020380a002089b5f81458
:10196000760a0020340a00207a0a0020790a002032
:101970004e0a0020460a00203c0a0020740a00207b
:101980004c0a0020500a00206d0a00204a0a00205c
:10199000400b0020840b0020c55a7c0acdcccccc57
:0419a000660a0020b3
:020000040000fa
:1019a40080b584b000af03460a46fb711346bb8082
:1019b4000023fb8100237b73d54b4ff6ff721a8003
:1019c400d44b01221a70fb7903f01003002b09d0c9
:1019d40001237b73d04b1b7823f01003dab2ce4b78
:1019e4001a7012e0cc4b1b7803f01003002b05d0c7
:1019f400fb7903f00f03012b40f08783c64b1b7860
:101a040003f00f03dab2c44b1a70fb7903f00f032f
:101a1400fb71c14b1b783b733b7b1b013b733a7bd4
:101a2400fb7913443b733b7b442b28d0442b0bdcc6
:101a3400222b15d0222b02dc122b11d028e0242bd0
:101a440014d0422b0cd023e0822b09d0822b02dc51
:101a5400482b14d01ce0842b11d0882b0fd017e016
:101a6400022002f071fd0346fb8111e0ab49ac4852
:101a740004f072fc0346fb81fb89002b07d1a94bc0
:101a84001b78184602f060fd0346fb8100e000bfae
:101a9400fb89002b40f05182a34b00221a803b7b30
:101aa400113b772b00f2458201a252f823f000bfcc
:101ab400ed1e0000631d0000951c0000311f000096
:101ac400371f0000371f0000371f0000311f0000c0
:101ad400371f0000371f0000371f0000371f0000aa
:101ae400371f0000371f0000371f0000371f00009a
:101af400db1e0000f11e0000311f0000c51d0000a8
:101b0400371f0000371f0000371f0000311f00007f
:101b1400371f0000371f0000371f0000371f000069
:101b2400371f0000371f0000371f0000371f000059
:101b3400391d0000311f0000371f0000311f000055
:101b4400371f0000371f0000371f0000311f00003f
:101b5400371f0000371f0000371f0000371f000029
:101b6400371f0000371f0000371f0000371f000019
:101b7400bf1e0000931e0000311f0000f11e000074
:101b8400371f0000371f0000371f00001b1e000016
:101b9400371f0000371f0000371f0000371f0000e9
:101ba400371f0000371f0000371f0000371f0000d9
:101bb400371f0000371f0000371f0000371f0000c9
:101bc400371f0000371f0000371f0000371f0000b9
:101bd400371f0000371f0000371f0000371f0000a9
:101be400371f0000371f0000371f0000371f000099
:101bf400371f0000371f0000371f0000371f000089
:101c0400371f0000371f0000371f0000371f000078
:101c1400371f0000371f0000371f0000371f000068
:101c2400371f0000371f0000371f0000371f000058
:101c3400371f0000371f0000371f0000371f000048
:101c4400371f0000371f0000371f0000371f000038
:101c5400371f0000371f0000371f0000371f000028
:101c6400371f0000371f0000371f0000371f000018
:101c7400a31e0000751e0000311f0000651e000039
:101c8400371f0000371f0000371f0000f11e00003f
:101c9400264b01221a70022002f056fc0346002b48
:101ca40005d0224b00221a701523fb8178e1002015
:101cb40009f00dfa05f04aff0346fb81fb89002b6e
:101cc4000cd1144b00221a700af052fc0346fb811b
:101cd400fb89002b02d1164b01221a70fb89002bc1
:101ce4000ad0fb89ff2b07d00a4b1b78002b01d1ac
:101cf4000af0a9fc05f00ef803200af08dfbfb891d
:101d0400002b00f04081094b00221a703be100bf18
:101d14006e0a0020360a0020370a0020380a002004
:101d2400660a00207e0a0020320a0020700a002081
:101d34001a0b0020ab4b1b78002b0bd0a94b0022b5
:101d44001a70002009f0c3f904f0e4ff0af07bfce8
:101d54000346fb810af070fc0af02efb20e109f037
:101d640021f8a14b1b78002b01d15123fb81fb8966
:101d7400002b40f00a8105f0e9fe0346fb81fb8954
:101d8400002b0cd1994b00221a700af0f1fb034688
:101d9400fb81fb89002b02d1954b01221a70fb8930
:101da400002b00f0f280fb89ff2b00f0ee808f4bbc
:101db4001b78002b01d10af046fc04f0abffe4e0f1
:101dc400fff7fcf90346fb81fb89002b12d1874bfb
:101dd40000221a7087480af040fb0346fb81fb8906
:101de400002b07d1834b1b88184609f093f9824bcb
:101df40001221a70fb89002b00f0c980fb89ff2b9c
:101e040000f0c580794b1b78002b01d10af0b8fb98
:101e140005f012fabbe008f09df90346fb81fb894b
:101e2400002b0cd1714b00221a700af0b1fb03464f
:101e3400fb81fb89002b02d1704b01221a70fb89b4
:101e4400002b00f0a680fb89ff2b00f0a280674bdb
:101e54001b78002b01d10af0a3fb0af0b1f898e03b
:101e64000af09efb0af0acf8604b00221a7097e06f
:101e74000af096fb0346fb810af0a2f85b4b0022b2
:101e84001a70fb89002b40f0868042233b730af0d2
:101e940077fb05f0d1f9554b00221a7080e00af067
:101ea4007ffb0346fb810af08bf8504b00221a702b
:101eb400fb89002b71d141233b730af061fb03467c
:101ec400fb8105f0b9f9494b00221a70fb89002bfc
:101ed40065d121233b7304f01dff0af0b4fb0346d4
:101ee400fb810af069fa5be00af066fa7b7b002b5f
:101ef40004d03b7b9bb218460af0a4fa404b1b78f3
:101f040003f00c03002b0ed03e4b1b88002b03d098
:101f1400022009f028f806e03b4b1b88002b02d076
:101f2400032009f020f8fe23fb8139e01123fb8113
:101f340036e01223fb8100bf32e0314b1b78042bc7
:101f440008d0082b02d0022b08d029e00af028fb85
:101f54000af036f80af014fb05f06ef9fb89162b2b
:101f64000dd104f0d7fe0af06efb002008f040ff0c
:101f7400012008f03dff224b01221a7010e0204b93
:101f840002221a700ce000bf0ae000bf08e000bfa4
:101f940006e000bf04e000bf02e000bf00e000bfb5
:101fa400fb89ff2b51d1194b01221a703b7b9ab24a
:101fb400174b1a80164b1b88242b0dd0242b03dcc3
:101fc400123b012b28d802e0482b05d024e0114b0a
:101fd4004ff4fa621a8023e00e4b42f228321a8040
:101fe4001ee000bf700a0020e8390020360a0020f5
:101ff4001a0b00204e0a0020780a0020720a0020e2
:10200400370a0020380a0020660a0020640a0020eb
:10201400320a00206e0a00203e4bc8221a8000bffc
:102024003c4bb3f900309ab23a4bb3f900303a4919
:1020340081fb03018910db17cb1a1bb29bb2d31aa5
:102044009bb21ab2334b1a8060e0fa79334b1b7897
:1020540003f00f039a424ed0fb89002b02d1bb88b8
:10206400002b1fd02d4b1a78fb791343dbb203f0fe
:102074000803002b16d02a4b1b78002b03d00af040
:102084008ffa09f09dff274b1b88002b03d00220f9
:1020940008f0aefe06e0244b1b88002b02d0032080
:1020a40008f0a6fefb89002b0ed01c4b1b78082bd6
:1020b40002d11a4b04221a70184b1b7843f01003f8
:1020c400dab2164b1a700be0bb88002b05d0bb8824
:1020d400fb81fb7943f01003fb71104afb79137009
:1020e400124b00221a700d4b1b78fa8911461846c0
:1020f40004f0a4fa0ae00d4b00221a70074b1b7877
:102104000021184604f09afa00e000bf1037bd46db
:1021140080bd00bf6e0a002067666666370a00202d
:10212400720a0020380a0020660a0020640a00208f
:020000040000fa
:1021340090b591b002afba607b600346fb810b4659
:102144007b737b7bfb867b689b891b12dbb203f072
:102154000f0387f823300023bb867b689b89dbb29f
:102164003b84002387f833307b7b3b8697f823300e
:10217400072b28d07b689b691b88dbb2bb86bb8e90
:10218400002b20d1fb8941f60f42934204d9fb89ed
:1021940041f62f42934214d9fb89b3f5b05f03d3c0
:1021a400fb89b3f5c05f0cd3fb89b3f5d05f03d3d0
:1021b400fb89b3f5e05f04d3fb894ff2300293420d
:1021c40001d13b8cbb8697f84c30002b12d097f88a
:1021d4002330072b01d105232de37b7b002b06d174
:1021e400bb68002b03d0bb6c1b88dbb2bb86bb8ee9
:1021f4003b862ce07b7b9bb2ba8e9a4201d21123a0
:1022040019e37b7b1946786808f0a9fcf861fb693f
:102214009b889bb29b10dbb203f00e02a84b1b7889
:1022240003f00f031340002b11d1fb699b889bb271
:1022340003f03803002b08d1fb699b889bb2002b69
:1022440001d10523f7e20723f5e21a23f3e27b7bae
:10225400002b29d0fb8941f60f42934204d9fb8914
:1022640041f62f42934214d9fb89b3f5b05f03d3ef
:10227400fb89b3f5c05f0cd3fb89b3f5d05f03d3ff
:10228400fb89b3f5e05f04d3fb894ff2300293423c
:102294000ad17b689b691b88dbb27b837b8b002b19
:1022a40002d0012387f833307b681b6a002b0bd0e4
:1022b4007b681c6a797bf88997f84c300093bb6c77
:1022c400ba68a0470346b6e2002387f82f300723f5
:1022d40087f82e30bb68002b01d10023abe27b7b57
:1022e400fb869be27b689b69bb6200233b83fb8e7e
:1022f400dbb21946786808f032fcf861fb8edbb279
:102304007968184603f0b0fe03463b83fb699b885b
:102314009bb29b10dbb203f00e02694b1b7803f0f7
:102324000f031340002b00f04f82fb8e002b06d0ce
:102334003b8b1b099bb25b00ba6a1344bb627b7b79
:102344009bb2fa8e9a420ad097f84c30002b00f0d8
:1023540062827b7b9bb2fa8e9a42c0f05c82fb8ed7
:10236400002b15d197f82330072b11d0bb6c1b8899
:10237400fb74fb7c9bb23a8c9a4201d213235ae23f
:10238400bb6c1a88bb6a1a80bb6c0233bb6417e24d
:10239400fb691a785b781b021343fb84fb691b8877
:1023a4009bb2b3f5e06f19d3fb695b889bb2082b32
:1023b40005d8fb695b889bb22f33fb840ee0fb6975
:1023c4005b889bb2102b02d10623fb8406e0fb69d9
:1023d4005b889bb2202b01d10723fb84fb8c112b40
:1023e40000f08881112b1edc052b6bd0052b0ddc36
:1023f400022b04dc012b65da002b3bd0dde1032b3f
:1024040000f0c280042b00f04d81d6e1082b03dce0
:10241400072b80f24781b7e0092b00f089810b2b51
:1024240000f3cb81ace12d2b4cd02d2b11dc1e2bda
:1024340048d01e2b06dc152b00f05c811b2b00f012
:102444005981bae11f2b00f09f80202b00f02a81d4
:10245400b3e1372b08dc302b34da2e2b00f09480d8
:102464002f2b00f01f81a8e1a3f51873032b00f2b2
:10247400a48185e197f84c30002b1ed0fb695b8862
:102484009bb203f00f03002b0cddfb695b889ab24f
:102494003b8b13449bb203f00f03002b02d1bb6ca4
:1024a4000233bb64fb695b889bb21b1103f00f030f
:1024b4005b00ba6c1344bb6482e11823bbe100bf28
:1024c400370a00200023bb84fb695b889bb21a4651
:1024d4009b4b33f812301a463b8b03f00f0302fa7e
:1024e40003f3fb82bb6a1b88bb84b7f91630db435a
:1024f4001ab2b7f9243013401bb2bb8497f84c309e
:10250400002b08d0bb6c1a88fb8a13409ab2bb8c90
:102514001343bb8426e0bb6c1b881a46fb695b88ab
:102524009bb21946864b33f81130db431340002b22
:1025340001d012237fe1bb6c1a88fb695b889bb2d4
:1025440019467f4b33f8113013409bb21a463b8b2c
:1025540003f00f0302fa03f31ab2b7f9243013435a
:102564001bb2bb84bb6aba8c1a80fb695b889ab2c3
:102574003b8b13449bb203f00f03002b40f01f81ed
:10258400bb6c0233bb641ae13b8b03f00f03002bdb
:1025940001d005234fe1bb6c1b88bb8297f8333015
:1025a400002b06d0bb6a1b88ba8a9a4201d01c232e
:1025b40041e1fb8941f60f42934219d9fb8941f667
:1025c4002f42934214d8bb8ab3f5b05f03d3bb8abe
:1025d400b3f5c05f0cd3bb8ab3f5d05f03d3bb8a1a
:1025e400b3f5e05f04d3bb8a002b01d0122322e1b0
:1025f400fb8941f63242934204d0fb8941f63342cf
:10260400934248d1fb8e012b17d1bb6a1b88ba8a2f
:102614009a420fd0ba8afb891146184602f0c6fec8
:10262400034687f82e3097f82e30002b02d097f807
:102634002e3000e1434b01221a70fb8e082b2ad165
:10264400414b00225a61404b404a1a613e4b0022e2
:102654005a603f4b00225a613d4b3c4a1a613c4b45
:1026640000225a60bb8a03f00203002b13d0364bbe
:1026740000225a85344b00221a85334b002283f8fa
:102684004020334b00225a85314b00221a85304baf
:10269400002283f84020bb6aba8a1a80bb6c0233da
:1026a400bb648de03b8b03f00f03002b01d00523ab
:1026b400c1e097f83330002b0fd0bb6a1a88bb6c8b
:1026c4001b889a4207d1bb6a02331a88bb6c023357
:1026d4001b889a4201d01c23ade0bb6c1a88bb6aec
:1026e4001a80bb6a0233ba6c52881a80bb6c0433fa
:1026f400bb6465e03b8b03f00f03002b01d0052383
:1027040099e0bb6c1a88bb6a1a80bb6a0233ba6c44
:1027140052881a80bb6a0433ba6c92881a80bb6ae6
:102724000633ba6cd2881a80bb6c0833bb6447e0aa
:102734003b8b03f00f03002b0cd005237be000bf81
:1027440040c10000c80b0020840b0020a0860100bb
:10275400400b0020fb695b889bb20733db101a46f1
:10276400b96cb86a09f084fefb695b889bb223f0fc
:102774000f030f331b115b00ba6c1344bb641fe0df
:102784003b8b03f00f03002b01d0052353e0fb69bf
:102794005b889bb20733db101a46b96cb86a09f040
:1027a40067fefb695b889bb223f00f030f331b1199
:1027b4005b00ba6c1344bb6402e018233be000bf27
:1027c400012387f82f3026e0fb8e002b03d1bb6c4e
:1027d4000233bb641ce0fb695b889bb203f00f030c
:1027e400002b0cddfb695b889ab23b8b13449bb2d4
:1027f40003f00f03002b02d1bb6c0233bb64fb69f3
:102804005b889bb21b099bb25b00ba6c1344bb642c
:10281400182387f82e30fb8e0133fb86fa8e3b8e0d
:102824009a427ff65fad97f82f30002b02d197f8cc
:102834002e3000e0002318463c37bd4690bd00bf53
:020000040000fa
:1028440090b593b002afba607b600346fb810b4640
:102854007b737b7bfb877b689b891b12dbb203f05a
:102864000f0387f82a307b689b89dbb2bb877b7bad
:102874007b8797f82a30072b08d0fb89b3f5805f54
:1028840004d37b689b691b88dbb2bb8797f8543001
:10289400002b0cd097f82a30072b03d0fb89b3f513
:1028a400805f01d2052302e3bb8f7b872ee07b7b15
:1028b4009bb2ba8f9a4201d21123f8e2fb8fdbb2aa
:1028c4001946786808f04bf978627b6a9b889bb25a
:1028d400002b19d07b6a9b889bb2dbb25b00dbb216
:1028e40003f00e02a04b1b7803f00f031340002be0
:1028f4000cd17b6a9b889bb203f00703002b01d1a8
:102904000623d4e21a23d2e20523d0e27b68db69f2
:10291400002b0bd07b68dc69797bf88997f85430fd
:1029240000933b6dba68a0470346c0e2fb89b3f548
:10293400805f7cd27b7b002b79d07b689b697b6337
:102944007b7b1946786808f00af978627b6a5b88b1
:102954009bb20733db107b847b6bfb617b7b03f1d6
:102964008043013b9b00fa6913441b687b637b6bc8
:1029740003f00103002b43d000237b867b6b23f001
:1029840001037b6300237b861be07b6b1b881b0a94
:102994009ab23b6d1a803b6d1b881ab27b6b023373
:1029a4001b881b021bb213431bb29ab23b6d1a80e5
:1029b4003b6d02333b657b6b02337b637b8e013360
:1029c4007b867b8c5b089bb27a8e9a42ddd37b8cb0
:1029d40003f001039bb2002b00f067823b6d1b8860
:1029e40023f0ff039ab23b6d1a803b6d1a887b6b10
:1029f4001b881b0a9bb213439ab23b6d1a8054e2a4
:102a04007b6b1a883b6d1a803b6d02337a6b52885c
:102a14001a803b6d04333b657b6b04337b637b8c97
:102a2400043b1a46796b386d09f022fd3de2002320
:102a340087f83130002387f830307b7bfb8728e22e
:102a44007b689b69bb610023fb85fb8f002b0bd04c
:102a5400fb89b3f5805f07d3fb8fdbb27968184637
:102a640003f002fb0346fb85fb8d1b099bb25b0055
:102a7400ba691344bb61fb8fdbb21946786808f06e
:102a84006ef878627b6a9b889bb2dbb25b00dbb238
:102a940003f00e02344b1b7803f00f031340002b9a
:102aa40000f0ab817b7b9bb2fa8f9a420ad097f8f5
:102ab4005430002b00f0ea817b7b9bb2fa8f9a4260
:102ac400c0f0e481fb8f002b0ad197f82a30072b42
:102ad40006d03b6dba8f1a803b6d02333b65d5e15e
:102ae4007b6a1a785b781b021343bb857b6a1b885d
:102af4009bb2b3f5e06f19d37b6a5b889bb2082b5a
:102b040005d87b6a5b889bb22f33bb850ee07b6a5a
:102b14005b889bb2102b02d10623bb8506e07b6a3f
:102b24005b889bb2202b01d10723bb85bb8d112b66
:102b340000f0e680112b20dc052b6ad0052b0ddc80
:102b4400022b04dc012b64da002b3dd04ae1032b79
:102b540000f0b380042b00f0bf8043e1082b05dcb8
:102b6400072b80f2b980a8e0370a0020092b00f077
:102b74000f810b2b00f33681e0e02d2b49d02d2b58
:102b840011dc1e2b45d01e2b06dc152b00f0b88063
:102b94001b2b00f0b58025e11f2b00f08e80202b2d
:102ba40000f09a801ee1372b08dc302b31da2e2b13
:102bb40000f083802f2b00f08f8013e1a3f51873ae
:102bc400032b00f20f81b9e097f85430002b1ed08c
:102bd4007b6a5b889bb203f00f03002b0cdd7b6ade
:102be4005b889ab2fb8d13449bb203f00f03002b56
:102bf40002d13b6d02333b657b6a5b889bb21b1140
:102c040003f00f035b003a6d13443b65f1e01823b6
:102c14004de10023fb827b6a5b889bb21a46a64b7c
:102c240033f812301a46fb8d03f00f0302fa03f354
:102c3400bb82bb691b88fb82fb8d03f00f03002b57
:102c440002d13b6d00221a803b6d1a883b6d1a80bd
:102c540097f85430002b0ad03b6d1a88f98abb8a46
:102c64000b409bb213439ab23b6d1a8012e03b6d4a
:102c74001b881ab2f98abb8a0b409bb21946fb8d9a
:102c840003f00f0341fa03f31bb213431bb29ab2ce
:102c94003b6d1a803b6d1a883b6d1a807b6a5b889a
:102ca4009ab2fb8d13449bb203f00f03002b40f048
:102cb4009b803b6d02333b6596e0fb8d03f00f0375
:102cc400002b01d00523f2e0bb691a883b6d1a8002
:102cd4003b6d02333b658ce0fb8d03f00f03002b4f
:102ce40001d00523e3e0bb691a883b6d1a803b6d74
:102cf4000233ba6952881a803b6d04333b6578e02d
:102d0400fb8d03f00f03002b01d00523cfe0bb693b
:102d14001a883b6d1a803b6d0233ba6952881a8057
:102d24003b6d0433ba6992881a803b6d0633ba69e5
:102d3400d2881a803b6d08333b655ae0fb8d03f063
:102d44000f03002b01d00523b1e07b6a5b889bb2a3
:102d54000733db101a46b969386d09f089fb7b6ac1
:102d64005b889bb223f00f030f331b115b003a6d9a
:102d740013443b657b6a5b889bb203f00f03002b13
:102d840034d03b6d1b88dbb29ab23b6d1a802de0c8
:102d9400fb8d03f00f03002b01d0052387e07b6a32
:102da4005b889bb20733db101a46b969386d09f0aa
:102db4005ffb7b6a5b889bb223f00f030f331b110d
:102dc4005b003a6d13443b657b6a5b889bb203f0fe
:102dd4000f03002b0cd03b6d1b88dbb29ab23b6d0a
:102de4001a8005e0182362e000bf02e000bf00e0a3
:102df40000bf012387f8313048e0002387f82b30e7
:102e0400fb8d03f00f03002b02d13b6d00221a80cf
:102e14007b6a5b889bb203f00f03002b0fdd7b6a98
:102e24005b889ab2fb8d13449bb203f00f03002b13
:102e340005d13b6d02333b653b6d00221a800023b4
:102e440087f82b300ae03b6d02333b653b6d002273
:102e54001a8097f82b30013387f82b3097f82b2002
:102e64007b6a5b889bb21b1103f00f039a42eadb77
:102e74007b6a9b889bb203f00703002b03d10623d4
:102e840087f8303002e01a2387f83030fb8f0133a3
:102e9400fb87fa8f7b8f9a427ff6d2ad97f8313059
:102ea400002b03d197f8303001e000bf002318460f
:0c2eb4004437bd4690bd00bf40c1000087
:020000040000fa
:102ec00090b591b002af7860002387f837307b6807
:102ed0001b899bb287f8223097f8223023f01f031a
:102ee00087f821307b681a785b781b021343fb83d9
:102ef000002387f8363000233b630023fb62ae4b90
:102f00001b78002b01d00923a9e297f82130202b50
:102f10000bd0202b03dc002b00f0698283e2402bd6
:102f200003d0602b00f063827de27b685b899bb2fb
:102f3000dbb2bb83bb8b1b02bb837b681b899bb251
:102f40001b0a9ab2bb8b1344bb837b685b899bb221
:102f50001b0a9bb2fb76bb8b184608f01dfd7861ff
:102f60007b69002b00f03f82002387f82b30002381
:102f70007b62002387f823307b699b89fb74fa7e90
:102f8000fb7c9a4203d9112387f837300ce097f87d
:102f9000223003f01003dbb2f97eb88b7a6904f0bb
:102fa00007fb38633b6bfb6297f83730002b32d15d
:102fb00097f82130402b28d1fb8b0a2b01d0082316
:102fc0004de23b6b042b10d83b6b002b0dd0012343
:102fd00087f82b307b680c337b627b6a00221a8077
:102fe0007b6a023300221a8015e0744b1b88103b69
:102ff000fb62fa6a3b6b9a4203d2012387f82330c3
:1030000009e07b6810337b6205e097f8223003f01b
:10301000020387f82b3097f83730002b44d197f80c
:103020002130202b40d197f82b30002b10d0fb8b78
:103030000a2b01d0082312e297f822309b1003f0ec
:103040000303c3f10403fb627b680c337b622be058
:103050007b68db899bb21b047a68928992b2134425
:10306000fb60fb681033564a1288934207d9fa8beb
:10307000534b1b88063b9a4208d00823efe1fa8b9a
:10308000fb680a339a4201d00823e8e17b681033d9
:103090007b62fb68fb62fb8b0a3b1a46fb6a9a4227
:1030a00002d2012387f8233097f83730002b0ed156
:1030b00097f8223003f01003002b08d0012387f883
:1030c0003630fb7e012b02d9052387f8373097f87d
:1030d0003730002b40f0ab8197f82330002b00f005
:1030e000d980384b01221a70374b01221a70374aa7
:1030f00097f836301370364abb8b1380354afb7e07
:103100001370354a7b69136097f82130402b03d147
:10311000324a3b6b136002e0304afb6a1360304b6b
:103120001b68002b07d02e4b1b68184609f052fa7b
:103130002b4b00221a60294b1b68013323f001033b
:10314000184609f03ffa03461a46254b1a60244bed
:103150001b68002b0bd197f83630002b03d00523ca
:1031600087f8373063e1042387f837305fe197f859
:103170002130402b7ad11a4b1b68f97eb88b97f817
:103180003620019200937b693a6bfff75bfb0346a5
:1031900087f8373097f83730002b25d17b6803f15b
:1031a00010000f4b1b68fa6a194609f063f90d4bc2
:1031b00060221a706ae000bfeb390020240b002067
:1031c000360b0020f52b0020022c0020f42b0020d1
:1031d000182c0020302c00202c2c0020f82b002054
:1031e000142c0020032c002097f83730ff2b4dd1f2
:1031f0009d4b04221a709d4a97f8363013709c4af2
:10320000fb7e13709b4abb8b13809b4a3b6b136006
:103210009a4b1b689a4a13607b69db69994a136071
:10322000994b01221a70994a7b681360974b1b686f
:10323000964a1268128992b222f0ff0292b21a8163
:10324000924b1b68914a1268128992b211b297f898
:10325000222012b202f0f00212b20a4312b292b26b
:103260001a818b4b60221a700023f8e0834b186898
:103270007b6803f11001fb8b0a3b1a4609f0faf850
:10328000834b00221a70fb8b0a3bfb62814afb6a6c
:103290001360cce03b6b002b08d17f4abb8b1380c3
:1032a0007e4afb7e13707e4a7b69136097f821305b
:1032b000402b4cd1f97eb88b97f8363001937b6a5e
:1032c00000937b693a6bfff7bdfa034687f8373006
:1032d00097f83730ff2b40f0aa80634b03221a7017
:1032e000624a97f836301370614afb7e1370614a68
:1032f000bb8b1380604a3b6b1360614a7b6a13602f
:103300007b69db695f4a13605f4b01221a705f4a79
:103310007b6813605d4b1b685c4a1268128992b22d
:1033200022f0ff0292b21a81584b1b68574a12686a
:10333000128992b211b297f8222012b202f0f00272
:1033400012b20a4312b292b21a81002387e0f97ec8
:10335000b88b97f8363001937b6a00937b69fa6ae1
:10336000fef7e8fe034687f8373097f83730ff2b33
:103370005dd13d4b01221a703c4a97f836301370ec
:103380003b4afb7e13703b4abb8b13803a4afb6a75
:1033900013603b4a7b6a13607b691b6a394a13607e
:1033a000394b01221a70394a7b681360374b1b680e
:1033b000364a1268128992b222f0ff0292b21a8142
:1033c000324b1b68314a1268128992b211b297f8d7
:1033d000222012b202f0f00212b20a4312b292b2ea
:1033e0001a8100233be0082387f837301fe0284b81
:1033f0001b7897f821209a4211d197f82130002ba1
:1034000006d1786800f0c8fe034687f837300fe031
:10341000786801f0c9fb034687f8373008e00323da
:1034200087f8373004e0032387f8373000e000bf27
:1034300097f83730ff2b11d097f8223003f01003a4
:10344000dab2fb6a9cb297f8211097f837007b68d4
:1034500001933b6b0093234601f0ccfe00231846fa
:103460003c37bd4690bd00bf002c0020012c002041
:10347000342c0020322c0020102c0020142c002092
:10348000ec2b0020fc2b0020eb3900200c2c002022
:10349000032c0020f02b0020182c0020302c0020c2
:0434a0002c2c0020b0
:020000040000fa
:1034a40080b58cb000af786048f20403fb857b687c
:1034b4001b889bb2063b7b857b681b889bb2052bd4
:1034c40001d8062321e27b68db889bb2013b052bf4
:1034d40000f2f78001a252f823f000bff934000093
:1034e4006d350000b1350000073600005d36000080
:1034f40087360000984b1b88002b40f0d7807b68f0
:103504001b899bb21a467b685b899bb21b041343dd
:103514007b627b6803f10c007b6803f10c02798dfc
:103524007b6a07f069fd0346fb858c4b00221a6019
:10353400fb8d47f69572934206d8894b01221a6097
:10354400fb8d884a1360b1e0fb8d47f6fa72934213
:1035540000f2ac80824b00221a60824b00221a6077
:103564007d4b01221a80a1e07b4b1b88002b40f08d
:103574009f807b681b899bb21a467b685b899bb2e0
:103584001b0413433b627b680c33798d3a6a1846fb
:1035940008f0acf90346fb85fb8d002b02d147f6fe
:1035a400fd73fb856e4b00221a6081e06a4b1b8819
:1035b400022b03d0684b1b88062b7bd17b681b89ad
:1035c4009bb21a467b685b899bb21b041343fb6165
:1035d400634b1b68fa699a420fd17b680c337a8d6e
:1035e4001146184606f0cefe0346fb85fb8d002be4
:1035f40060d147f6fd73fb855ce048f20503fb856b
:1036040058e0554b1b88012b1ed1564b1a687b681a
:103614000c331946104608f085f90346fb85514bd7
:103624001b684e4a1360fb8d47f69572934243d84c
:10363400fa8d4c4b1b6813444a4a1360484b1b6871
:103644000133474a136037e0434b1b88042b33d1c3
:1036540047f6fe73fb852fe03f4b1b88002b2dd0d4
:103664007b681b899bb21a467b685b899bb21b04ef
:103674001343bb61b86908f0c7fc47f6ff73fb85c9
:103684001ce0354b1b88012b03d0334b1b88042bc8
:1036940016d17b681b8998b2304b19687b680c3350
:1036a4001a4608f03bfd0346fb8509e000bf08e02d
:1036b40000bf06e000bf04e000bf02e000bf00e07e
:1036c40000bffb8d47f69572934225d8244b1b68a7
:1036d400bb607b68002242f003029a710022da7117
:1036e400bb689ab27b681a81bb681b0c9ab27b6870
:1036f4005a81fb8d06339ab27b681a80fa8d1a4b75
:103704001b880c3b9a4203d1134b01221a80c5e05b
:10371400114b04221a80c1e0fb8d47f6fa729342e2
:1037240024d87b68002242f006029a710022da71e2
:10373400fb8da3f5ff43163b9ab27b681a817b6825
:1037440000229a720022da727b68002242f006029a
:103754001a7000225a70a1e01c0a0020280a0020d6
:10376400200a0020180a0020240b0020fb8d47f6b5
:10377400fd72934204d0fb8d47f6fc7293422bd129
:10378400644b1b68fb60634b1b680133614a136025
:103794007b68002242f004029a710022da71fb680d
:1037a4009ab27b681a81fb681b0c9ab27b685a81b7
:1037b4007b68002242f006021a7000225a70fb8dc8
:1037c40047f6fd72934203d1534b02221a8065e0ff
:1037d400514b00221a8061e0b7f92e30002b07db31
:1037e4004d4b00221a80786808f0f2fe00238ce02a
:1037f400fb8d7b61002387f82d307b68002242f02b
:1038040005029a710022da717b699ab27b681a8187
:103814007b691b0c9ab27b685a817b68002242f058
:1038240006021a7000225a701de07b6803f10c0234
:1038340097f82d305b08dbb25b0013441b887b8256
:103844007b8adbb2002b13d097f82d30013387f835
:103854002d307b8a03f47f43002b0bd097f82d3057
:10386400013387f82d3097f82d301f2bddd902e076
:1038740000bf00e000bf97f82d301f2b0bd87b68ea
:103884001b889ab297f82d309bb213449bb2013334
:103894009ab27b681a80204b00221a801f4b1b7837
:1038a400002b27d07b689b889bb2c3f30b039ab28f
:1038b4007b689a801a4b1b7803f00703002b02d114
:1038c400174b01221a707b689b889bb21ab2144b67
:1038d4001b781b031bb213431bb29ab27b689a80fa
:1038e4000f4b1b780133dab20d4b1a70786804f071
:1038f4003ffa09e04021786804f0f6ff0346002b04
:1039040002d0084a7b681360002318463037bd464e
:1039140080bd00bf200a00201c0a0020700a00207d
:08392400ac0a0020240a002077
:020000040000fa
:10392c002de9f74f01f10b05162d064606d935f09a
:10393c00070504d50c233360002445e110258d4286
:10394c00f8d3304605f00bf9b5f5fc7fa54f39d20d
:10395c0005f108023a44a2f1080154688c424fea7e
:10396c00d50302d1d468a24210d06368e268a16882
:10397c0023f00303ca60234491605a6842f00102a9
:10398c005a60304606f0a7fb08341de10233964a14
:10399c003c699442114675d0606820f00300a0eb9e
:1039ac00050ebef10f0f48dd631945f0010565608a
:1039bc007b613b61da609a604ef001025a6044f818
:1039cc0000e0dee76b0a2ad0042b12d8ab0938339f
:1039dc005a1c07ebc202a2f108005468844206d0bc
:1039ec00626822f00302511b0f291cdd013b0133dd
:1039fc00cde7142b01d85b33eae7542b02d82b0b01
:103a0c006e33e5e7b3f5aa7f02d8eb0b7733dfe72c
:103a1c0040f25452934204d8ab0c7c33d8e73f238a
:103a2c00d6e77e23d4e70029e16804dba368d960dc
:103a3c008b60a318a1e70c46d0e7bef1000f7a61aa
:103a4c003a6105db2044436843f00103436098e787
:103a5c00b0f5007f4bd2c0084feaa00e012202fa4b
:103a6c000efe7a6801304eea02027a6007ebc00261
:103a7c0057f830e0c4f808e0083ae26047f8304004
:103a8c00cef80c4001209a1000fa02f278688242bb
:103a9c0000f2ac80024206d123f003035200024232
:103aac0003f10403fad007ebc308c1469c46d9f8ce
:103abc000c404c455ad10cf1010c1cf0030f09f1d0
:103acc000809f4d19c0740f085807b6823ea020347
:103adc007b6078685200824200f28880002a00f0f5
:103aec00858063460242ded104335200fae7420a73
:103afc00042a17d88209383202f1010e07ebc20ce6
:103b0c0057f83ee0f44528d10120921000fa02f259
:103b1c00786810437860c4f80cc0c4f808e0ccf89e
:103b2c000840ade7142a01d85b32e5e7542a02d8e5
:103b3c00020b6e32e0e7b2f5aa7f02d8c20b7732e5
:103b4c00dae740f2545e72459abf820c7c327e22d8
:103b5c00d2e7def808e0f44505d0def8042022f0c8
:103b6c0003029042f5d3def80cc0d4e76068d4f8b9
:103b7c000ce020f00300a0eb050abaf10f0f12dde8
:103b8c00a268631945f001056560c2f80ce0cef837
:103b9c0008204af001027b613b61d96099605a6050
:103bac0044f800a0ede6baf1000f11db20444368a5
:103bbc0043f00103436054f8083f3046c3f80ce06f
:103bcc00cef8083006f087fa204603b0bde8f08f37
:103bdc0074466ee758f80809804503f1ff333ff44b
:103bec0071af76e75830002060300020d7f808b06d
:103bfc00dbf8044024f003094d4504d8a9eb050378
:103c0c000f2b00f394804f4a14684f4a01921168ad
:103c1c002c44013116bf8f34103424f07f040beb8d
:103c2c00090321463046009308f094fab0f1ff3fa7
:103c3c00804654d0009b019a834201d9bb454ed19a
:103c4c0042480168434521440160824613d158061d
:103c5c0011d1bb684c4444f001045c603c4adaf876
:103c6c00003011688b4288bf13603a4a11688b424e
:103c7c0088bf136033e0106801301bbfa8eb03034f
:103c8c005b18c2f80080caf8003018f007031cbf9c
:103c9c00c3f1080398444444803304f07f041c1b94
:103cac002146304608f056fa431c08bf4046daf865
:103cbc000030c7f8088008bf0024a0eb080023449c
:103ccc00044444f00104bb45caf80030c8f8044071
:103cdc00c4d0b9f10f0f10d80123c8f80430bb6859
:103cec005a6822f003029542a2eb050301d80f2b70
:103cfc001ddc304606f0eff91ee6dbf80430a9f1c6
:103d0c000c0929f0070903f0010343ea0903cbf876
:103d1c0004300beb09030522b9f10f0f5a609a60be
:103d2c009cd90bf10801304602f056fa96e7bc68b4
:103d3c0045f00102254443f001036260bd606b60f5
:103d4c001fe600bfd0390020d43900207c38002079
:083d5c00c8390020cc39002019
:020000040000fa
:103d640090b58fb002af78600023fb737b681b892a
:103d74009bb2dbb203f07f0387f82130022387f87c
:103d84002f3097f82130052b06d17b681b889bb216
:103d9400092b08d80623f2e17b681b889bb2072b0a
:103da40001d80623ebe197f82130032b00f0d180f2
:103db400052b00f0ce80012b40f0a5817b689b8908
:103dc4009bb2052b00f2a2810023bb857b689b89f3
:103dd4009bb287f820300e227968ad4808f048fb82
:103de40097f820305a1e87f82020002b22d1a94ba7
:103df40000221a80002387f82b3014e097f82b3028
:103e0400184605f005fd0346fb837b689a1d97f869
:103e14002b3004335b001344fa8b1a8097f82b3051
:103e2400013387f82b3097f82b30042be6d9122373
:103e3400bb855ae00023bb83964b1b88002b11d013
:103e4400954b1b880c3bbb857b68063306337b6232
:103e5400924b1b88bb818f4b1b88013b9ab28d4bc5
:103e64001a802ae097f82030184605f0d1fc034662
:103e7400bb834ff48053bb81874b1b880e3bbb85b0
:103e84007b68063308337b62bb8b5a00bb8d9a4236
:103e940010ddbb8d02337b83bb8b5a00bb8dd21ae2
:103ea4007b8b013b1a447b8b92fbf3f39ab2794be5
:103eb4001a8002e0774b00221a8097f8203098b2db
:103ec400ba8d07f10c0107f10f0300937b6a04f02c
:103ed400d5f90346bb85ba89704b1a806e4b1a8894
:103ee400bb8dd31a9bb2063bbb857b68ba8d1a8007
:103ef400fb7b002b40f00a817b681b899bb223f07b
:103f04007f039ab27b681a817b681b899bb243f05a
:103f140002039ab27b681a815e4b1a887b685a81c5
:103f24005c4b1b88002b00f0f1807b681b899bb2e3
:103f340023f080039ab27b681a817b681b899bb249
:103f440043f080039ab27b681a81822387f82f306a
:103f5400dce07b689b899bb2bb81bb89b3f5805f46
:103f640002d20523fb73d3e0bb89184607f012fd88
:103f740078617b69002b00f0c38000237b8497f871
:103f84002130032b26d17b6803f10e04786908f0f5
:103f94001ffa03461b682360b88900237a6900214d
:103fa40003f0b8fc03460c337b847a8c3a4b1b88b1
:103fb400063b9a4202dd0c237b8481e0b8897b684e
:103fc4000e3304337a69002103f0a4fc03460c3356
:103fd4007b8475e07b68db899bb2fb74786908f0ad
:103fe400f7f903465b889bb2bb74fa7cbb7c9a42ac
:103ff40064d87b6803f11004fb7c1946786906f0e9
:10400400aefd034606221946204608f031fa7b68c5
:10401400db899bb2dbb29ab27b68da81786908f0fb
:10402400d7f903469a78db781b0213433b823b8a19
:104034001b129bb203f00f033b823b8a082b02d076
:104044003b8a092b11d1fb7c002b0ed17b681033ea
:104054000633134a1468506891681c60586099606c
:10406400127b1a731c237b842ae0b889f97c002311
:104074007a6903f04ffc034610337b847a8c064b39
:104084001b88063b9a420ddd10237b8418e000bf99
:104094001c2c0020082c0020240b0020e82b0020de
:1040a40058390020b8897b6810330633f97c7a6963
:1040b40003f030fc034610337b8401e01123fb73cf
:1040c400fb7b002b24d17b6800229a720022da72d7
:1040d4007b687a8c1a807b681b899bb223f07f03f0
:1040e4009ab27b681a817b681b899ab297f821304f
:1040f4009bb201339bb213439ab27b681a8107e0e7
:104104000823fb7304e00323fb7302e000bf00e019
:1041140000bffb7b002b25d07b68002242f00a0203
:104124001a7000225a707b681b899bb223f07f03ac
:104134009ab27b681a817b681b899bb243f00703a0
:104144009ab27b681a817b6800229a720022da7222
:10415400fb7b1a460c4b53f822207b68da600b4b2e
:1041640000221a8097f82f301946786804f0bcfbb7
:104174000346002b02d0064a7b68136000231846ce
:104184003437bd4690bd00bf7c9f0000082c002042
:04419400140a0020e9
:020000040000fa
:10419800b0b588b002af78600023fb7500233b619f
:1041a8007b681b899bb203f010039b4a12789342e9
:1041b80002d10123fb7562e1984b1b88093bbb8147
:1041c8007b681b899bb2dbb203f01003dab2924b17
:1041d8001a70934b1b68002b00f04f81914b1a68a3
:1041e800914b1b68d31a3b617b681b899bb203f018
:1041f8000103002b2ed0ba893b699a4227d37b68ea
:104208001a785b781b0213437b817b89033b1a4630
:104218003b699a420bd37b681b899bb25b109bb2ac
:10422800db439bb203f007023b699a4208d03b6923
:10423800072b09d97b89033b1a463b699a4203d16c
:104248007a4b00221a7011e00e23fb750ee00e2344
:10425800fb750be0754b01221a70ba893b699a42cb
:1042680002d30e23fb7501e0bb893b61fb7d002b6c
:1042780040f005810023fb816b4b1b6803f00103b1
:10428800002b3dd0664b1a68674b1b685b085b00c8
:104298001344634a1168644a1268520852000a4477
:1042a8001288d2b292b21a805d4b1a685e4b1b68b4
:1042b8005b085b0013445a4a11685b4a126852084b
:1042c80052000a44128811b27a68128992b212b264
:1042d80022f0ff0212b20a4312b292b21a80504b75
:1042e8001a68514b1b685b0801335b00d0187b6868
:1042f80003f10a013b69013b1a4608f0b7f842e0ae
:10430800474b1a68484b1b685b085b0013447a6884
:10431800128992b2120a92b211b27a68528992b292
:10432800120212b20a4312b292b21a800123fb811e
:1043380023e03b4b1a683c4b1b685908fb890b442c
:104348005b001a44fb89013b796804335b000b442a
:104358005b889bb21b0a9bb219b2fb89786804334d
:104368005b0003445b889bb21b021bb20b431bb26e
:104378009bb21380fb890133fb81fa893b690133c6
:104388005b089a42d5d3294b1b78002b77d1284b51
:104398001888284b1978234b1c68274b1d68204b1d
:1043a8001b68264a1278019200932b462246fdf795
:1043b800bdfe0346fb75fb7dff2b55d1204b02222a
:1043c8001a701e4b1a781f4b1a701a4b1a781e4b0c
:1043d8001a70174b1a881d4b1a80124b1b681c4aff
:1043e80013600f4b1b681b4a1360134b1b681b6a37
:1043f800194a1360194b01221a70194a7b68136015
:104408000a4b00221a70174b00221a70064b002222
:104418001a60ff2388e000bf022c0020360b002022
:10442800142c0020f82b0020f02b0020f52b002066
:10443800182c0020302c00202c2c0020f42b0020dd
:10444800002c0020012c0020342c0020322c0020cd
:10445800102c0020ec2b0020fc2b0020eb39002036
:104468000c2c0020032c0020314b1b68184608f048
:10447800adf82f4b00221a6001e00323fb75fb7d8a
:10448800002b3bd17b68002242f00a021a700022fe
:104498005a707b68db889bb2c3f30b039ab27b68c4
:1044a800da807b68db889bb243f440539ab27b681e
:1044b800da80204b1b78002b07d07b68002242f063
:1044c80030021a7200225a7206e07b68002242f01b
:1044d80020021a7200225a72174b1b78012b06d140
:1044e800164b1a683b691344144a13601be0134bbc
:1044f80000221a60124b00221a7014e00e4b0022a0
:104508001a700f4b00221a70094b1b68002b07d03a
:10451800074b1b68184608f059f8054b00221a602b
:10452800064b00221a60fb7d18461837bd46b0bd01
:10453800142c0020022c0020f52b0020f02b00204a
:04454800032c002020
:020000040000fa
:10454c0080b586b000af0346fb710023bb7500231a
:10455c00bb8200237b82974b1b8841f6fe729342f1
:10456c0011d9944b1b8841f6fe7293420bd9914b97
:10457c001b8841f6fe72934205d98e4b1b8841f67f
:10458c00fe72934201d8142397e1002007f064fadd
:10459c00f860fb681b681b0cbb82fb681b687b828a
:1045ac00fb685b6803f48033002b02d11623bb75c8
:1045bc002be0fb685b6803f00c03042b02d0162382
:1045cc00bb7522e0fb685b6803f00203002b02d191
:1045dc001623bb7519e0bb8a212b02d81623bb7599
:1045ec0013e0bb8ab3f5807f02d91623bb750ce0b0
:1045fc007b8ab3f5805f02d21623bb7505e07b8afc
:10460c00b3f5005f01d31623bb75bb7d002b3fd1e7
:10461c00012007f021faf860fb681b681b0cbb82b9
:10462c00fb681b687b82fb685b6803f48033002ba0
:10463c0002d11623bb752be0fb685b6803f00c03ff
:10464c00002b02d01623bb7522e0fb685b6803f0dd
:10465c000203002b02d11623bb7519e0bb8a212b58
:10466c0002d81623bb7513e0bb8ab3f5807f02d941
:10467c001623bb750ce07b8ab3f5805f02d2162340
:10468c00bb7505e07b8ab3f5005f01d31623bb75c0
:10469c00bb7d002b6fd1fb79032b6cd9464b0122d0
:1046ac001a70032007f0d8f9f860fb681b681b0c24
:1046bc00bb82fb681b687b82fb685b6803f48033fe
:1046cc00002b05d0bb8a002b02d10423bb7548e01c
:1046dc00fb685b6803f48033002b39d0374b1b88a5
:1046ec00ba8a9a4206d1354b1b88002b02d0bb8a62
:1046fc00442b02d90323bb7533e0fb685b6803f0e2
:10470c000c03002b21d12e4b1b78022b07d17b8a5b
:10471c00b3f5805f03d37b8ab3f5005f08d3284bd6
:10472c001b78022b0ed0274b1b887a8a9a4209d110
:10473c00fb685b6803f00203002b12d01e4b0022b7
:10474c001a700ee00223bb750be00423bb7508e066
:10475c00bb8a002b03d1194b1b88002b01d00323e0
:10476c00bb75bb7d002b06d0bb7d1946032000f02a
:10477c004bfc1e23bb75bb7d002b40f08680fb7968
:10478c00022b40f28280022007f066f9f860fb6889
:10479c001b681b0cbb82fb681b687b82fb685b681d
:1047ac0003f48033002b0fd0bb8a002b0cd10423d5
:1047bc00bb7560e06a0a0020300a0020660a0020ff
:1047cc00370a0020800a0020fb685b6803f4803302
:1047dc00002b47d03b4b1b88ba8a9a423fd1394bae
:1047ec001b88002b3bd0bb8a442b38d8fb685b68fa
:1047fc0003f00c03042b2ed1334b1b78022b07d167
:10480c007b8ab3f5805f03d37b8ab3f5005f08d353
:10481c002d4b1b78022b1bd02c4b1b887a8a9a426f
:10482c0016d1fb685b6803f04003002b03d0284bc8
:10483c0001221a7002e0264b00221a70fb685b689a
:10484c0003f00203002b09d0224b00221a7005e062
:10485c000223bb750fe00423bb750ce00be00323b4
:10486c00bb7508e0bb8a002b03d1164b1b88002bb1
:10487c0001d00323bb75bb7d002b06d0bb7d194635
:10488c00022000f0c1fb1d23bb75bb7d002b13d197
:10489c00fb79fb750be0fb7d184607f0ddf8f86043
:1048ac00fb685b680c4a1360fb7d0133fb750b4b9b
:1048bc001b78fa7d9a42eed3bb7d18461837bd465d
:1048cc0080bd00bf380a0020370a0020440a0020af
:1048dc007a0a0020300a0020a83900207e0a002025
:020000040000fa
:1048ec0080b582b000af9d4b1b78002b00f032815d
:1048fc0000237b800023fb710023bb80984bb3f912
:10490c000030002b6dd1974b1b881b099bb2fb71a0
:10491c00944b1b88242b1cd0242b04dc123b012b26
:10492c0000f2058102e0482b26d000e18e4b1b786b
:10493c00002b01d107f083fe02f0e8f98b4b1b78ba
:10494c00002b03d08a4b1b88bb80f0e00123bb807b
:10495c00ede0854b1b78002b01d107f00dfe02f02a
:10496c0067fc824b1b78002b03d0814b1b88bb80d0
:10497c00dde00123bb80dae07e4b1b78002b14d0ea
:10498c007d4b1b78002b02d12d23bb801be07b4b76
:10499c001b78002b06d17a4b1b88002b02d01b23d3
:1049ac00bb8010e01a23bb800de0754b1b88002bdd
:1049bc0002d01b23bb8006e00823fb710023bb80c5
:1049cc00704b01221a70bb88002b00f0a980664b3b
:1049dc001b78002b01d107f0dffd07f0edfa00bfcb
:1049ec009ee0604b1b88242b2ad0242b04dc123b2a
:1049fc00012b00f29c8002e0482b3ed097e05a4bf2
:104a0c001b78002b00f08e80574b00221a7007f099
:104a1c00abfd03467b807b88002b09d15a4b0122ce
:104a2c001a70504b1b88dbb203f00f03fb7179e05b
:104a3c007b88ff2b76d007f002fe02f067f971e05d
:104a4c00494b1b78002b6fd0474b00221a704f48f4
:104a5c0007f0fffc03467b807b88002b05d14c4b79
:104a6c0001221a700423fb715ee07b88ff2b5bd064
:104a7c0007f082fd02f0dcfb56e03b4b1b78002b71
:104a8c0054d03c4b1b78002b2ad0424bb3f900304e
:104a9c00002b4bdd3f4bb3f900203f4bb3f90030fb
:104aac009a4243dc3b4b00221a803b4b00221a807b
:104abc002d4b00221a7007f067fd03467b807b8824
:104acc00002b05d12f4b01221a700823fb712de00e
:104adc007b88ff2b2ad007f05ffd07f06dfa25e0ed
:104aec00274b1b88002b03d0244b1b78002b1dd08d
:104afc001d4b00221a7007f047fd03467b807b8814
:104b0c00002b05d11f4b01221a700823fb710de0fd
:104b1c007b88ff2b0ad007f03ffd07f04dfa05e02c
:104b2c0000bf04e000bf02e000bf00e000bffb7963
:104b3c00002b0fd0094b00221a70bb88002b03d01e
:104b4c00fb7943f01003fb71ba88fb7911461846c8
:104b5c0001f070fd00bf0837bd4680bd640a00201f
:104b6c006e0a0020320a0020360a00203e0a00207d
:104b7c003a0a0020710a0020500a00206c0a00201a
:104b8c00380a0020720a00201a0b00204e0a00205e
:0c4b9c00780a00204a0a0020420a00208b
:020000040000fa
:104ba80090b589b000af78600023fb777b683b61e4
:104bb8007b681b7a03f010038a4a1278934202d169
:104bc8000123fb7709e10023bb61874b1b88093b65
:104bd800fb817b681b7a03f01003dab2814b1a70f1
:104be800fa89824b1b681a44814b1b689a4209d97f
:104bf8007f4b1a687d4b1b68d31abb617d4b002223
:104c08001a7004e0fb89bb617a4b01221a703b6978
:104c18001b899bb2dbb29ab23b691a81734b1b6842
:104c280003f00103002b25d03b691b899bb21ab204
:104c3800714b19686d4b1b685b085b000b441b8844
:104c48001bb223f0ff031bb213431bb29ab23b699a
:104c58001a813b6903f10a00674b1a68634b1b68aa
:104c68005b0801335b00d118bb69013b1a4607f0aa
:104c7800fdfb46e00023fb825c4b1b685b08bb60c6
:104c88003b691b899bb21ab25b4b1968574b1b686f
:104c98005b085b000b441b881b021bb213431bb24f
:104ca8009ab23b691a810023fb8225e0fb8a524aab
:104cb8001168f88aba68024452000a441288120a33
:104cc80092b211b24c4a1068fc8aba682244013286
:104cd800520002441288120212b222f0ff0212b2eb
:104ce8000a4312b291b23a6904335b0013440a468c
:104cf8005a80fb8a0133fb82fa8abb695b089a42b5
:104d0800d4d33b69db889bb2c3f30b039ab23b69ec
:104d1800da803b69db889bb243f440539ab23b6923
:104d2800da803b691b899bb223f0ff039ab23b6987
:104d38001a81304b1b78002b0ad03b691b899ab229
:104d4800284b1b789bb213439ab23b691a810ce03b
:104d58003b691b899ab2234b1b7843f00103dbb2f2
:104d68009bb213439ab23b691a81bb69062b15d8cb
:104d78003b69002242f00a021a7000225a703b690d
:104d88001b899ab2bb699bb2c3f107039bb25b0054
:104d98009bb213439ab23b691a8105e0bb699bb287
:104da80003339ab23b691a80124b1b78012b06d148
:104db8000e4b1a68bb6913440c4a13600de00e4b86
:104dc8001b68184607f002fc0b4b00221a60074bc1
:104dd80000221a60094b00221a70fb7f18462437fc
:104de800bd4690bd022c0020240b0020f02b002093
:104df800f82b0020f52b0020142c0020032c002079
:020000040000fa
:104e080080b586b000af786000237b617b689b69c2
:104e1800dab213469b001344db0018467b689b6993
:104e28001b0adbb2754a6c2101fb03f313440c33f4
:104e38001b6803443b613b691b881a466c2303fbd0
:104e480002f36e4a1344fb60fb6800221a64fb6895
:104e580000225a647b681a697b68db689a4207d328
:104e68007b681a697b68db68d21afb681a6406e0fb
:104e78007b68da687b681b69d21afb685a64fb682e
:104e880093f92c30dbb27a685d49184606f098fb36
:104e9800fb6893f92d30dbb27a685a49184606f058
:104ea8008ffb3b699b69002b0ed1fb6893f92d3072
:104eb8000021184606f064fbfb6893f92c300021aa
:104ec800184606f05dfb24e03b699b69082b10d867
:104ed800fb6893f92d304ff48071184606f050fbab
:104ee800fb6893f92c304ff48071184606f048fba4
:104ef8000fe0fb6893f92d304ff40071184606f067
:104f08003ffbfb6893f92c304ff40071184606f00c
:104f180037fb7b681b69002b1ad1fb6893f92d308e
:104f280000220021184606f0adf8fb685b6c7b6137
:104f3800fb6800225a64fb6893f92d30d8b2fb68ed
:104f4800596bfb6803f13c027b6901f037fe14e002
:104f5800fb6893f92d304ff400620021184606f0e3
:104f680091f8fb6893f92d30d8b2fb68596b7b68d0
:104f78005a687b681b6901f021fe7b68db68002b9f
:104f880018d1fb6893f92c3000220021184606f04e
:104f980079f8fb681b6c7b61fb6800221a64fb686c
:104fa80093f92c30d8b2fb681a6b7b69164901f06b
:104fb80005fe1ee0fb6893f92c3000224ff4806157
:104fc800184606f05ff8fb685b6c002b03d07b6823
:104fd8001b697b6102e07b68db687b61fb6893f996
:104fe8002c30d8b27b689968fb681a6b7b6901f032
:104ff800e5fd00bf1837bd4680bd00bfe83700207b
:0c500800fd9a0000e55b0000b0380020bd
:020000040000fa
:1050140080b584b000af03460a46fb711346bb71ea
:1050240007f005faf860fb68002b00f0d780bb7925
:10503400013bbb71fb685b889bb2dbb29ab2fb6835
:105044005a80fb685b889bb21ab2b979fb799b00e2
:105054000b441b021bb213431bb29ab2fb685a8067
:10506400fb79022b02d0032b48d08de0bb79032bb4
:1050740000f2958001a252f823f000bf9150000085
:1050840091500000b1500000c3500000fb680022a2
:105094001a71002242f010025a71fb684ff0ff327d
:1050a4009a71002242f01f02da7126e04d4b1a88f1
:1050b400fb689a804b4b1a88fb68da801de0494be9
:1050c4001b88002b0ed0fb68002242f00a021a71e2
:1050d40000225a71fb68002242f001029a710022f8
:1050e400da7109e0fb6800221a7100225a71fb6828
:1050f40000229a710022da7100bf50e0bb79032bc1
:105104004fd801a252f823f01d5100001d51000098
:105114003d5100004f510000fb6800221a7100222b
:1051240042f010025a71fb684ff0ff329a7100226c
:1051340042f01f02da7126e02b4b1a88fb689a8032
:10514400294b1a88fb68da801de0274b1b88002b4b
:105154000ed0fb68002242f00e021a7100225a712e
:10516400fb68002242f001029a710022da7109e020
:10517400fb6800221a7100225a71fb6800229a719e
:105184000022da7100bf0ce0fb6800221a710022d1
:105194005a71fb6800229a710022da7102e000bfa2
:1051a40000e000bffb6800221a70002262f05f0278
:1051b4005a70fb685b889bb223f0ff039ab2fb68ca
:1051c4005a80fb685b889ab2084b1b789bb21343e6
:1051d4009ab2fb685a80f86804f092f900bf10375d
:1051e400bd4680bd380a0020660a0020370a002028
:020000040000fa
:1051f40090b583b000af0446084611461a462346cc
:10520400fb710346bb710b467b7113467b80bb79f4
:10521400602b0ad0bb79002b07d0fb691b899bb29a
:1052240023f0ff039ab2fb691a81fb79002b40f04b
:105234008580fb69db889bb2c3f30b039ab2fb69dd
:10524400da80fb69db889bb243f440539ab2fb6972
:10525400da80bb79402b4bd1bb69042b22d8bb69c4
:10526400002b1fd0fb69002242f00a021a700022b0
:105274005a70fb691b899ab27b7943f00303dbb252
:1052840019b2bb69dbb2c3f104039b001bb20b432d
:105294001bb29bb213439bb243f040039ab2fb6927
:1052a4001a8170e07a88bb699a4205d27b880a33f6
:1052b4009ab2fb691a8005e0bb699bb20a339ab2c1
:1052c400fb691a80bb699ab2fb699a81bb691b0ca2
:1052d4009ab2fb69da81fb691b899ab27b7943f044
:1052e4004103dbb29bb213439ab2fb691a814ae0d1
:1052f400bb79002b0fd1fb69002242f00a021a701d
:1053040000225a70fb691b899bb243f020039ab2b6
:10531400fb691a8137e0bb79602b34d0fb6900222a
:1053240042f00a021a7000225a70fb691b899bb270
:1053340043f060039ab2fb691a8124e0fb690022fe
:1053440042f00a021a7000225a70fb69db889bb291
:10535400c3f30b039ab2fb69da80fb69db889bb267
:1053640043f400539ab2fb69da80fb691b899bb250
:1053740043f080039ab2fb691a81fb79094a52f817
:105384002320fb69da600221f86903f0adfa0346d1
:10539400002b02d0044afb69136000bf0c37bd46e2
:0c53a40090bd00bf7c9f0000140a002098
:020000040000fa
:1053b00080b483b000af03460a46fb801346bb802f
:1053c000bb88222b00f2be8001a252f823f000bf5e
:1053d0005d54000061540000cf54000003550000ec
:1053e0004555000045550000455500004555000055
:1053f0004555000045550000455500004555000045
:105400004555000045550000455500004555000034
:105410004555000045550000455500004555000024
:105420004555000045550000455500004555000014
:105430004555000045550000455500004555000004
:1054400045550000455500004555000045550000f4
:105450004555000045550000ad540000002372e0a2
:10546000fb8841f6324293420bd13a4b1b88002b0a
:1054700007d0394b9b8903f00203002b01dd002389
:1054800061e0fb8841f63342934254d1334b9b8910
:1054900003f00203002b4edd2e4b1b88002b4ad15c
:1054a0002f4b1b88002b46d000234ce0fb8841f695
:1054b0003342934241d1294b9b8903f00203002bd5
:1054c0003bdd244b1b88002b37d000233be0fb88bf
:1054d00041f63242934207d11f4b9b8903f00403ec
:1054e000002b01dd00232ee0fb8841f6334293427e
:1054f00025d11a4b9b8903f00403002b1fdd0023e9
:1055000021e0fb8841f63242934207d1124b9b893e
:1055100003f00803002b01dd002314e0fb8841f6b3
:10552000334293420dd10d4b9b8903f00803002bae
:1055300007dd002307e000bf04e000bf02e000bf7a
:1055400000e000bf122318460c37bd465df8047b0f
:10555000704700bf380a0020840b0020400b002059
:04556000660a0020b7
:020000040000fa
:1055640080b584b000af0023bb814ff48033bb60af
:1055740003f0b4fd5e4b1b78002b09d007f1080340
:10558400042240f60c01184603f054fbbb68bb60d0
:1055940006f0bbfc0346fb81fb8903f00103002bef
:1055a40018d0544b1b78002b14d100237b603b1d77
:1055b40004224ff49071184603f03cfb7b68bb81d6
:1055c400fb8923f01103fb81bb89dbb20021184660
:1055d400fcf7e6f9fb8903f01003002b1cd0454bc4
:1055e4001b78002b18d1444b1b7803f01003002bbd
:1055f40012d1414b1b7823f01003012b0cd0fb89f3
:1056040023f01003fb813c4b1b7803f00f03dbb248
:1056140000211846fcf7c4f9364b1b78002b01d047
:10562400fff762f9324b1b78002b5cd0bb6803f4a4
:105634008033002b08d1304b1b7803f00f03dbb20f
:1056440000211846fcf7acf9fb8903f40073002b26
:105654000fd02a4b00221a60294b1b8804221946ba
:10566400264803f019fafb8923f40073fb8101f047
:105674000bffbb6803f40033002b03d0214b1b78d2
:10568400002b08d0bb6803f40033002b1cd11d4b46
:105694001b78002b18d004f0b9fb1a4b1b78002b95
:1056a40004d0bb6843f00073bb6003e0bb6823f025
:1056b4000073bb60bb68bb6007f10803042240f6bb
:1056c4000c01184603f0e8f906f01ffc0346fb81c1
:1056d400fb8903f48073002b05d0fb8923f48073ca
:1056e400fb8101f05df800bf1037bd4680bd00bfef
:1056f4001a0b0020640a0020370a0020540a0020f4
:085704002e0b0020380b0020e1
:020000040000fa
:10570c0090b583b000af624b5b6803f470637b6051
:10571c005f4bdb6903f00103012b24d15c4bdb688d
:10572c009bb23b605b4b5a695a4bdb689a421ad26c
:10573c007b68002b0bd1574b5a68564b5b69591c35
:10574c005448416113443a68d2b21a700be0514b81
:10575c005a68504b5b69591c4e4841615b001344bd
:10576c003a6892b21a804a4bdb6903f00203022baf
:10577c0060d1474b02225a617b68002b1ed1454bee
:10578c009a69444b9b689a420bd24148414b1a6828
:10579c00404b9b69591c3f4ca16113441b7803611e
:1057ac002be03c4b1b69002b27d0394bff221a6195
:1057bc00384b1b69013b374a13611ee0354b9a6924
:1057cc00344b9b689a420cd23148324b1a68314b9d
:1057dc009b69591c2f4ca1615b0013441b8803610e
:1057ec000be02c4b1b69002b07d0294bff221a61b5
:1057fc00284b1b69013b274a1361264b9a69254ba1
:10580c009b689a420ad1234b1b69002b06d1224b71
:10581c0001221a701e4b214a1a600be01d4b5a696b
:10582c001c4bdb689a4205d1194b01225a61184b6b
:10583c0002229a61184b1b78002b1ed0144bdb698b
:10584c0003f00403042b18d1124b5a69114bdb687b
:10585c009a4212d10f4b00221a770d4b07225a6134
:10586c000d4b00221a700b4b1b6a002b05d0094bf9
:10587c001b6a084a526a10469847074b1b78002b44
:10588c0002d0034b04229a6100bf0c37bd4690bd79
:10589c000034004200010020e43900200200000125
:020000040000fa
:1058ac0080b588b000af03463960fb800023bb6134
:1058bc003b687b61fb88002b02d04ff0ff33b2e0da
:1058cc00fb885b4a6c2101fb03f313441b78002b10
:1058dc0002d04ff0ff33a6e0fb886c2202fb03f3ef
:1058ec00534a1344bb61bb6968333b613b6901227a
:1058fc001a700123012b02d04ff0ff3393e0bb69e8
:10590c006933fb60fb6801221a700123012b02d062
:10591c004ff0ff3387e0bb696a33bb60bb68012281
:10592c001a700123012b02d04ff0ff337be0bb69cf
:10593c0001221a707b691a68bb695a617b699b6a80
:10594c001a46bb699a617b695a6abb69da61bb69a1
:10595c0000221a627b691a69bb69da607b695a6931
:10596c00bb699a60bb6900225a60bb6901229a84a8
:10597c00bb694ff0ff329a62bb69002283f8262084
:10598c00bb6900225a707b6993f90420bb6983f8c8
:10599c002c207b6993f90520bb6983f82d207b694a
:1059ac009a68bb691a637b69da68bb695a637b695d
:1059bc009a69bb699a647b69da69bb69da647b6949
:1059cc001a6abb691a657b69da6abb699a65bb6935
:1059dc00002283f86020bb6900225a660023fb6119
:1059ec0007e0144afb691344ff221a70fb69013368
:1059fc00fb61fb691f2bf4d9bb6993f92c30b3f114
:105a0c00ff3f05d0bb6993f92d30b3f1ff3f06d1b1
:105a1c00bb695b69db68ba69114607489847bb6983
:105a2c0002221a74fb8818462037bd4680bd00bf81
:0c5a3c00e8370020b038002001710000a5
:020000040000fa
:105a480080b58cb000af03460a46fb8013467b71d5
:105a58000023bb62fb88002b02d04ff0ff33b7e076
:105a6800fb886c2202fb03f35b4a1344bb62bb6aec
:105a780068333b624ff6ff73fb833b6a1b78012b4d
:105a880004d13b6a00221a70012300e00023002b96
:105a980002d14ff0ff339be0bb6a93f91030022b21
:105aa80006d1bb6a1b7883f00103dbb2002b08d058
:105ab800bb6a6833bb61bb6901221a704ff0ff33c0
:105ac80086e0bb6a5b78002b08d0bb6a68337b61d1
:105ad8007b6901221a704ff0ff3379e0bb6a5b687b
:105ae800002b0dd07b7903f00803002b08d0bb6a8c
:105af80068333b613b6901221a704ff0ff3367e05e
:105b08000023fb6257e0fa6a13469b001344db004c
:105b18001a46bb6adb6813447b627b6adb7883f0d6
:105b28000103dbb2002b43d07b6a0122da707b7958
:105b380003f00803002b02d0bb6a01225a70bb6a2b
:105b48005b685a1cbb6a5a60bb6a9b8cfa88d1b2e4
:105b5800fa6ad2b2184605f099ff02467b6a5a6281
:105b6800bb6a9b8c184605f0a7ff03461a46bb6a1a
:105b78009a84bb6a6833fb60fb6801221a707b79e0
:105b880043f00403dab27b6a9a707b6a00225a6097
:105b98007b6a00229a607b6aff221a777b6a00225e
:105ba80083f820207b6afa881a807b6a5b6a0fe098
:105bb800fb6a0133fb62bb6a9a68fb6a9a42a2d10c
:105bc800bb6a6833bb60bb6801221a704ff0ff33b1
:0c5bd80018463037bd4680bde83700207d
:020000040000fa
:105be40080b588b000af03463960fb713b68fb6148
:105bf400fb699b69dab213469b001344db00184629
:105c0400fb699b691b0adbb2584a6c2101fb03f355
:105c140013440c331b680344bb61bb691b881a46dd
:105c24006c2303fb02f3514a13447b617b695b6c75
:105c3400002b27d07b6993f92d30002200211846d0
:105c440005f022fa7b6993f92d30d8b27b69596b40
:105c54007b6903f13c027b695b6c00f0b1ff7b69fb
:105c640093f92c30d8b2fb699a68fb691b69d11887
:105c74007b691a6b7b695b6c00f0a2ff7b69002275
:105c84005a646ee000bf7b695b699b689847034672
:105c9400002bf8d1bb6993f91c30b3f1ff3f10d04e
:105ca400bb695b7f002b06d1bb6993f91c30184696
:105cb40006f082fa05e0bb6993f91c30184606f039
:105cc40089fabb695a6afb699b699a4232d1fb79aa
:105cd400012b03d1fb6901221a7505e0fb79022b24
:105ce40002d1fb69ff221a75fb691b7dfb74fb69fa
:105cf400db69fb60786905f030fabb695b68002bef
:105d04001bd07b6993f826300133dab27b6983f8c0
:105d14002620bb695b68ba69926897f91300f96831
:105d240098477b6993f82630013bdab27b6983f8a4
:105d3400262002e0786905f010fa786906f0bdf9ca
