:020000040000fa
:10000000f0ff022001d80000fdf6000003f7000019
:100010000ff7000015f700001bf7000000000000bc
:1000200000000000000000000000000027a8000001
:1000300009f700000000000027a80000fdec000008
:1000400027a8000027a8000027a8000027a8000074
:1000500027a8000027a8000027a8000027a8000064
:1000600027a8000027a8000027a8000027a8000054
:1000700079ec0000a5ec000027a8000027a80000ec
:1000800027a8000027a8000027a80000d1ec000046
:1000900027a8000027a8000027a8000027a8000024
:1000a00027a8000027a8000027a8000027a8000014
:1000b00027a8000027a8000027a800000ff60000ce
:1000c0001df6000027a8000027a8000027a80000b0
:1000d00027a8000027a8000027a8000027a80000e4
:1000e00027a8000027a80000000000000000000072
:1000f0000000000027a8000027a8000027a8000093
:1001000027a8000027a8000027a8000027a80000b3
:1001100027a8000027a8000027a8000027a80000a3
:1001200027a8000027a8000027a8000027a8000093
:1001300027a8000027a8000027a8000027a8000083
:1001400027a8000027a8000027a8000027a8000073
:1001500027a8000027a80000000000000000000001
:10016000000000000000000000000000000000008f
:10017000000000000000000000000000000000007f
:1001800027a8000027a8000027a8000027a8000033
:100190000000000027a8000027a8000027a80000f2
:1001a00027a8000027a8000027a8000027a8000013
:1001b00027a8000027a8000027a8000027a8000003
:1001c00027a8000027a8000027a8000027a80000f3
:1001d00027a8000027a8000027a8000027a80000e3
:1001e00027a8000027a8000027a8000027a80000d3
:1001f00027a8000027a8000027a8000027a80000c3
:1002000027a80000000000000000000027a8000050
:1002100027a8000027a8000027a8000027a80000a2
:1002200027a8000027a8000027a8000027a8000092
:1002300027a8000027a8000027a8000027a8000082
:1002400027a8000027a8000027a8000027a8000072
:1002500027a8000027a80000b982000027a80000f6
:020000040000fa
:10026000f8b500bff8bc08bc9e46704799e4000092
:10027000f8b500bff8bc08bc9e46704775e40000a6
:020000040000fa
:10028000b05200201c000000000000006851002057
:100290006c00000000000000505200202000000010
:1002a000000000004b52002001000000010000008f
:1002b00001000000055300200100000001000000c3
:1002c00001000000000000201c00000000000000f1
:1002d000705200202000000000000000905200201a
:1002e00020000000000000001c0000202000000092
:1002f000000000003c000020c000000000000000e2
:10030000e25200200200000000000000065300201e
:100310000100000000000000fc0000202800000098
:1003200000000000240100200c000000000000007c
:10033000d45100202800000000000000d850002008
:1003400090000000000000003001002008000000c4
:100350000000000007530020010000000000000022
:100360003801002000080000000000006853002051
:1003700001000000000000002452002027000000bf
:100380000100000000000000000001000002000069
:100390000100000400000000000000000000000058
:1003a00000000000000300000100000038090020e8
:1003b00002000000000000001853002008000000a8
:1003c00000000000c04f00201801000001000000e4
:1003d000000000000000000001162100800900005c
:1003e0007868000054300000d04500200000000074
:1003f00000000000000000000000000000000000fd
:10040000001a210080090000806b0000f436000013
:10041000d4470020000000000000000000000000a1
:100420000000000000000000121c0600010800008f
:1004300078f6000030f30000305300200000000088
:1004400000000000000000000000000000000000ac
:10045000131c06000108000084f600004cf30000a5
:1004600034530020000000000000000000000000e5
:10047000000000000000000000602a008009000069
:10048000886e0000144f0000d849002000000000d2
:10049000000000000000000000000000000000005c
:1004a00010702a008009000090710000f4490000db
:1004b000dc4b0020000000000000000000000000f5
:1004c0000000000000000000ffff0000000000002e
:1004d000000000000000000000000000000000001c
:1004e0000000000000000000ac3d002004000000ff
:1004f00001000000891300002653002002000000c4
:1005000000000000cc520020160000000100000096
:1005100053414d4435312045746865724341542040
:10052000536c617665000000145300200400000045
:1005300001000000312e30004c5200200400000069
:1005400001000000312e3000e452002014000000b1
:100550000100000004000000d804000053920000d5
:1005600001000000010000002053002006000000f0
:1005700001000000040002010403000028530020d1
:100580000400000000000000e04d0020e001000039
:100590000100000000000000000000000010070043
:1005a00000070000c4f6000090f60000ac3d0020fb
:1005b000000000000000000000000000000000003b
:1005c000000000000110050000070000ccf600004c
:1005d00060f500002653002000000000000000002d
:1005e00000000000000000000000000008100900ea
:1005f00000070000d4f600009cf60000cc5200205a
:1006000000000000000000000000000000000000ea
:10061000000000000910090000070000dcf60000df
:10062000ecf4000014530020000000000000000063
:100630000000000000000000000000000a10090097
:1006400000070000e4f6000000f500004c52002016
:10065000000000000000000000000000000000009a
:1006600000000000181023000409000060f10000e1
:1006700024e70000e4520020000000000000000019
:10068000000000000000000000000000f1102a003f
:100690000209000014f5000074e500000853002072
:1006a000000000000000000000000000000000004a
:1006b00000000000f8101b0000070000ecf600002e
:1006c00028f50000185300205dd80000000000004d
:1006d000000000000000000000000000001c0500f9
:1006e00004080000a8f600003cf50000205300209c
:1006f00000000000000000000000000000000000fa
:1007000000000000321c29002009000028bc000065
:1007100048aa0000f01c00200000000000000000bb
:10072000000000000000000000000000331c290051
:100730002009000028bc000048ab0000ac1c0020d1
:1007400000000000000000000000000000000000a9
:1007500000000000ffff000000000000000000009b
:100760000000000000000000000000000000000089
:10077000000000003c09002008000000000000000c
:10078000695300200100000000000000440900201f
:100790003c12000000000000801b0020040000004c
:1007a00000000000841b0020160000000000000074
:1007b0002c53002004000000000000006a530020b9
:1007c00001000000000000009c1b002052000000ff
:1007d00000000000f01b00202800000000000000c6
:1007e000181c0020940000000000000008530020a6
:1007f0000c000000010000000200000001000000e9
:1008000004000000f85200200d000000010000006c
:10081000537562496e646578203030300000000006
:10082000ac1c00208e00000000000000d04500201d
:100830000402000001000000800000002001107090
:10084000200210702003107020041070200510701a
:1008500020061070200710702008107020091070fa
:10086000200a1070200b1070200c1070200d1070da
:10087000200e1070200f10702010107020111070ba
:10088000201210702013107020141070201510709a
:10089000201610702017107020181070201910707a
:1008a000201a1070201b1070201c1070201d10705a
:1008b000201e1070201f107020201070202110703a
:1008c000202210702023107020241070202510701a
:1008d00020261070202710702028107020291070fa
:1008e000202a1070202b1070202c1070202d1070da
:1008f000202e1070202f10702030107020311070ba
:100900002032107020331070203410702035107099
:100910002036107020371070203810702039107079
:10092000203a1070203b1070203c1070203d107059
:10093000203e1070203f1070204010702041107039
:100940002042107020431070204410702045107019
:1009500020461070204710702048107020491070f9
:10096000204a1070204b1070204c1070204d1070d9
:10097000204e1070204f10702050107020511070b9
:100980002052107020531070205410702055107099
:100990002056107020571070205810702059107079
:1009a000205a1070205b1070205c1070205d107059
:1009b000205e1070205f1070206010702061107039
:1009c0002062107020631070206410702065107019
:1009d00020661070206710702068107020691070f9
:1009e000206a1070206b1070206c1070206d1070d9
:1009f000206e1070206f10702070107020711070b9
:100a00002072107020731070207410702075107098
:100a10002076107020771070207810702079107078
:100a2000207a1070207b1070207c1070207d107058
:100a3000207e1070207f107020801070d44700201e
:100a4000040200000100000080000000200100609e
:100a50002002006020030060200400602005006088
:100a60002006006020070060200800602009006068
:100a7000200a0060200b0060200c0060200d006048
:100a8000200e0060200f0060201000602011006028
:100a90002012006020130060201400602015006008
:100aa00020160060201700602018006020190060e8
:100ab000201a0060201b0060201c0060201d0060c8
:100ac000201e0060201f00602020006020210060a8
:100ad0002022006020230060202400602025006088
:100ae0002026006020270060202800602029006068
:100af000202a0060202b0060202c0060202d006048
:100b0000202e0060202f0060203000602031006027
:100b10002032006020330060203400602035006007
:100b200020360060203700602038006020390060e7
:100b3000203a0060203b0060203c0060203d0060c7
:100b4000203e0060203f00602040006020410060a7
:100b50002042006020430060204400602045006087
:100b60002046006020470060204800602049006067
:100b7000204a0060204b0060204c0060204d006047
:100b8000204e0060204f0060205000602051006027
:100b90002052006020530060205400602055006007
:100ba00020560060205700602058006020590060e7
:100bb000205a0060205b0060205c0060205d0060c7
:100bc000205e0060205f00602060006020610060a7
:100bd0002062006020630060206400602065006087
:100be0002066006020670060206800602069006067
:100bf000206a0060206b0060206c0060206d006047
:100c0000206e0060206f0060207000602071006026
:100c10002072006020730060207400602075006006
:100c200020760060207700602078006020790060e6
:100c3000207a0060207b0060207c0060207d0060c6
:100c4000207e0060207f0060208000603053002004
:100c500004000000010000000100011634530020d0
:100c600004000000010000000100001ad849002023
:100c700004020000010000008000000000000000ed
:100c80000000000000000000000000000000000064
:100c90000000000000000000000000000000000054
:100ca0000000000000000000000000000000000044
:100cb0000000000000000000000000000000000034
:100cc0000000000000000000000000000000000024
:100cd0000000000000000000000000000000000014
:100ce0000000000000000000000000000000000004
:100cf00000000000000000000000000000000000f4
:100d000000000000000000000000000000000000e3
:100d100000000000000000000000000000000000d3
:100d200000000000000000000000000000000000c3
:100d300000000000000000000000000000000000b3
:100d400000000000000000000000000000000000a3
:100d50000000000000000000000000000000000093
:100d60000000000000000000000000000000000083
:100d70000000000000000000000000000000000073
:100d80000000000000000000000000000000000063
:100d90000000000000000000000000000000000053
:100da0000000000000000000000000000000000043
:100db0000000000000000000000000000000000033
:100dc0000000000000000000000000000000000023
:100dd0000000000000000000000000000000000013
:100de0000000000000000000000000000000000003
:100df00000000000000000000000000000000000f3
:100e000000000000000000000000000000000000e2
:100e100000000000000000000000000000000000d2
:100e200000000000000000000000000000000000c2
:100e300000000000000000000000000000000000b2
:100e400000000000000000000000000000000000a2
:100e50000000000000000000000000000000000092
:100e60000000000000000000000000000000000082
:100e7000000000000000000000000000dc4b00202b
:100e800004020000010000008000000000000000db
:100e90000000000000000000000000000000000052
:100ea0000000000000000000000000000000000042
:100eb0000000000000000000000000000000000032
:100ec0000000000000000000000000000000000022
:100ed0000000000000000000000000000000000012
:100ee0000000000000000000000000000000000002
:100ef00000000000000000000000000000000000f2
:100f000000000000000000000000000000000000e1
:100f100000000000000000000000000000000000d1
:100f200000000000000000000000000000000000c1
:100f300000000000000000000000000000000000b1
:100f400000000000000000000000000000000000a1
:100f50000000000000000000000000000000000091
:100f60000000000000000000000000000000000081
:100f70000000000000000000000000000000000071
:100f80000000000000000000000000000000000061
:100f90000000000000000000000000000000000051
:100fa0000000000000000000000000000000000041
:100fb0000000000000000000000000000000000031
:100fc0000000000000000000000000000000000021
:100fd0000000000000000000000000000000000011
:100fe0000000000000000000000000000000000001
:100ff00000000000000000000000000000000000f1
:1010000000000000000000000000000000000000e0
:1010100000000000000000000000000000000000d0
:1010200000000000000000000000000000000000c0
:1010300000000000000000000000000000000000b0
:1010400000000000000000000000000000000000a0
:101050000000000000000000000000000000000090
:101060000000000000000000000000000000000080
:101070000000000000000000000000000000000070
:1010800000000000000000000000000038530020b5
:1010900004000000000000003c5300200400000099
:1010a0000100000001000000405300200400000087
:1010b0000000000044530020040000000000000075
:1010c0004853002004000000000000006b53002083
:1010d00001000000000000006c530020010000002f
:1010e000000000003c1d0020162000000000000051
:1010f0006d5300200100000000000000543d00205e
:101100004d00000000000000a43d00200100000090
:1011100000000000fc51002028000000000000003a
:101120004c53002004000000000000005053002039
:1011300004000000000000005453002004000000e0
:1011400000000000c8410020080400000100000069
:101150000000000000000000c8410020c84100203d
:10116000d0410020d0410020d8410020d8410020ab
:10117000e0410020e0410020e8410020e84100205b
:10118000f0410020f0410020f8410020f84100200b
:1011900000420020004200200842002008420020b7
:1011a0001042002010420020184200201842002067
:1011b0002042002020420020284200202842002017
:1011c00030420020304200203842002038420020c7
:1011d0004042002040420020484200204842002077
:1011e0005042002050420020584200205842002027
:1011f00060420020604200206842002068420020d7
:101200007042002070420020784200207842002086
:101210008042002080420020884200208842002036
:1012200090420020904200209842002098420020e6
:10123000a0420020a0420020a8420020a842002096
:10124000b0420020b0420020b8420020b842002046
:10125000c0420020c0420020c8420020c8420020f6
:10126000d0420020d0420020d8420020d8420020a6
:10127000e0420020e0420020e8420020e842002056
:10128000f0420020f0420020f8420020f842002006
:1012900000430020004300200843002008430020b2
:1012a0001043002010430020184300201843002062
:1012b0002043002020430020284300202843002012
:1012c00030430020304300203843002038430020c2
:1012d0004043002040430020484300204843002072
:1012e0005043002050430020584300205843002022
:1012f00060430020604300206843002068430020d2
:101300007043002070430020784300207843002081
:101310008043002080430020884300208843002031
:1013200090430020904300209843002098430020e1
:10133000a0430020a0430020a8430020a843002091
:10134000b0430020b0430020b8430020b843002041
:10135000c0430020c0430020c8430020c8430020f1
:10136000d0430020d0430020d8430020d8430020a1
:10137000e0430020e0430020e8430020e843002051
:10138000f0430020f0430020f8430020f843002001
:1013900000440020004400200844002008440020ad
:1013a000104400201044002018440020184400205d
:1013b000204400202044002028440020284400200d
:1013c00030440020304400203844002038440020bd
:1013d000404400204044002048440020484400206d
:1013e000504400205044002058440020584400201d
:1013f00060440020604400206844002068440020cd
:10140000704400207044002078440020784400207c
:10141000804400208044002088440020884400202c
:1014200090440020904400209844002098440020dc
:10143000a0440020a0440020a8440020a84400208c
:10144000b0440020b0440020b8440020b84400203c
:10145000c0440020c0440020c8440020c8440020ec
:10146000d0440020d0440020d8440020d84400209c
:10147000e0440020e0440020e8440020e84400204c
:10148000f0440020f0440020f8440020f8440020fc
:1014900000450020004500200845002008450020a8
:1014a0001045002010450020184500201845002058
:1014b0002045002020450020284500202845002008
:1014c00030450020304500203845002038450020b8
:1014d0004045002040450020484500204845002068
:1014e0005045002050450020584500205845002018
:1014f00060450020604500206845002068450020c8
:101500007045002070450020784500207845002077
:101510008045002080450020884500208845002027
:1015200090450020904500209845002098450020d7
:10153000a0450020a0450020a8450020a845002087
:10154000b0450020b0450020b8450020b845002037
:10155000c0450020c0450020585300200400000072
:1015600001000000ffffffff5c53002004000000ab
:101570000100000000000200605300200400000091
:1015800001000000b03d0020b03d00201804000024
:1015900001000000000000009c40002000410020ed
:1015a0006441002000000000000000000000000076
:1015b000000000000000000000000000000000002b
:1015c000000000000000000000000000000000001b
:1015d000000000000000000000000000000000000b
:1015e00000000000000000000000000000000000fb
:1015f00000000000000000000000000000000000eb
:1016000000000000000000000000000000000000da
:1016100000000000000000000000000000000000ca
:1016200000000000000000000000000000000000ba
:1016300000000000000000000000000001000000a9
:10164000000000000e33cdab34126de6ecde050079
:101650000b0000000000000000000000000000007f
:10166000000000000000000000000000000000007a
:10167000000000000000000000000000000000006a
:10168000000000000000000000000000000000005a
:10169000000000000000000000000000000000004a
:1019a000000000000000000000000000a83d002032
:1019b0000400000000000000645300200400000048
:1019c000000000000000000000000000222222228f
:020000040000fa
:1019d00080b590b000af0023bb8600237b86002338
:1019e0003b610023fb60002387f83f300323bb8764
:1019f00003237b8700233b870023fb864ff6ff737f
:101a00003b86a24b9a893b8e13403b86a04b9a891a
:101a10003b8e13403b869f4b00221a809e4b002238
:101a20001a7002200df08cf8f862fb6a1b689ab2fb
:101a30009a4b1a80fb6a5b6803f00203002b01d00b
:101a400001237b8703200df07bf8f862fb6a1b689b
:101a50009ab2934b1a80fb6a5b6803f00203002b77
:101a600001d00123bb878e4b1b881a468d4b1b88e8
:101a70001946bb8f03fb01f313448b4a1288934230
:101a80000add874b1b881a46874b1b881946874bf4
:101a90001b880b449a4218db814b1b881a46814bea
:101aa0001b881946bb8f03fb01f31344804a12883d
:101ab000934210dd7a4b1b881a467d4b1b881946d2
:101ac0007c4b1b880b449a4205da0221032006f066
:101ad00077f81e233ee3714b1b881a46764b1b8812
:101ae00019467b8f03fb01f313446f4a128893421c
:101af0000add6a4b1b881a466b4b1b8819466b4bd9
:101b00001b880b449a4231db644b1b881a466a4b94
:101b10001b8819467b8f03fb01f31344644a128828
:101b200093420add5d4b1b881a46614b1b881946a0
:101b3000604b1b880b449a4218db584b1b881a4693
:101b40005d4b1b8819467b8f03fb01f31344544afa
:101b50001288934210dd514b1b881a46504b1b884c
:101b60001946504b1b880b449a4205da0221022089
:101b700006f026f81d23ede207f1140304224ff4ca
:101b80001861184609f020ff7b697b617b699bb275
:101b90007b6107f1100304224ff41a61184609f023
:101ba00013ff3b693b6107f10c03042240f6a411cb
:101bb000184609f009fffb68fb60344b5b883b87e4
:101bc000334b5b88fb867b6903f41063002b79d071
:101bd0007b6903f4c063002b01d13023bae27b6937
:101be00003f40073002b06d17b6903f48063002ba0
:101bf00001d03023aee23b8e002b15d03b8e03f09c
:101c00000403002b04d17b6903f40073002b09d17a
:101c10003b8e03f00803002b06d17b6903f480633d
:101c2000002b01d0302395e2244bbb62174b1b697c
:101c3000bb623b69002b09d03a69bb6a9a4203d365
:101c40003b691f4a934201d9362383e27b6903f43f
:101c50000073002b0ed07b6903f48063002b09d046
:101c6000fb68002b06d0fa683b699a4202d3012335
:101c700087f83f3097f83f30002b23d03b8e03f09e
:101c80001003002b1ed1302364e200bff01c0020a3
:101c9000ac1c0020ba1b0020d81b0020b01b002069
:101ca000ec1b0020d21b00209a1c0020901c00205e
:101cb000881c0020a21c0020a41b002090d0030040
:101cc000000050c3914b1b78002b2cd07b6903f490
:101cd0001063002b0dd13b8f022b08d03b8f032bc1
:101ce00005d0fb8e022b02d0fb8e032b5fd130235d
:101cf00030e27b6903f48063002b07d13b8f032b19
:101d000002d0fb8e032b01d1302323e27b6903f445
:101d10000073002b4bd13b8f022b02d0fb8e022b8a
:101d200045d1302316e27b6903f41063002b1dd1eb
:101d3000774b1b88002b0bd001233b87754b1b88ef
:101d4000002b02d02223fb8631e00023fb862ee00d
:101d5000704b1b88002b04d000233b870123fb869c
:101d600025e000233b870023fb8620e0684b1b888f
:101d7000002b09d097f83f30002b02d003233b877c
:101d800004e002233b8701e000233b87614b1b8873
:101d9000002b0ad07b6903f48063002b02d003235d
:101da000fb8604e00223fb8601e00023fb863b8fd9
:101db000032b0cd13b69584a53623b69564a536026
:101dc0003b69564a53623b69544a53600ee03b8f6d
:101dd000022b0bd13b69504a53623b694e4a536018
:101de0003b694e4a53623b694c4a53604c4b1b78eb
:101df000002b07d13b8f002b02d0fb8e002b01d193
:101e00002923a7e13b8f002b02d1fb8e002b02d0b0
:101e1000444b01221a70434b1b78002b10d03c4bd3
:101e20001b88002b04d0404b4ff480621a8007e0df
:101e3000384b1b88002b03d03b4b4ff400621a80b9
:101e40003b8f022b08d03b8f032b05d0fb8e022b40
:101e500002d0fb8e032b09d1344b01221a702c4b7c
:101e60001b88002b02d1304b00221a802a4a3b8f5c
:101e700053802a4afb8e53802d4b00221a802d4b13
:101e800000221a802c4b00221a802c4b00221a8030
:101e900097f83f30012b53d1fa683b6913447b62ba
:101ea000fa683b699a4216d33b697a6ab2fbf3f34c
:101eb0009ab2214b1a803a697b6ab3fbf2f102fbba
:101ec00001f29b1a002b09d11b4b1b8801339ab2dc
:101ed000194b1a8002e0184b01221a803b697a6a7a
:101ee000b2fbf3f39ab2124b1a803a697b6ab3fbe6
:101ef000f2f102fb01f29b1a002b2dd00c4b1b8838
:101f000001339ab20a4b1a8026e000bf341d00202c
:101f1000a41b0020d21b0020f01c0020ac1c0020c1
:101f20009c1b0020e51b0020ba1b0020dd1b0020ad
:101f3000ce1b0020ac1b0020d41b0020e81b00207f
:101f40003b8f022b02d1854b01221a80fb8e032b83
:101f500002d0834b01221a80824b00221a80002378
:101f6000bb6007f1080304224ff48461184609f0ae
:101f70002bfdbb687b867c4b1b88002b34d07b8e73
:101f8000002b31d000237b603b1d04224ff4806185
:101f9000184609f019fd7b687b607b68bb86bb8ea9
:101fa000002b18d0bb8e02333b627a8e3b6a02fb59
:101fb00003f33b623b6a03f5c34327333b623b6a4f
:101fc000db086a4aa2fb03231b0a3b623b6a9ab204
:101fd000674b1a8004e000237b86654b00221a8041
:101fe000644b00221a8004e00023bb86604b002271
:101ff0001a805f4b1b88002b03d15f4b1b78002b93
:1020000007d15b4b1b88002b05d05b4b1b78002b4b
:1020100001d11f239ee0594b1b78002b0ad0524b55
:102020001b88002b06d0564b1b8843f480639ab262
:10203000534b1a80534b00221a80534b00221a80b4
:10204000524b00221a80524b00221a80514b002220
:102050001a70514b00221a70504b00221a80504bbc
:1020600000221a854e4b00225a854d4b002283f8e0
:1020700040204c4b00221a854a4b00225a85494b7e
:10208000002283f840207b6903f40073002b50d0ba
:102090003b69002b03d13b4b00221a8018e03b69bf
:1020a0005b09414aa2fb0323db09fb61fb69042bab
:1020b00003d8344b01221a800ae0fb699bb25b0013
:1020c0009bb23a4aa2fb0323db089ab22d4b1a803b
:1020d0007b6903f48063002b2bd0fa683b699a423a
:1020e00004d2284b1a882a4b1a8022e0fa683b69ee
:1020f00013445b092c4aa2fb0323db09bb61bb69c8
:10210000042b03d8224b01221a8008e0bb695b0034
:10211000264aa2fb0323db089ab21d4b1a80194bf7
:102120001b885b089ab21a4b1b8813449ab2184b4f
:102130001a800d4b1b88002b02d002200bf029ffc8
:102140001b4b1b88002b02d003200bf022ff0af050
:102150006bfb002318464037bd4680bdd41b0020d2
:10216000ce1b0020381d0020a41b002089b5f814c8
:10217000e21b0020a01b0020e61b0020e51b002026
:10218000ba1b0020b21b0020a81b0020e01b00206f
:10219000b81b0020bc1b0020d91b0020b61b002050
:1021a000ac1c0020f01c0020c55a7c0acdcccccc45
:0421b000d21b00201e
:020000040000fa
:1021b40080b584b000af03460a46fb711346bb806a
:1021c4000023fb8100237b73d54b4ff6ff721a80eb
:1021d400d44b01221a70fb7903f01003002b09d0b1
:1021e40001237b73d04b1b7823f01003dab2ce4b60
:1021f4001a7012e0cc4b1b7803f01003002b05d0af
:10220400fb7903f00f03012b40f08783c64b1b7847
:1022140003f00f03dab2c44b1a70fb7903f00f0317
:10222400fb71c14b1b783b733b7b1b013b733a7bbc
:10223400fb7913443b733b7b442b28d0442b0bdcae
:10224400222b15d0222b02dc122b11d028e0242bb8
:1022540014d0422b0cd023e0822b09d0822b02dc39
:10226400482b14d01ce0842b11d0882b0fd017e0fe
:10227400022004f02ff90346fb8111e0ab49ac487e
:1022840006f040fe0346fb81fb89002b07d1a94bd6
:102294001b78184604f01ef90346fb8100e000bfda
:1022a400fb89002b40f05182a34b00221a803b7b18
:1022b400113b772b00f2458201a252f823f000bfb4
:1022c400fd26000073250000a5240000412700001e
:1022d4004727000047270000472700004127000048
:1022e4004727000047270000472700004727000032
:1022f4004727000047270000472700004727000022
:10230400eb2600000127000041270000d52500002e
:102314004727000047270000472700004127000007
:1023240047270000472700004727000047270000f1
:1023340047270000472700004727000047270000e1
:1023440049250000412700004727000041270000dd
:1023540047270000472700004727000041270000c7
:1023640047270000472700004727000047270000b1
:1023740047270000472700004727000047270000a1
:10238400cf260000a32600004127000001270000fb
:102394004727000047270000472700002b2600009e
:1023a4004727000047270000472700004727000071
:1023b4004727000047270000472700004727000061
:1023c4004727000047270000472700004727000051
:1023d4004727000047270000472700004727000041
:1023e4004727000047270000472700004727000031
:1023f4004727000047270000472700004727000021
:102404004727000047270000472700004727000010
:102414004727000047270000472700004727000000
:1024240047270000472700004727000047270000f0
:1024340047270000472700004727000047270000e0
:1024440047270000472700004727000047270000d0
:1024540047270000472700004727000047270000c0
:1024640047270000472700004727000047270000b0
:1024740047270000472700004727000047270000a0
:10248400b3260000852600004127000075260000c1
:1024940047270000472700004727000001270000c6
:1024a400264b01221a70022004f014f80346002b74
:1024b40005d0224b00221a701523fb8178e10020fd
:1024c4000bf019fe08f0aef90346fb81fb89002be3
:1024d4000cd1144b00221a700df048f80346fb810e
:1024e400fb89002b02d1164b01221a70fb89002ba9
:1024f4000ad0fb89ff2b07d00a4b1b78002b01d194
:102504000df09ff807f0dcf903200cf097fffb892e
:10251400002b00f04081094b00221a703be100bf00
:10252400da1b0020a21b0020a31b0020a41b0020f8
:10253400d21b0020ea1b00209e1b0020dc1b002075
:10254400861c0020ab4b1b78002b0bd0a94b002220
:102554001a7000200bf0cffd07f0b2f90df071f8fe
:102564000346fb810df066f80cf038ff20e10bf018
:102574002dfca14b1b78002b01d15123fb81fb893e
:10258400002b40f00a8108f04df90346fb81fb89da
:10259400002b0cd1994b00221a700cf0e7ff034674
:1025a400fb81fb89002b02d1954b01221a70fb8918
:1025b400002b00f0f280fb89ff2b00f0ee808f4ba4
:1025c4001b78002b01d10df03cf807f079f9e4e019
:1025d400fff7fcf90346fb81fb89002b12d1874be3
:1025e40000221a7087480cf04aff0346fb81fb89de
:1025f400002b07d1834b1b8818460bf09ffd824ba1
:1026040001221a70fb89002b00f0c980fb89ff2b83
:1026140000f0c580794b1b78002b01d10cf0aeff84
:1026240007f076fcbbe00af013fd0346fb81fb894f
:10263400002b0cd1714b00221a700cf0a7ff03463b
:10264400fb81fb89002b02d1704b01221a70fb899c
:10265400002b00f0a680fb89ff2b00f0a280674bc3
:102664001b78002b01d10cf099ff0cf0d9fc98e0f9
:102674000cf094ff0cf0d4fc604b00221a7097e02d
:102684000cf08cff0346fb810cf0cafc5b4b002270
:102694001a70fb89002b40f0868042233b730cf0b8
:1026a4006dff07f035fc554b00221a7080e00cf0ea
:1026b40075ff0346fb810cf0b3fc504b00221a70eb
:1026c400fb89002b71d141233b730cf057ff034668
:1026d400fb8107f01dfc494b00221a70fb89002b7b
:1026e40065d121233b7307f0ebf80cf0aaff0346f6
:1026f400fb810cf073fe5be00cf070fe7b7b002b27
:1027040004d03b7b9bb218460cf0aefe404b1b78ca
:1027140003f00c03002b0ed03e4b1b88002b03d080
:1027240002200bf034fc06e03b4b1b88002b02d04c
:1027340003200bf02cfcfe23fb8139e01123fb81e9
:1027440036e01223fb8100bf32e0314b1b78042baf
:1027540008d0082b02d0022b08d029e00cf01eff71
:102764000cf05efc0cf00aff07f0d2fbfb89162b81
:102774000dd107f0a5f80cf064ff00200bf04cfb22
:1027840001200bf049fb224b01221a7010e0204b70
:1027940002221a700ce000bf0ae000bf08e000bf8c
:1027a40006e000bf04e000bf02e000bf00e000bf9d
:1027b400fb89ff2b51d1194b01221a703b7b9ab232
:1027c400174b1a80164b1b88242b0dd0242b03dcab
:1027d400123b012b28d802e0482b05d024e0114bf2
:1027e4004ff4fa621a8023e00e4b42f228321a8028
:1027f4001ee000bfdc1b00206a530020a21b002047
:10280400861c0020ba1b0020e41b0020de1b0020d5
:10281400a31b0020a41b0020d21b0020d01b0020df
:102824009e1b0020da1b00203e4bc8221a8000bfea
:102834003c4bb3f900309ab23a4bb3f900303a4901
:1028440081fb03018910db17cb1a1bb29bb2d31a8d
:102854009bb21ab2334b1a8060e0fa79334b1b787f
:1028640003f00f039a424ed0fb89002b02d1bb88a0
:10287400002b1fd02d4b1a78fb791343dbb203f0e6
:102884000803002b16d02a4b1b78002b03d00cf026
:1028940085fe0cf0c5fb274b1b88002b03d00220c0
:1028a4000bf0bafa06e0244b1b88002b02d003205d
:1028b4000bf0b2fafb89002b0ed01c4b1b78082bb3
:1028c40002d11a4b04221a70184b1b7843f01003e0
:1028d400dab2164b1a700be0bb88002b05d0bb880c
:1028e400fb81fb7943f01003fb71104afb791370f1
:1028f400124b00221a700d4b1b78fa8911461846a8
:1029040006f072fc0ae00d4b00221a70074b1b788c
:102914000021184606f068fc00e000bf1037bd46f1
:1029240080bd00bfda1b002067666666a31b00201b
:10293400de1b0020a41b0020d21b0020d01b002083
:020000040000fa
:1029440090b591b002afba607b600346fb810b4641
:102954007b737b7bfb867b689b891b12dbb203f05a
:102964000f0387f823300023bb867b689b89dbb287
:102974003b84002387f833307b7b3b8697f82330f6
:10298400072b28d07b689b691b88dbb2bb86bb8e78
:10299400002b20d1fb8941f60f42934204d9fb89d5
:1029a40041f62f42934214d9fb89b3f5b05f03d3a8
:1029b400fb89b3f5c05f0cd3fb89b3f5d05f03d3b8
:1029c400fb89b3f5e05f04d3fb894ff230029342f5
:1029d40001d13b8cbb8697f84c30002b12d097f872
:1029e4002330072b01d105232de37b7b002b06d15c
:1029f400bb68002b03d0bb6c1b88dbb2bb86bb8ed1
:102a04003b862ce07b7b9bb2ba8e9a4201d2112387
:102a140019e37b7b194678680bf08bf8f861fb6946
:102a24009b889bb29b10dbb203f00e02a84b1b7871
:102a340003f00f031340002b11d1fb699b889bb259
:102a440003f03803002b08d1fb699b889bb2002b51
:102a540001d10523f7e20723f5e21a23f3e27b7b96
:102a6400002b29d0fb8941f60f42934204d9fb89fc
:102a740041f62f42934214d9fb89b3f5b05f03d3d7
:102a8400fb89b3f5c05f0cd3fb89b3f5d05f03d3e7
:102a9400fb89b3f5e05f04d3fb894ff23002934224
:102aa4000ad17b689b691b88dbb27b837b8b002b01
:102ab40002d0012387f833307b681b6a002b0bd0cc
:102ac4007b681c6a797bf88997f84c300093bb6c5f
:102ad400ba68a0470346b6e2002387f82f300723dd
:102ae40087f82e30bb68002b01d10023abe27b7b3f
:102af400fb869be27b689b69bb6200233b83fb8e66
:102b0400dbb2194678680bf014f8f861fb8edbb27f
:102b14007968184606f07ef803463b83fb699b8878
:102b24009bb29b10dbb203f00e02694b1b7803f0df
:102b34000f031340002b00f04f82fb8e002b06d0b6
:102b44003b8b1b099bb25b00ba6a1344bb627b7b61
:102b54009bb2fa8e9a420ad097f84c30002b00f0c0
:102b640062827b7b9bb2fa8e9a42c0f05c82fb8ebf
:102b7400002b15d197f82330072b11d0bb6c1b8881
:102b8400fb74fb7c9bb23a8c9a4201d213235ae227
:102b9400bb6c1a88bb6a1a80bb6c0233bb6417e235
:102ba400fb691a785b781b021343fb84fb691b885f
:102bb4009bb2b3f5e06f19d3fb695b889bb2082b1a
:102bc40005d8fb695b889bb22f33fb840ee0fb695d
:102bd4005b889bb2102b02d10623fb8406e0fb69c1
:102be4005b889bb2202b01d10723fb84fb8c112b28
:102bf40000f08881112b1edc052b6bd0052b0ddc1e
:102c0400022b04dc012b65da002b3bd0dde1032b26
:102c140000f0c280042b00f04d81d6e1082b03dcc8
:102c2400072b80f24781b7e0092b00f089810b2b39
:102c340000f3cb81ace12d2b4cd02d2b11dc1e2bc2
:102c440048d01e2b06dc152b00f05c811b2b00f0fa
:102c54005981bae11f2b00f09f80202b00f02a81bc
:102c6400b3e1372b08dc302b34da2e2b00f09480c0
:102c74002f2b00f01f81a8e1a3f51873032b00f29a
:102c8400a48185e197f84c30002b1ed0fb695b884a
:102c94009bb203f00f03002b0cddfb695b889ab237
:102ca4003b8b13449bb203f00f03002b02d1bb6c8c
:102cb4000233bb64fb695b889bb21b1103f00f03f7
:102cc4005b00ba6c1344bb6482e11823bbe100bf10
:102cd400a31b00200023bb84fb695b889bb21a46bc
:102ce4009b4b33f812301a463b8b03f00f0302fa66
:102cf40003f3fb82bb6a1b88bb84b7f91630db4342
:102d04001ab2b7f9243013401bb2bb8497f84c3085
:102d1400002b08d0bb6c1a88fb8a13409ab2bb8c78
:102d24001343bb8426e0bb6c1b881a46fb695b8893
:102d34009bb21946864b33f81130db431340002b0a
:102d440001d012237fe1bb6c1a88fb695b889bb2bc
:102d540019467f4b33f8113013409bb21a463b8b14
:102d640003f00f0302fa03f31ab2b7f92430134342
:102d74001bb2bb84bb6aba8c1a80fb695b889ab2ab
:102d84003b8b13449bb203f00f03002b40f01f81d5
:102d9400bb6c0233bb641ae13b8b03f00f03002bc3
:102da40001d005234fe1bb6c1b88bb8297f83330fd
:102db400002b06d0bb6a1b88ba8a9a4201d01c2316
:102dc40041e1fb8941f60f42934219d9fb8941f64f
:102dd4002f42934214d8bb8ab3f5b05f03d3bb8aa6
:102de400b3f5c05f0cd3bb8ab3f5d05f03d3bb8a02
:102df400b3f5e05f04d3bb8a002b01d0122322e198
:102e0400fb8941f63242934204d0fb8941f63342b6
:102e1400934248d1fb8e012b17d1bb6a1b88ba8a17
:102e24009a420fd0ba8afb891146184605f094f8e5
:102e3400034687f82e3097f82e30002b02d097f8ef
:102e44002e3000e1434b01221a70fb8e082b2ad14d
:102e5400414b00225a61404b404a1a613e4b0022ca
:102e64005a603f4b00225a613d4b3c4a1a613c4b2d
:102e740000225a60bb8a03f00203002b13d0364ba6
:102e840000225a85344b00221a85334b002283f8e2
:102e94004020334b00225a85314b00221a85304b97
:102ea400002283f84020bb6aba8a1a80bb6c0233c2
:102eb400bb648de03b8b03f00f03002b01d0052393
:102ec400c1e097f83330002b0fd0bb6a1a88bb6c73
:102ed4001b889a4207d1bb6a02331a88bb6c02333f
:102ee4001b889a4201d01c23ade0bb6c1a88bb6ad4
:102ef4001a80bb6a0233ba6c52881a80bb6c0433e2
:102f0400bb6465e03b8b03f00f03002b01d005236a
:102f140099e0bb6c1a88bb6a1a80bb6a0233ba6c2c
:102f240052881a80bb6a0433ba6c92881a80bb6ace
:102f34000633ba6cd2881a80bb6c0833bb6447e092
:102f44003b8b03f00f03002b0cd005237be000bf69
:102f5400a0f10000341d0020f01c002090d00300dc
:102f6400ac1c0020fb695b889bb20733db101a465c
:102f7400b96cb86a0cf08efafb695b889bb223f0db
:102f84000f030f331b115b00ba6c1344bb641fe0c7
:102f94003b8b03f00f03002b01d0052353e0fb69a7
:102fa4005b889bb20733db101a46b96cb86a0cf025
:102fb40071fafb695b889bb223f00f030f331b117b
:102fc4005b00ba6c1344bb6402e018233be000bf0f
:102fd400012387f82f3026e0fb8e002b03d1bb6c36
:102fe4000233bb641ce0fb695b889bb203f00f03f4
:102ff400002b0cddfb695b889ab23b8b13449bb2bc
:1030040003f00f03002b02d1bb6c0233bb64fb69da
:103014005b889bb21b099bb25b00ba6c1344bb6414
:10302400182387f82e30fb8e0133fb86fa8e3b8ef5
:103034009a427ff65fad97f82f30002b02d197f8b4
:103044002e3000e0002318463c37bd4690bd00bf3b
:020000040000fa
:103054004f7574707574732070726f636573732029
:1030640064617461206d617070696e67005375628c
:10307400496e6465782030303100537562496e645e
:1030840065782030303200537562496e646578206b
:1030940030303300537562496e64657820303034c3
:1030a40000537562496e646578203030350053757d
:1030b40062496e6465782030303600537562496e1b
:1030c4006465782030303700537562496e646578e2
:1030d4002030303800537562496e64657820303092
:1030e4003900537562496e6465782030313000537d
:1030f4007562496e646578203031310053756249d8
:103104006e6465782030313200537562496e6465af
:10311400782030313300537562496e64657820300d
:10312400313400537562496e64657820303135005e
:10313400537562496e646578203031360053756288
:10314400496e6465782030313700537562496e6486
:1031540065782030313800537562496e6465782093
:1031640030313900537562496e64657820303230ed
:1031740000537562496e64657820303231005375ae
:1031840062496e6465782030323200537562496e4c
:103194006465782030323300537562496e64657813
:1031a4002030323400537562496e646578203032c1
:1031b4003500537562496e646578203032360053a9
:1031c4007562496e64657820303237005375624900
:1031d4006e6465782030323800537562496e6465d8
:1031e400782030323900537562496e646578203036
:1031f400333000537562496e646578203033310092
:10320400537562496e6465782030333200537562b9
:10321400496e6465782030333300537562496e64b7
:1032240065782030333400537562496e64657820c4
:1032340030333500537562496e6465782030333617
:1032440000537562496e64657820303337005375d6
:1032540062496e6465782030333800537562496e74
:103264006465782030333900537562496e6465783b
:103274002030343000537562496e646578203034f0
:103284003100537562496e646578203034320053de
:103294007562496e64657820303433005375624931
:1032a4006e6465782030343400537562496e646509
:1032b400782030343500537562496e646578203067
:1032c400343600537562496e6465782030343700b3
:1032d400537562496e6465782030343800537562e2
:1032e400496e6465782030343900537562496e64e0
:1032f40065782030353000537562496e64657820f6
:1033040030353100537562496e646578203035324a
:1033140000537562496e6465782030353300537507
:1033240062496e6465782030353400537562496ea5
:103334006465782030353500537562496e6465786c
:103344002030353600537562496e64657820303517
:103354003700537562496e64657820303538005300
:103364007562496e64657820303539005375624959
:103374006e6465782030363000537562496e64653a
:10338400782030363100537562496e646578203098
:10339400363200537562496e6465782030363300e6
:1033a400537562496e646578203036340053756213
:1033b400496e6465782030363500537562496e6411
:1033c40065782030363600537562496e646578201e
:1033d40030363700537562496e646578203036386c
:1033e40000537562496e6465782030363900537530
:1033f40062496e6465782030373000537562496ed7
:103404006465782030373100537562496e6465789d
:103414002030373200537562496e64657820303746
:103424003300537562496e64657820303734005335
:103434007562496e6465782030373500537562498a
:103444006e6465782030373600537562496e646562
:10345400782030373700537562496e6465782030c0
:10346400373800537562496e646578203037390007
:10347400537562496e646578203038300053756244
:10348400496e6465782030383100537562496e6442
:1034940065782030383200537562496e646578204f
:1034a40030383300537562496e646578203038349f
:1034b40000537562496e6465782030383500537561
:1034c40062496e6465782030383600537562496eff
:1034d4006465782030383700537562496e646578c6
:1034e4002030383800537562496e6465782030386e
:1034f4003900537562496e64657820303930005361
:103504007562496e646578203039310053756249bb
:103514006e6465782030393200537562496e646593
:10352400782030393300537562496e6465782030f1
:10353400393400537562496e64657820303935003a
:10354400537562496e64657820303936005375626c
:10355400496e6465782030393700537562496e646a
:1035640065782030393800537562496e6465782077
:1035740030393900537562496e64657820313030d2
:1035840000537562496e646578203130310053759b
:1035940062496e6465782031303200537562496e39
:1035a4006465782031303300537562496e64657800
:1035b4002031303400537562496e646578203130af
:1035c4003500537562496e64657820313036005396
:1035d4007562496e646578203130370053756249ed
:1035e4006e6465782031303800537562496e6465c5
:1035f400782031303900537562496e646578203122
:10360400313000537562496e646578203131310080
:10361400537562496e6465782031313200537562a6
:10362400496e6465782031313300537562496e64a4
:1036340065782031313400537562496e64657820b1
:1036440031313500537562496e6465782031313605
:1036540000537562496e64657820313137005375c3
:1036640062496e6465782031313800537562496e61
:103674006465782031313900537562496e64657828
:103684002031323000537562496e646578203132de
:103694003100537562496e646578203132320053cb
:1036a4007562496e6465782031323300537562491e
:1036b4006e6465782031323400537562496e6465f6
:1036c400782031323500537562496e646578203153
:1036d400323600537562496e6465782031323700a2
:1036e400537562496e6465782031323800ff0000fa
:020000040000fa
:1036f400496e707574732070726f636573732064a0
:10370400617461206d617070696e67005375624900
:103714006e6465782030303100537562496e64659b
:10372400782030303200537562496e6465782030f9
:10373400303300537562496e64657820303034004c
:10374400537562496e646578203030350053756274
:10375400496e6465782030303600537562496e6472
:1037640065782030303700537562496e646578207f
:1037740030303800537562496e64657820303039d2
:1037840000537562496e646578203031300053759a
:1037940062496e6465782030313100537562496e38
:1037a4006465782030313200537562496e646578ff
:1037b4002030313300537562496e646578203031ae
:1037c4003400537562496e64657820303135005396
:1037d4007562496e646578203031360053756249ec
:1037e4006e6465782030313700537562496e6465c4
:1037f400782030313800537562496e646578203022
:10380400313900537562496e646578203032300076
:10381400537562496e6465782030323100537562a5
:10382400496e6465782030323200537562496e64a3
:1038340065782030323300537562496e64657820b0
:1038440030323400537562496e6465782030323505
:1038540000537562496e64657820303236005375c2
:1038640062496e6465782030323700537562496e60
:103874006465782030323800537562496e64657827
:103884002030323900537562496e646578203033d4
:103894003000537562496e646578203033310053cb
:1038a4007562496e6465782030333200537562491d
:1038b4006e6465782030333300537562496e6465f5
:1038c400782030333400537562496e646578203053
:1038d400333500537562496e6465782030333600a1
:1038e400537562496e6465782030333700537562ce
:1038f400496e6465782030333800537562496e64cc
:1039040065782030333900537562496e64657820d8
:1039140030343000537562496e6465782030343138
:1039240000537562496e64657820303432005375f3
:1039340062496e6465782030343300537562496e91
:103944006465782030343400537562496e64657858
:103954002030343500537562496e64657820303404
:103964003600537562496e646578203034370053ed
:103974007562496e64657820303438005375624945
:103984006e6465782030343900537562496e64651d
:10399400782030353000537562496e646578203084
:1039a400353100537562496e6465782030353200d4
:1039b400537562496e6465782030353300537562ff
:1039c400496e6465782030353400537562496e64fd
:1039d40065782030353500537562496e646578200a
:1039e40030353600537562496e646578203035375a
:1039f40000537562496e646578203035380053751c
:103a040062496e6465782030353900537562496eb9
:103a14006465782030363000537562496e64657889
:103a24002030363100537562496e64657820303633
:103a34003200537562496e64657820303633005322
:103a44007562496e64657820303634005375624976
:103a54006e6465782030363500537562496e64654e
:103a6400782030363600537562496e6465782030ac
:103a7400363700537562496e6465782030363800f5
:103a8400537562496e646578203036390053756227
:103a9400496e6465782030373000537562496e642e
:103aa40065782030373100537562496e646578203b
:103ab40030373200537562496e646578203037338d
:103ac40000537562496e646578203037340053754d
:103ad40062496e6465782030373500537562496eeb
:103ae4006465782030373600537562496e646578b2
:103af4002030373700537562496e6465782030375b
:103b04003800537562496e64657820303739005344
:103b14007562496e646578203038300053756249a7
:103b24006e6465782030383100537562496e64657f
:103b3400782030383200537562496e6465782030dd
:103b4400383300537562496e646578203038340028
:103b5400537562496e646578203038350053756258
:103b6400496e6465782030383600537562496e6456
:103b740065782030383700537562496e6465782063
:103b840030383800537562496e64657820303839ae
:103b940000537562496e646578203039300053757e
:103ba40062496e6465782030393100537562496e1c
:103bb4006465782030393200537562496e646578e3
:103bc4002030393300537562496e6465782030398a
:103bd4003400537562496e6465782030393500537a
:103be4007562496e646578203039360053756249d0
:103bf4006e6465782030393700537562496e6465a8
:103c0400782030393800537562496e646578203005
:103c1400393900537562496e64657820313030005b
:103c2400537562496e646578203130310053756292
:103c3400496e6465782031303200537562496e6490
:103c440065782031303300537562496e646578209d
:103c540031303400537562496e64657820313035f3
:103c640000537562496e64657820313036005375af
:103c740062496e6465782031303700537562496e4d
:103c84006465782031303800537562496e64657814
:103c94002031303900537562496e646578203131c2
:103ca4003000537562496e646578203131310053b8
:103cb4007562496e6465782031313200537562490a
:103cc4006e6465782031313300537562496e6465e2
:103cd400782031313400537562496e64657820313f
:103ce400313500537562496e646578203131360090
:103cf400537562496e6465782031313700537562bb
:103d0400496e6465782031313800537562496e64b8
:103d140065782031313900537562496e64657820c5
:103d240031323000537562496e6465782031323126
:103d340000537562496e64657820313232005375e0
:103d440062496e6465782031323300537562496e7e
:103d54006465782031323400537562496e64657845
:103d64002031323500537562496e646578203132f2
:103d74003600537562496e646578203132370053da
:103d84007562496e6465782031323800ff0000bfe7
:020000040000fa
:103d940090b593b002afba607b600346fb810b46db
:103da4007b737b7bfb877b689b891b12dbb203f0f5
:103db4000f0387f82a307b689b89dbb2bb877b7b48
:103dc4007b8797f82a30072b08d0fb89b3f5805fef
:103dd40004d37b689b691b88dbb2bb8797f854309c
:103de400002b0cd097f82a30072b03d0fb89b3f5ae
:103df400805f01d2052302e3bb8f7b872ee07b7bb0
:103e04009bb2ba8f9a4201d21123f8e2fb8fdbb244
:103e14001946786809f08dfe78627b6a9b889bb2ac
:103e2400002b19d07b6a9b889bb2dbb25b00dbb2b0
:103e340003f00e02a04b1b7803f00f031340002b7a
:103e44000cd17b6a9b889bb203f00703002b01d142
:103e54000623d4e21a23d2e20523d0e27b68db698d
:103e6400002b0bd07b68dc69797bf88997f8543098
:103e740000933b6dba68a0470346c0e2fb89b3f5e3
:103e8400805f7cd27b7b002b79d07b689b697b63d2
:103e94007b7b1946786809f04cfe78627b6a5b8804
:103ea4009bb20733db107b847b6bfb617b7b03f171
:103eb4008043013b9b00fa6913441b687b637b6b63
:103ec40003f00103002b43d000237b867b6b23f09c
:103ed40001037b6300237b861be07b6b1b881b0a2f
:103ee4009ab23b6d1a803b6d1b881ab27b6b02330e
:103ef4001b881b021bb213431bb29ab23b6d1a8080
:103f04003b6d02333b657b6b02337b637b8e0133fa
:103f14007b867b8c5b089bb27a8e9a42ddd37b8c4a
:103f240003f001039bb2002b00f067823b6d1b88fa
:103f340023f0ff039ab23b6d1a803b6d1a887b6baa
:103f44001b881b0a9bb213439ab23b6d1a8054e23e
:103f54007b6b1a883b6d1a803b6d02337a6b5288f7
:103f64001a803b6d04333b657b6b04337b637b8c32
:103f7400043b1a46796b386d0bf08cfa3de2002352
:103f840087f83130002387f830307b7bfb8728e2c9
:103f94007b689b69bb610023fb85fb8f002b0bd0e7
:103fa400fb89b3f5805f07d3fb8fdbb279681846d2
:103fb40004f030fe0346fb85fb8d1b099bb25b00be
:103fc400ba691344bb61fb8fdbb21946786809f008
:103fd400b0fd78627b6a9b889bb2dbb25b00dbb28c
:103fe40003f00e02344b1b7803f00f031340002b35
:103ff40000f0ab817b7b9bb2fa8f9a420ad097f890
:104004005430002b00f0ea817b7b9bb2fa8f9a42fa
:10401400c0f0e481fb8f002b0ad197f82a30072bdc
:1040240006d03b6dba8f1a803b6d02333b65d5e1f8
:104034007b6a1a785b781b021343bb857b6a1b88f7
:104044009bb2b3f5e06f19d37b6a5b889bb2082bf4
:1040540005d87b6a5b889bb22f33bb850ee07b6af5
:104064005b889bb2102b02d10623bb8506e07b6ada
:104074005b889bb2202b01d10723bb85bb8d112b01
:1040840000f0e680112b20dc052b6ad0052b0ddc1b
:10409400022b04dc012b64da002b3dd04ae1032b14
:1040a40000f0b380042b00f0bf8043e1082b05dc53
:1040b400072b80f2b980a8e0a31b0020092b00f095
:1040c4000f810b2b00f33681e0e02d2b49d02d2bf3
:1040d40011dc1e2b45d01e2b06dc152b00f0b880fe
:1040e4001b2b00f0b58025e11f2b00f08e80202bc8
:1040f40000f09a801ee1372b08dc302b31da2e2bae
:1041040000f083802f2b00f08f8013e1a3f5187348
:10411400032b00f20f81b9e097f85430002b1ed026
:104124007b6a5b889bb203f00f03002b0cdd7b6a78
:104134005b889ab2fb8d13449bb203f00f03002bf0
:1041440002d13b6d02333b657b6a5b889bb21b11da
:1041540003f00f035b003a6d13443b65f1e0182351
:104164004de10023fb827b6a5b889bb21a46a64b17
:1041740033f812301a46fb8d03f00f0302fa03f3ef
:10418400bb82bb691b88fb82fb8d03f00f03002bf2
:1041940002d13b6d00221a803b6d1a883b6d1a8058
:1041a40097f85430002b0ad03b6d1a88f98abb8ae1
:1041b4000b409bb213439ab23b6d1a8012e03b6de5
:1041c4001b881ab2f98abb8a0b409bb21946fb8d35
:1041d40003f00f0341fa03f31bb213431bb29ab269
:1041e4003b6d1a803b6d1a883b6d1a807b6a5b8835
:1041f4009ab2fb8d13449bb203f00f03002b40f0e3
:104204009b803b6d02333b6596e0fb8d03f00f030f
:10421400002b01d00523f2e0bb691a883b6d1a809c
:104224003b6d02333b658ce0fb8d03f00f03002be9
:1042340001d00523e3e0bb691a883b6d1a803b6d0e
:104244000233ba6952881a803b6d04333b6578e0c7
:10425400fb8d03f00f03002b01d00523cfe0bb69d6
:104264001a883b6d1a803b6d0233ba6952881a80f2
:104274003b6d0433ba6992881a803b6d0633ba6980
:10428400d2881a803b6d08333b655ae0fb8d03f0fe
:104294000f03002b01d00523b1e07b6a5b889bb23e
:1042a4000733db101a46b969386d0bf0f3f87b6af3
:1042b4005b889bb223f00f030f331b115b003a6d35
:1042c40013443b657b6a5b889bb203f00f03002bae
:1042d40034d03b6d1b88dbb29ab23b6d1a802de063
:1042e400fb8d03f00f03002b01d0052387e07b6acd
:1042f4005b889bb20733db101a46b969386d0bf043
:10430400c9f87b6a5b889bb223f00f030f331b1140
:104314005b003a6d13443b657b6a5b889bb203f098
:104324000f03002b0cd03b6d1b88dbb29ab23b6da4
:104334001a8005e0182362e000bf02e000bf00e03d
:1043440000bf012387f8313048e0002387f82b3081
:10435400fb8d03f00f03002b02d13b6d00221a806a
:104364007b6a5b889bb203f00f03002b0fdd7b6a33
:104374005b889ab2fb8d13449bb203f00f03002bae
:1043840005d13b6d02333b653b6d00221a8000234f
:1043940087f82b300ae03b6d02333b653b6d00220e
:1043a4001a8097f82b30013387f82b3097f82b209d
:1043b4007b6a5b889bb21b1103f00f039a42eadb12
:1043c4007b6a9b889bb203f00703002b03d106236f
:1043d40087f8303002e01a2387f83030fb8f01333e
:1043e400fb87fa8f7b8f9a427ff6d2ad97f83130f4
:1043f400002b03d197f8303001e000bf00231846aa
:0c4404004437bd4690bd00bfa0f1000091
:020000040000fa
:1044100090b591b002af7860002387f837307b68a1
:104420001b899bb287f8223097f8223023f01f03b4
:1044300087f821307b681a785b781b021343fb8373
:10444000002387f8363000233b630023fb62ae4b2a
:104450001b78002b01d00923a9e297f82130202beb
:104460000bd0202b03dc002b00f0698283e2402b71
:1044700003d0602b00f063827de27b685b899bb296
:10448000dbb2bb83bb8b1b02bb837b681b899bb2ec
:104490001b0a9ab2bb8b1344bb837b685b899bb2bc
:1044a0001b0a9bb2fb76bb8b18460af0c9fa7861ef
:1044b0007b69002b00f03f82002387f82b3000231c
:1044c0007b62002387f823307b699b89fb74fa7e2b
:1044d000fb7c9a4203d9112387f837300ce097f818
:1044e000223003f01003dbb2f97eb88b7a6905f055
:1044f000cbfe38633b6bfb6297f83730002b32d131
:1045000097f82130402b28d1fb8b0a2b01d00823b0
:104510004de23b6b042b10d83b6b002b0dd00123dd
:1045200087f82b307b680c337b627b6a00221a8011
:104530007b6a023300221a8015e0744b1b88103b03
:10454000fb62fa6a3b6b9a4203d2012387f823305d
:1045500009e07b6810337b6205e097f8223003f0b6
:10456000020387f82b3097f83730002b44d197f8a7
:104570002130202b40d197f82b30002b10d0fb8b13
:104580000a2b01d0082312e297f822309b1003f087
:104590000303c3f10403fb627b680c337b622be0f3
:1045a0007b68db899bb21b047a68928992b21344c0
:1045b000fb60fb681033564a1288934207d9fa8b86
:1045c000534b1b88063b9a4208d00823efe1fa8b35
:1045d000fb680a339a4201d00823e8e17b68103374
:1045e0007b62fb68fb62fb8b0a3b1a46fb6a9a42c2
:1045f00002d2012387f8233097f83730002b0ed1f1
:1046000097f8223003f01003002b08d0012387f81d
:104610003630fb7e012b02d9052387f8373097f817
:104620003730002b40f0ab8197f82330002b00f09f
:10463000d980384b01221a70374b01221a70374a41
:1046400097f836301370364abb8b1380354afb7ea1
:104650001370354a7b69136097f82130402b03d1e2
:10466000324a3b6b136002e0304afb6a1360304b06
:104670001b68002b07d02e4b1b6818460af0a8ffba
:104680002b4b00221a60294b1b68013323f00103d6
:1046900018460af095ff03461a46254b1a60244b2c
:1046a0001b68002b0bd197f83630002b03d0052365
:1046b00087f8373063e1042387f837305fe197f8f4
:1046c0002130402b7ad11a4b1b68f97eb88b97f8b2
:1046d0003620019200937b693a6bfff75bfb034640
:1046e00087f8373097f83730002b25d17b6803f1f6
:1046f00010000f4b1b68fa6a19460af0cdfe0d4bed
:1047000060221a706ae000bf6d530020901c0020e8
:10471000a21c0020613d00206e3d0020603d002075
:10472000843d00209c3d0020983d0020643d0020f9
:10473000803d00206f3d002097f83730ff2b4dd192
:104740009d4b04221a709d4a97f8363013709c4a8c
:10475000fb7e13709b4abb8b13809b4a3b6b1360a1
:104760009a4b1b689a4a13607b69db69994a13600c
:10477000994b01221a70994a7b681360974b1b680a
:10478000964a1268128992b222f0ff0292b21a81fe
:10479000924b1b68914a1268128992b211b297f833
:1047a000222012b202f0f00212b20a4312b292b206
:1047b0001a818b4b60221a700023f8e0834b186833
:1047c0007b6803f11001fb8b0a3b1a460af064fe7a
:1047d000834b00221a70fb8b0a3bfb62814afb6a07
:1047e0001360cce03b6b002b08d17f4abb8b13805e
:1047f0007e4afb7e13707e4a7b69136097f82130f6
:10480000402b4cd1f97eb88b97f8363001937b6af8
:1048100000937b693a6bfff7bdfa034687f83730a0
:1048200097f83730ff2b40f0aa80634b03221a70b1
:10483000624a97f836301370614afb7e1370614a02
:10484000bb8b1380604a3b6b1360614a7b6a1360c9
:104850007b69db695f4a13605f4b01221a705f4a14
:104860007b6813605d4b1b685c4a1268128992b2c8
:1048700022f0ff0292b21a81584b1b68574a126805
:10488000128992b211b297f8222012b202f0f0020d
:1048900012b20a4312b292b21a81002387e0f97e63
:1048a000b88b97f8363001937b6a00937b69fa6a7c
:1048b000fef748f8034687f8373097f83730ff2b74
:1048c0005dd13d4b01221a703c4a97f83630137087
:1048d0003b4afb7e13703b4abb8b13803a4afb6a10
:1048e00013603b4a7b6a13607b691b6a394a136019
:1048f000394b01221a70394a7b681360374b1b68a9
:10490000364a1268128992b222f0ff0292b21a81dc
:10491000324b1b68314a1268128992b211b297f871
:10492000222012b202f0f00212b20a4312b292b284
:104930001a8100233be0082387f837301fe0284b1b
:104940001b7897f821209a4211d197f82130002b3b
:1049500006d1786801f0e6fb034687f837300fe0b0
:10496000786802f0f7fe034687f8373008e0032343
:1049700087f8373004e0032387f8373000e000bfc2
:1049800097f83730ff2b11d097f8223003f010033f
:10499000dab2fb6a9cb297f8211097f837007b686f
:1049a00001933b6b0093234603f0faf9002318466a
:1049b0003c37bd4690bd00bf6c3d00206d3d0020e2
:1049c000a03d00209e3d00207c3d0020803d002039
:1049d000583d0020683d00206d530020783d0020a8
:1049e0006f3d00205c3d0020843d00209c3d002068
:0449f000983d0020ce
:020000040000fa
:1049f4004f757470757473005472696767657200db
:104a0400547269676765723220005472696767651a
:104a1400723300547269676765723400547269674f
:104a2400676572350054726967676572360054723f
:104a34006967676572370054726967676572380021
:104a44005472696767657239005472696767657281
:104a5400313000547269676765723131005472698c
:104a64006767657231320054726967676572313302
:104a740000547269676765723134005472696767fc
:104a84006572313500547269676765723136005456
:104a94007269676765723137005472696767657256
:104aa400313800547269676765723139005472692c
:104ab40067676572323000547269676765723231b4
:104ac40000547269676765723232005472696767ad
:104ad4006572323300547269676765723234005408
:104ae4007269676765723235005472696767657207
:104af40032360054726967676572323700547269de
:104b04006767657232380054726967676572323953
:104b1400005472696767657233300054726967675d
:104b240065723331005472696767657233320054b9
:104b340072696767657233330054726967676572b7
:104b4400333400547269676765723335005472698f
:104b54006767657233360054726967676572333705
:104b64000054726967676572333800547269676705
:104b74006572333900547269676765723430005462
:104b84007269676765723431005472696767657268
:104b94003432005472696767657234330054726941
:104ba40067676572343400547269676765723435b7
:104bb40000547269676765723436005472696767b6
:104bc400657234370054726967676572343800540b
:104bd4007269676765723439005472696767657210
:104be40035300054726967676572353100547269f3
:104bf4006767657235320054726967676572353369
:104c04000054726967676572353400547269676766
:104c140065723535005472696767657235360054bc
:104c240072696767657235370054726967676572c0
:104c34003538005472696767657235390054726992
:104c4400676765723630005472696767657236311a
:104c54000054726967676572363200547269676717
:104c6400657236330054726967676572363400546e
:104c74007269676765723635005472696767657271
:104c84003636005472696767657236370054726944
:104c940067676572363800547269676765723639ba
:104ca40000547269676765723730005472696767c8
:104cb4006572373100547269676765723732005420
:104cc4007269676765723733005472696767657222
:104cd40037340054726967676572373500547269f6
:104ce400676765723736005472696767657237376c
:104cf4000054726967676572373800547269676770
:104d040065723739005472696767657238300054c8
:104d140072696767657238310054726967676572d2
:104d240038320054726967676572383300547269a7
:104d3400676765723834005472696767657238351d
:104d44000054726967676572383600547269676720
:104d54006572383700547269676765723838005471
:104d6400726967676572383900547269676765727a
:104d74003930005472696767657239310054726959
:104d840067676572393200547269676765723933cf
:104d940000547269676765723934005472696767d1
:104da4006572393500547269676765723936005423
:104db400726967676572393700547269676765722b
:104dc40039380054726967676572393900547269f9
:104dd4006767657231303000547269676765723194
:104de4003031005472696767657231303200547231
:104df4006967676572313033005472696767657239
:104e0400313034005472696767657231303500544b
:104e14007269676765723130360054726967676515
:104e24007231303700547269676765723130380007
:104e34005472696767657231303900547269676703
:104e4400657231313000547269676765723131318e
:104e54000054726967676572313132005472696750
:104e64006765723131330054726967676572313135
:104e74003400547269676765723131350054726960
:104e840067676572313136005472696767657231dc
:104e94003137005472696767657231313800547272
:104ea4006967676572313139005472696767657281
:104eb400313230005472696767657231323100549f
:104ec4007269676765723132320054726967676567
:104ed400723132330054726967676572313234005b
:104ee4005472696767657231323500547269676755
:104ef40065723132360054726967676572313237d0
:104f0400005472696767657231323800ff0000bf70
:020000040000fa
:104f1400496e7075747300436f756e7465720043e7
:104f24006f756e7465723200436f756e746572339b
:104f340000436f756e7465723400436f756e7465eb
:104f4400723500436f756e7465723600436f756e0b
:104f54007465723700436f756e7465723800436f01
:104f6400756e7465723900436f756e746572313095
:104f740000436f756e746572313100436f756e74e2
:104f84006572313200436f756e746572313300435c
:104f94006f756e746572313400436f756e7465722b
:104fa400313500436f756e746572313600436f7529
:104fb4006e746572313700436f756e746572313883
:104fc40000436f756e746572313900436f756e748a
:104fd4006572323000436f756e746572323100430e
:104fe4006f756e746572323200436f756e746572dc
:104ff400323300436f756e746572323400436f75db
:105004006e746572323500436f756e746572323634
:1050140000436f756e746572323700436f756e743a
:105024006572323800436f756e74657232390043ad
:105034006f756e746572333000436f756e7465728c
:10504400333100436f756e746572333200436f758c
:105054006e746572333300436f756e7465723334e6
:1050640000436f756e746572333500436f756e74eb
:105074006572333600436f756e746572333700435f
:105084006f756e746572333800436f756e74657234
:10509400333900436f756e746572343000436f7535
:1050a4006e746572343100436f756e746572343298
:1050b40000436f756e746572343300436f756e749c
:1050c4006572343400436f756e7465723435004311
:1050d4006f756e746572343600436f756e746572e5
:1050e400343700436f756e746572343800436f75de
:1050f4006e746572343900436f756e746572353041
:1051040000436f756e746572353100436f756e744c
:105114006572353200436f756e74657235330043c2
:105124006f756e746572353400436f756e74657295
:10513400353500436f756e746572353600436f758f
:105144006e746572353700436f756e7465723538e9
:1051540000436f756e746572353900436f756e74f4
:105164006572363000436f756e7465723631004374
:105174006f756e746572363200436f756e74657246
:10518400363300436f756e746572363400436f7541
:105194006e746572363500436f756e74657236369b
:1051a40000436f756e746572363700436f756e74a5
:1051b4006572363800436f756e7465723639004314
:1051c4006f756e746572373000436f756e746572f7
:1051d400373100436f756e746572373200436f75f3
:1051e4006e746572373300436f756e74657237344d
:1051f40000436f756e746572373500436f756e7456
:105204006572373600436f756e74657237370043c5
:105214006f756e746572373800436f756e7465729e
:10522400373900436f756e746572383000436f759b
:105234006e746572383100436f756e7465723832fe
:1052440000436f756e746572383300436f756e7406
:105254006572383400436f756e7465723835004377
:105264006f756e746572383600436f756e7465724f
:10527400383700436f756e746572383800436f7544
:105284006e746572383900436f756e7465723930a7
:1052940000436f756e746572393100436f756e74b7
:1052a4006572393200436f756e7465723933004329
:1052b4006f756e746572393400436f756e74657200
:1052c400393500436f756e746572393600436f75f6
:1052d4006e746572393700436f756e746572393850
:1052e40000436f756e746572393900436f756e745f
:1052f400657231303000436f756e746572313031d0
:1053040000436f756e74657231303200436f756e91
:1053140074657231303300436f756e746572313069
:105324003400436f756e74657231303500436f75a8
:105334006e74657231303600436f756e7465723108
:10534400303700436f756e74657231303800436fc7
:10535400756e74657231303900436f756e746572a1
:1053640031313000436f756e7465723131310043f1
:105374006f756e74657231313200436f756e74658a
:105384007231313300436f756e746572313134009c
:10539400436f756e74657231313500436f756e7489
:1053a400657231313600436f756e74657231313711
:1053b40000436f756e74657231313800436f756eda
:1053c40074657231313900436f756e7465723132b0
:1053d4003000436f756e74657231323100436f75fe
:1053e4006e74657231323200436f756e746572315a
:1053f400323300436f756e74657231323400436f1b
:10540400756e74657231323500436f756e746572f2
:1054140031323600436f756e746572313237004332
:0c5424006f756e74657231323800ff0045
:020000040000fa
:1054300080b58cb000af786048f20403fb857b68d0
:105440001b889bb2063b7b857b681b889bb2052b28
:1054500001d8062321e27b68db889bb2013b052b48
:1054600000f2f78001a252f823f000bf855400003b
:10547000f95400003d55000093550000e955000027
:1054800013560000984b1b88002b40f0d7807b6898
:105490001b899bb21a467b685b899bb21b04134332
:1054a0007b627b6803f10c007b6803f10c02798d51
:1054b0007b6a08f0b7fd0346fb858c4b00221a601f
:1054c000fb8d47f69572934206d8894b01221a60ec
:1054d000fb8d884a1360b1e0fb8d47f6fa72934268
:1054e00000f2ac80824b00221a60824b00221a60cc
:1054f0007d4b01221a80a1e07b4b1b88002b40f0e2
:105500009f807b681b899bb21a467b685b899bb234
:105510001b0413433b627b680c33798d3a6a18464f
:1055200009f03afa0346fb85fb8d002b02d147f6c2
:10553000fd73fb856e4b00221a6081e06a4b1b886d
:10554000022b03d0684b1b88062b7bd17b681b8901
:105550009bb21a467b685b899bb21b041343fb61b9
:10556000634b1b68fa699a420fd17b680c337a8dc2
:105570001146184607f086fe0346fb85fb8d002b7f
:1055800060d147f6fd73fb855ce048f20503fb85bf
:1055900058e0554b1b88012b1ed1564b1a687b686f
:1055a0000c331946104609f013fa0346fb85514b9c
:1055b0001b684e4a1360fb8d47f69572934243d8a1
:1055c000fa8d4c4b1b6813444a4a1360484b1b68c6
:1055d0000133474a136037e0434b1b88042b33d118
:1055e00047f6fe73fb852fe03f4b1b88002b2dd029
:1055f0007b681b899bb21a467b685b899bb21b0444
:105600001343bb61b86909f031fd47f6ff73fb85b1
:105610001ce0354b1b88012b03d0334b1b88042b1c
:1056200016d17b681b8998b2304b19687b680c33a4
:105630001a4609f0a5fd0346fb8509e000bf08e016
:1056400000bf06e000bf04e000bf02e000bf00e0d2
:1056500000bffb8d47f69572934225d8244b1b68fb
:10566000bb607b68002242f003029a710022da716b
:10567000bb689ab27b681a81bb681b0c9ab27b68c4
:105680005a81fb8d06339ab27b681a80fa8d1a4bc9
:105690001b880c3b9a4203d1134b01221a80c5e0b0
:1056a000114b04221a80c1e0fb8d47f6fa72934237
:1056b00024d87b68002242f006029a710022da7137
:1056c000fb8da3f5ff43163b9ab27b681a817b687a
:1056d00000229a720022da727b68002242f00602ef
:1056e0001a7000225a70a1e0881b0020941b002031
:1056f0008c1b0020841b0020901c0020fb8d47f693
:10570000fd72934204d0fb8d47f6fc7293422bd17d
:10571000644b1b68fb60634b1b680133614a136079
:105720007b68002242f004029a710022da71fb6861
:105730009ab27b681a81fb681b0c9ab27b685a810b
:105740007b68002242f006021a7000225a70fb8d1c
:1057500047f6fd72934203d1534b02221a8065e053
:10576000514b00221a8061e0b7f92e30002b07db85
:105770004d4b00221a80786809f02aff00238ce044
:10578000fb8d7b61002387f82d307b68002242f07f
:1057900005029a710022da717b699ab27b681a81dc
:1057a0007b691b0c9ab27b685a817b68002242f0ad
:1057b00006021a7000225a701de07b6803f10c0289
:1057c00097f82d305b08dbb25b0013441b887b82ab
:1057d0007b8adbb2002b13d097f82d30013387f88a
:1057e0002d307b8a03f47f43002b0bd097f82d30ac
:1057f000013387f82d3097f82d301f2bddd902e0cb
:1058000000bf00e000bf97f82d301f2b0bd87b683e
:105810001b889ab297f82d309bb213449bb2013388
:105820009ab27b681a80204b00221a801f4b1b788b
:10583000002b27d07b689b889bb2c3f30b039ab2e3
:105840007b689a801a4b1b7803f00703002b02d168
:10585000174b01221a707b689b889bb21ab2144bbb
:105860001b781b031bb213431bb29ab27b689a804e
:105870000f4b1b780133dab20d4b1a70786805f0c4
:105880005df809e04021786805f08cfe0346002ba6
:1058900002d0084a7b681360002318463037bd46a3
:1058a00080bd00bf8c1b0020881b0020dc1b00205b
:0858b000181c0020901b0020d1
:020000040000fa
:1058b8002de9f74f01f10b05162d064606d935f0ef
:1058c800070504d50c233360002445e110258d42db
:1058d800f8d3304605f03bffb5f5fc7fa54f39d22c
:1058e80005f108023a44a2f1080154688c424fead3
:1058f800d50302d1d468a24210d06368e268a168d7
:1059080023f00303ca60234491605a6842f00102fd
:105918005a60304605f0edff08341de10233964a1f
:105928003c699442114675d0606820f00300a0ebf2
:10593800050ebef10f0f48dd631945f001056560de
:105948007b613b61da609a604ef001025a6044f86c
:1059580000e0dee76b0a2ad0042b12d8ab093833f3
:105968005a1c07ebc202a2f108005468844206d010
:10597800626822f00302511b0f291cdd013b013331
:10598800cde7142b01d85b33eae7542b02d82b0b55
:105998006e33e5e7b3f5aa7f02d8eb0b7733dfe781
:1059a80040f25452934204d8ab0c7c33d8e73f23df
:1059b800d6e77e23d4e70029e16804dba368d96031
:1059c8008b60a318a1e70c46d0e7bef1000f7a61ff
:1059d8003a6105db2044436843f00103436098e7dc
:1059e800b0f5007f4bd2c0084feaa00e012202faa0
:1059f8000efe7a6801304eea02027a6007ebc002b6
:105a080057f830e0c4f808e0083ae26047f8304058
:105a1800cef80c4001209a1000fa02f2786882420f
:105a280000f2ac80024206d123f003035200024286
:105a380003f10403fad007ebc308c1469c46d9f822
:105a48000c404c455ad10cf1010c1cf0030f09f124
:105a58000809f4d19c0740f085807b6823ea02039b
:105a68007b6078685200824200f28880002a00f049
:105a7800858063460242ded104335200fae7420ac7
:105a8800042a17d88209383202f1010e07ebc20c3a
:105a980057f83ee0f44528d10120921000fa02f2ae
:105aa800786810437860c4f80cc0c4f808e0ccf8f3
:105ab8000840ade7142a01d85b32e5e7542a02d83a
:105ac800020b6e32e0e7b2f5aa7f02d8c20b77323a
:105ad800dae740f2545e72459abf820c7c327e222d
:105ae800d2e7def808e0f44505d0def8042022f01d
:105af80003029042f5d3def80cc0d4e76068d4f80e
:105b08000ce020f00300a0eb050abaf10f0f12dd3c
:105b1800a268631945f001056560c2f80ce0cef88b
:105b280008204af001027b613b61d96099605a60a4
:105b380044f800a0ede6baf1000f11db20444368f9
:105b480043f00103436054f8083f3046c3f80ce0c3
:105b5800cef8083005f0cdfe204603b0bde8f08f42
:105b680074466ee758f80809804503f1ff333ff49f
:105b780071af76e7c8410020d0410020d7f808b0bf
:105b8800dbf8044024f003094d4504d8a9eb0503cc
:105b98000f2b00f394804f4a14684f4a0192116802
:105ba8002c44013116bf8f34103424f07f040bebe2
:105bb800090321463046009309f0fefab0f1ff3f91
:105bc800804654d0009b019a834201d9bb454ed1ef
:105bd80042480168434521440160824613d1580672
:105be80011d1bb684c4444f001045c603c4adaf8cb
:105bf800003011688b4288bf13603a4a11688b42a3
:105c080088bf136033e0106801301bbfa8eb0303a3
:105c18005b18c2f80080caf8003018f007031cbff0
:105c2800c3f1080398444444803304f07f041c1be8
:105c38002146304609f0c0fa431c08bf4046daf84e
:105c48000030c7f8088008bf0024a0eb08002344f0
:105c5800044444f00104bb45caf80030c8f80440c5
:105c6800c4d0b9f10f0f10d80123c8f80430bb68ad
:105c78005a6822f003029542a2eb050301d80f2bc4
:105c88001ddc304605f035fe1ee6dbf80430a9f1d0
:105c98000c0929f0070903f0010343ea0903cbf8cb
:105ca80004300beb09030522b9f10f0f5a609a6013
:105cb8009cd90bf10801304603f066f896e7bc68fa
:105cc80045f00102254443f001036260bd606b604a
:105cd8001fe600bf5453002058530020fc510020f9
:085ce8004c5300205053002032
:020000040000fa
:105cf00090b58fb002af78600023fb737b681b897f
:105d00009bb2dbb203f07f0387f82130022387f8d0
:105d10002f3097f82130052b06d17b681b889bb26a
:105d2000092b08d80623f2e17b681b889bb2072b5e
:105d300001d80623ebe197f82130032b00f0d18046
:105d4000052b00f0ce80012b40f0a5817b689b895c
:105d50009bb2052b00f2a2810023bb857b689b8947
:105d60009bb287f820300e227968ad4809f094fb89
:105d700097f820305a1e87f82020002b22d1a94bfb
